{"abi":[{"type":"constructor","inputs":[],"stateMutability":"nonpayable"},{"type":"function","name":"DEFAULT_ADMIN_ROLE","inputs":[],"outputs":[{"name":"","type":"bytes32","internalType":"bytes32"}],"stateMutability":"view"},{"type":"function","name":"DISTRIBUTION_DURATION","inputs":[],"outputs":[{"name":"","type":"uint256","internalType":"uint256"}],"stateMutability":"view"},{"type":"function","name":"EPOCH_ADMIN_ROLE","inputs":[],"outputs":[{"name":"","type":"bytes32","internalType":"bytes32"}],"stateMutability":"view"},{"type":"function","name":"EPOCH_DURATION","inputs":[],"outputs":[{"name":"","type":"uint256","internalType":"uint256"}],"stateMutability":"view"},{"type":"function","name":"VOTING_DURATION","inputs":[],"outputs":[{"name":"","type":"uint256","internalType":"uint256"}],"stateMutability":"view"},{"type":"function","name":"advanceEpoch","inputs":[],"outputs":[],"stateMutability":"nonpayable"},{"type":"function","name":"currentEpoch","inputs":[],"outputs":[{"name":"","type":"uint256","internalType":"uint256"}],"stateMutability":"view"},{"type":"function","name":"epochs","inputs":[{"name":"","type":"uint256","internalType":"uint256"}],"outputs":[{"name":"startTime","type":"uint256","internalType":"uint256"},{"name":"endTime","type":"uint256","internalType":"uint256"},{"name":"votingStartTime","type":"uint256","internalType":"uint256"},{"name":"votingEndTime","type":"uint256","internalType":"uint256"},{"name":"distributionTime","type":"uint256","internalType":"uint256"},{"name":"totalVotingPower","type":"uint256","internalType":"uint256"},{"name":"totalDistributed","type":"uint256","internalType":"uint256"},{"name":"finalized","type":"bool","internalType":"bool"}],"stateMutability":"view"},{"type":"function","name":"finalizeEpoch","inputs":[{"name":"_epoch","type":"uint256","internalType":"uint256"}],"outputs":[],"stateMutability":"nonpayable"},{"type":"function","name":"getCurrentEpoch","inputs":[],"outputs":[{"name":"","type":"uint256","internalType":"uint256"}],"stateMutability":"view"},{"type":"function","name":"getCurrentPhase","inputs":[],"outputs":[{"name":"","type":"uint8","internalType":"enum EpochManager.Phase"}],"stateMutability":"view"},{"type":"function","name":"getDistributionTime","inputs":[{"name":"_epoch","type":"uint256","internalType":"uint256"}],"outputs":[{"name":"","type":"uint256","internalType":"uint256"}],"stateMutability":"view"},{"type":"function","name":"getEpochData","inputs":[{"name":"_epoch","type":"uint256","internalType":"uint256"}],"outputs":[{"name":"","type":"tuple","internalType":"struct EpochManager.EpochData","components":[{"name":"startTime","type":"uint256","internalType":"uint256"},{"name":"endTime","type":"uint256","internalType":"uint256"},{"name":"votingStartTime","type":"uint256","internalType":"uint256"},{"name":"votingEndTime","type":"uint256","internalType":"uint256"},{"name":"distributionTime","type":"uint256","internalType":"uint256"},{"name":"totalVotingPower","type":"uint256","internalType":"uint256"},{"name":"totalDistributed","type":"uint256","internalType":"uint256"},{"name":"finalized","type":"bool","internalType":"bool"}]}],"stateMutability":"view"},{"type":"function","name":"getEpochEndTime","inputs":[{"name":"_epoch","type":"uint256","internalType":"uint256"}],"outputs":[{"name":"","type":"uint256","internalType":"uint256"}],"stateMutability":"view"},{"type":"function","name":"getEpochStartTime","inputs":[{"name":"_epoch","type":"uint256","internalType":"uint256"}],"outputs":[{"name":"","type":"uint256","internalType":"uint256"}],"stateMutability":"view"},{"type":"function","name":"getRoleAdmin","inputs":[{"name":"role","type":"bytes32","internalType":"bytes32"}],"outputs":[{"name":"","type":"bytes32","internalType":"bytes32"}],"stateMutability":"view"},{"type":"function","name":"getTimeRemainingInPhase","inputs":[],"outputs":[{"name":"","type":"uint256","internalType":"uint256"}],"stateMutability":"view"},{"type":"function","name":"getVotingEndTime","inputs":[{"name":"_epoch","type":"uint256","internalType":"uint256"}],"outputs":[{"name":"","type":"uint256","internalType":"uint256"}],"stateMutability":"view"},{"type":"function","name":"getVotingStartTime","inputs":[{"name":"_epoch","type":"uint256","internalType":"uint256"}],"outputs":[{"name":"","type":"uint256","internalType":"uint256"}],"stateMutability":"view"},{"type":"function","name":"grantRole","inputs":[{"name":"role","type":"bytes32","internalType":"bytes32"},{"name":"account","type":"address","internalType":"address"}],"outputs":[],"stateMutability":"nonpayable"},{"type":"function","name":"hasRole","inputs":[{"name":"role","type":"bytes32","internalType":"bytes32"},{"name":"account","type":"address","internalType":"address"}],"outputs":[{"name":"","type":"bool","internalType":"bool"}],"stateMutability":"view"},{"type":"function","name":"initialize","inputs":[{"name":"_startTime","type":"uint256","internalType":"uint256"}],"outputs":[],"stateMutability":"nonpayable"},{"type":"function","name":"isDistributionPeriod","inputs":[],"outputs":[{"name":"","type":"bool","internalType":"bool"}],"stateMutability":"view"},{"type":"function","name":"isEpochActive","inputs":[{"name":"_epoch","type":"uint256","internalType":"uint256"}],"outputs":[{"name":"","type":"bool","internalType":"bool"}],"stateMutability":"view"},{"type":"function","name":"isPreparationPeriod","inputs":[],"outputs":[{"name":"","type":"bool","internalType":"bool"}],"stateMutability":"view"},{"type":"function","name":"isVotingPeriod","inputs":[],"outputs":[{"name":"","type":"bool","internalType":"bool"}],"stateMutability":"view"},{"type":"function","name":"pause","inputs":[],"outputs":[],"stateMutability":"nonpayable"},{"type":"function","name":"paused","inputs":[],"outputs":[{"name":"","type":"bool","internalType":"bool"}],"stateMutability":"view"},{"type":"function","name":"recordDistribution","inputs":[{"name":"_amount","type":"uint256","internalType":"uint256"}],"outputs":[],"stateMutability":"nonpayable"},{"type":"function","name":"recordVotingPower","inputs":[{"name":"_votingPower","type":"uint256","internalType":"uint256"}],"outputs":[],"stateMutability":"nonpayable"},{"type":"function","name":"renounceRole","inputs":[{"name":"role","type":"bytes32","internalType":"bytes32"},{"name":"account","type":"address","internalType":"address"}],"outputs":[],"stateMutability":"nonpayable"},{"type":"function","name":"revokeRole","inputs":[{"name":"role","type":"bytes32","internalType":"bytes32"},{"name":"account","type":"address","internalType":"address"}],"outputs":[],"stateMutability":"nonpayable"},{"type":"function","name":"startTime","inputs":[],"outputs":[{"name":"","type":"uint256","internalType":"uint256"}],"stateMutability":"view"},{"type":"function","name":"supportsInterface","inputs":[{"name":"interfaceId","type":"bytes4","internalType":"bytes4"}],"outputs":[{"name":"","type":"bool","internalType":"bool"}],"stateMutability":"view"},{"type":"function","name":"unpause","inputs":[],"outputs":[],"stateMutability":"nonpayable"},{"type":"event","name":"DistributionRecorded","inputs":[{"name":"epoch","type":"uint256","indexed":true,"internalType":"uint256"},{"name":"amount","type":"uint256","indexed":false,"internalType":"uint256"}],"anonymous":false},{"type":"event","name":"EpochFinalized","inputs":[{"name":"epoch","type":"uint256","indexed":true,"internalType":"uint256"},{"name":"totalVotingPower","type":"uint256","indexed":false,"internalType":"uint256"},{"name":"totalDistributed","type":"uint256","indexed":false,"internalType":"uint256"}],"anonymous":false},{"type":"event","name":"EpochStarted","inputs":[{"name":"epoch","type":"uint256","indexed":true,"internalType":"uint256"},{"name":"startTime","type":"uint256","indexed":false,"internalType":"uint256"},{"name":"endTime","type":"uint256","indexed":false,"internalType":"uint256"}],"anonymous":false},{"type":"event","name":"Initialized","inputs":[{"name":"version","type":"uint8","indexed":false,"internalType":"uint8"}],"anonymous":false},{"type":"event","name":"Paused","inputs":[{"name":"account","type":"address","indexed":false,"internalType":"address"}],"anonymous":false},{"type":"event","name":"PhaseChanged","inputs":[{"name":"epoch","type":"uint256","indexed":true,"internalType":"uint256"},{"name":"phase","type":"uint8","indexed":false,"internalType":"enum EpochManager.Phase"},{"name":"timestamp","type":"uint256","indexed":false,"internalType":"uint256"}],"anonymous":false},{"type":"event","name":"RoleAdminChanged","inputs":[{"name":"role","type":"bytes32","indexed":true,"internalType":"bytes32"},{"name":"previousAdminRole","type":"bytes32","indexed":true,"internalType":"bytes32"},{"name":"newAdminRole","type":"bytes32","indexed":true,"internalType":"bytes32"}],"anonymous":false},{"type":"event","name":"RoleGranted","inputs":[{"name":"role","type":"bytes32","indexed":true,"internalType":"bytes32"},{"name":"account","type":"address","indexed":true,"internalType":"address"},{"name":"sender","type":"address","indexed":true,"internalType":"address"}],"anonymous":false},{"type":"event","name":"RoleRevoked","inputs":[{"name":"role","type":"bytes32","indexed":true,"internalType":"bytes32"},{"name":"account","type":"address","indexed":true,"internalType":"address"},{"name":"sender","type":"address","indexed":true,"internalType":"address"}],"anonymous":false},{"type":"event","name":"Unpaused","inputs":[{"name":"account","type":"address","indexed":false,"internalType":"address"}],"anonymous":false},{"type":"event","name":"VotingPowerRecorded","inputs":[{"name":"epoch","type":"uint256","indexed":true,"internalType":"uint256"},{"name":"votingPower","type":"uint256","indexed":false,"internalType":"uint256"}],"anonymous":false}],"bytecode":{"object":"0x6080604052348015600f57600080fd5b506016601a565b60d7565b600054610100900460ff161560855760405162461bcd60e51b815260206004820152602760248201527f496e697469616c697a61626c653a20636f6e747261637420697320696e697469604482015266616c697a696e6760c81b606482015260840160405180910390fd5b60005460ff9081161460d5576000805460ff191660ff9081179091556040519081527f7f26b83ff96e1f2b6a682f133852f6798a09c465da95921460cefb38474024989060200160405180910390a15b565b6117aa806100e66000396000f3fe608060405234801561001057600080fd5b50600436106102115760003560e01c8063859e7d3211610125578063b97dd9e2116100ad578063d4ee9f8d1161007c578063d4ee9f8d146104db578063d547741f146104ee578063e16fd62e14610501578063e4b5d3fe14610509578063fe4b84df1461051c57600080fd5b8063b97dd9e214610427578063c6b61e4c1461042f578063c887a487146104c0578063d0ef6c45146104d357600080fd5b8063a217fddf116100f4578063a217fddf146103e1578063a3a40ea5146103e9578063a438d208146103fe578063a70b9f0c14610408578063acf833a81461041257600080fd5b8063859e7d321461033257806391d14854146103a8578063986bce2c146103bb5780639c5c26d2146103ce57600080fd5b80634c7ecd4c116101a85780636a1fc440116101775780636a1fc440146102f25780636ac7707a14610305578063766718081461031857806378e97925146103215780638456cb591461032a57600080fd5b80634c7ecd4c146102c45780635c975abb146102cc578063624c3fe7146102d7578063633e9e09146102df57600080fd5b80632f2ff15d116101e45780632f2ff15d1461028c57806336568abe146102a15780633cf80e6c146102b45780633f4ba83a146102bc57600080fd5b806301ffc9a7146102165780630ea6c0dc1461023e578063248a9ca31461025f57806328f7fdcf14610282575b600080fd5b6102296102243660046114a5565b61052f565b60405190151581526020015b60405180910390f35b61025161024c3660046114cf565b610566565b604051908152602001610235565b61025161026d3660046114cf565b60009081526065602052604090206001015490565b6102516201518081565b61029f61029a3660046114e8565b61057f565b005b61029f6102af3660046114e8565b6105a9565b61029f61062c565b61029f610773565b610229610789565b60975460ff16610229565b6102296107aa565b6102516102ed3660046114cf565b6107ec565b6102296103003660046114cf565b610808565b61029f6103133660046114cf565b61081a565b61025160ca5481565b61025160c95481565b61029f6108f3565b6103456103403660046114cf565b610906565b6040516102359190600061010082019050825182526020830151602083015260408301516040830152606083015160608301526080830151608083015260a083015160a083015260c083015160c083015260e0830151151560e083015292915050565b6102296103b63660046114e8565b610a43565b61029f6103c93660046114cf565b610a6e565b61029f6103dc3660046114cf565b610b57565b610251600081565b6103f1610bd8565b604051610235919061155c565b61025162093a8081565b6102516212750081565b61025160008051602061175583398151915281565b610251610c06565b61048361043d3660046114cf565b60cb602052600090815260409020805460018201546002830154600384015460048501546005860154600687015460079097015495969495939492939192909160ff1688565b604080519889526020890197909752958701949094526060860192909252608085015260a084015260c0830152151560e082015261010001610235565b6102516104ce3660046114cf565b610c34565b610251610c3f565b6102516104e93660046114cf565b610cc3565b61029f6104fc3660046114e8565b610cd2565b610229610cf7565b6102516105173660046114cf565b610d1c565b61029f61052a3660046114cf565b610d27565b60006001600160e01b03198216637965db0b60e01b148061056057506301ffc9a760e01b6001600160e01b03198316145b92915050565b600062093a8061057583610d1c565b6105609190611580565b60008281526065602052604090206001015461059a81610ec8565b6105a48383610ed2565b505050565b6001600160a01b038116331461061e5760405162461bcd60e51b815260206004820152602f60248201527f416363657373436f6e74726f6c3a2063616e206f6e6c792072656e6f756e636560448201526e103937b632b9903337b91039b2b63360891b60648201526084015b60405180910390fd5b6106288282610f58565b5050565b610634610fbf565b600061063e610c06565b905060ca5481116106915760405162461bcd60e51b815260206004820152601760248201527f43757272656e742065706f6368206e6f7420656e6465640000000000000000006044820152606401610615565b60ca54600090815260cb602052604090206007015460ff166106b8576106b860ca54611007565b60ca819055600081815260cb602052604081205490036106dd576106dd60ca5461106c565b60ca547f29db3deb62ef2036e5eb93aad68d2362aec0711af592cb365566603bd88651d461070a826107ec565b61071560ca54610cc3565b6040805192835260208301919091520160405180910390a260ca547f2057fc9749a78f2ad31dc82932adeec04e46e917f8c0259fc88a96b5021ba462610759610bd8565b42604051610768929190611593565b60405180910390a250565b600061077e81610ec8565b610786611136565b50565b6000610793610cf7565b1580156107a557506107a36107aa565b155b905090565b6000806107b5610c06565b905060006107c282610c34565b905060006107d36201518083611580565b90508142101580156107e457508042105b935050505090565b60006107fb62127500836115ae565b60c9546105609190611580565b6000610812610c06565b909114919050565b60008051602061175583398151915261083281610ec8565b600061083c610c06565b90506108466107aa565b6108925760405162461bcd60e51b815260206004820152601a60248201527f4e6f7420696e20646973747269627574696f6e20706572696f640000000000006044820152606401610615565b600081815260cb6020526040812060060180548592906108b3908490611580565b909155505060405183815281907f4e20aa55ceccea54d7e6d151bf80ad74ab2e4c00e27f837552b96587797c79e3906020015b60405180910390a2505050565b60006108fe81610ec8565b610786611188565b610950604051806101000160405280600081526020016000815260200160008152602001600081526020016000815260200160008152602001600081526020016000151581525090565b600082815260cb602052604081205490036109d05760405180610100016040528061097a846107ec565b815260200161098884610cc3565b815260200161099684610d1c565b81526020016109a484610566565b81526020016109b284610c34565b81526000602082018190526040820181905260609091015292915050565b50600090815260cb6020908152604091829020825161010081018452815481526001820154928101929092526002810154928201929092526003820154606082015260048201546080820152600582015460a0820152600682015460c082015260079091015460ff16151560e082015290565b60009182526065602090815260408084206001600160a01b0393909316845291905290205460ff1690565b600080516020611755833981519152610a8681610ec8565b610a8e610c06565b8210610aec5760405162461bcd60e51b815260206004820152602760248201527f43616e6e6f742066696e616c697a652063757272656e74206f722066757475726044820152660ca40cae0dec6d60cb1b6064820152608401610615565b600082815260cb602052604090206007015460ff1615610b4e5760405162461bcd60e51b815260206004820152601760248201527f45706f636820616c72656164792066696e616c697a65640000000000000000006044820152606401610615565b61062882611007565b600080516020611755833981519152610b6f81610ec8565b6000610b79610c06565b90508260cb60008381526020019081526020016000206005016000828254610ba19190611580565b909155505060405183815281907fc9913c531d6447245359e4b8f71dcecb3bfe95dde66407173125fc394817b203906020016108e6565b6000610be2610cf7565b15610bed5750600190565b610bf56107aa565b15610c005750600290565b50600090565b600060c954421015610c185750600090565b6212750060c95442610c2a91906115c5565b6107a591906115d8565b600061056082610566565b600080610c4a610bd8565b90506000610c56610c06565b90506001826002811115610c6c57610c6c611524565b03610c8c5742610c7b82610566565b610c8591906115c5565b9250505090565b6002826002811115610ca057610ca0611524565b03610cbd574262015180610cb383610c34565b610c7b9190611580565b42610c7b825b600062127500610575836107ec565b600082815260656020526040902060010154610ced81610ec8565b6105a48383610f58565b600080610d02610c06565b90506000610d0f82610d1c565b905060006107d383610566565b6000610560826107ec565b600054610100900460ff1615808015610d475750600054600160ff909116105b80610d615750303b158015610d61575060005460ff166001145b610dc45760405162461bcd60e51b815260206004820152602e60248201527f496e697469616c697a61626c653a20636f6e747261637420697320616c72656160448201526d191e481a5b9a5d1a585b1a5e995960921b6064820152608401610615565b6000805460ff191660011790558015610de7576000805461ff0019166101001790555b610def6111c5565b610df76111ec565b42821015610e475760405162461bcd60e51b815260206004820152601c60248201527f53746172742074696d65206d75737420626520696e20667574757265000000006044820152606401610615565b610e52600033610ed2565b610e6a60008051602061175583398151915233610ed2565b60c9829055600060ca819055610e7f9061106c565b8015610628576000805461ff0019169055604051600181527f7f26b83ff96e1f2b6a682f133852f6798a09c465da95921460cefb38474024989060200160405180910390a15050565b610786813361121b565b610edc8282610a43565b6106285760008281526065602090815260408083206001600160a01b03851684529091529020805460ff19166001179055610f143390565b6001600160a01b0316816001600160a01b0316837f2f8788117e7eff1d82e926ec794901d17c78024a50270940304540a733656f0d60405160405180910390a45050565b610f628282610a43565b156106285760008281526065602090815260408083206001600160a01b0385168085529252808320805460ff1916905551339285917ff6391f5c32d9c69d2a47ea670b442974b53935d1edc7fd64eb21e047a839171b9190a45050565b60975460ff16156110055760405162461bcd60e51b815260206004820152601060248201526f14185d5cd8589b194e881c185d5cd95960821b6044820152606401610615565b565b600081815260cb60205260409081902060078101805460ff191660011790556005810154600690910154915183927fb463d19ecf455be65365092cf8e1db6934a0334cf8cd532ddf9964d01f36b5b29261076892909190918252602082015260400190565b604051806101000160405280611081836107ec565b815260200161108f83610cc3565b815260200161109d83610d1c565b81526020016110ab83610566565b81526020016110b983610c34565b8152600060208083018290526040808401839052606093840183905294825260cb8152908490208351815590830151600182015592820151600284015581015160038301556080810151600483015560a0810151600583015560c0810151600683015560e001516007909101805460ff1916911515919091179055565b61113e611274565b6097805460ff191690557f5db9ee0a495bf2e6ff9c91a7834c1ba4fdd244a5e8aa4e537bd38aeae4b073aa335b6040516001600160a01b03909116815260200160405180910390a1565b611190610fbf565b6097805460ff191660011790557f62e78cea01bee320cd4e420270b5ea74000d11b0c9f74754ebdbfc544b05a25861116b3390565b600054610100900460ff166110055760405162461bcd60e51b8152600401610615906115fa565b600054610100900460ff166112135760405162461bcd60e51b8152600401610615906115fa565b6110056112bd565b6112258282610a43565b61062857611232816112f0565b61123d836020611302565b60405160200161124e929190611669565b60408051601f198184030181529082905262461bcd60e51b8252610615916004016116de565b60975460ff166110055760405162461bcd60e51b815260206004820152601460248201527314185d5cd8589b194e881b9bdd081c185d5cd95960621b6044820152606401610615565b600054610100900460ff166112e45760405162461bcd60e51b8152600401610615906115fa565b6097805460ff19169055565b60606105606001600160a01b03831660145b606060006113118360026115ae565b61131c906002611580565b67ffffffffffffffff81111561133457611334611711565b6040519080825280601f01601f19166020018201604052801561135e576020820181803683370190505b509050600360fc1b8160008151811061137957611379611727565b60200101906001600160f81b031916908160001a905350600f60fb1b816001815181106113a8576113a8611727565b60200101906001600160f81b031916908160001a90535060006113cc8460026115ae565b6113d7906001611580565b90505b600181111561144f576f181899199a1a9b1b9c1cb0b131b232b360811b85600f166010811061140b5761140b611727565b1a60f81b82828151811061142157611421611727565b60200101906001600160f81b031916908160001a90535060049490941c936114488161173d565b90506113da565b50831561149e5760405162461bcd60e51b815260206004820181905260248201527f537472696e67733a20686578206c656e67746820696e73756666696369656e746044820152606401610615565b9392505050565b6000602082840312156114b757600080fd5b81356001600160e01b03198116811461149e57600080fd5b6000602082840312156114e157600080fd5b5035919050565b600080604083850312156114fb57600080fd5b8235915060208301356001600160a01b038116811461151957600080fd5b809150509250929050565b634e487b7160e01b600052602160045260246000fd5b6003811061155857634e487b7160e01b600052602160045260246000fd5b9052565b60208101610560828461153a565b634e487b7160e01b600052601160045260246000fd5b808201808211156105605761056061156a565b604081016115a1828561153a565b8260208301529392505050565b80820281158282048414176105605761056061156a565b818103818111156105605761056061156a565b6000826115f557634e487b7160e01b600052601260045260246000fd5b500490565b6020808252602b908201527f496e697469616c697a61626c653a20636f6e7472616374206973206e6f74206960408201526a6e697469616c697a696e6760a81b606082015260800190565b60005b83811015611660578181015183820152602001611648565b50506000910152565b7f416363657373436f6e74726f6c3a206163636f756e74200000000000000000008152600083516116a1816017850160208801611645565b7001034b99036b4b9b9b4b733903937b6329607d1b60179184019182015283516116d2816028840160208801611645565b01602801949350505050565b60208152600082518060208401526116fd816040850160208701611645565b601f01601f19169190910160400192915050565b634e487b7160e01b600052604160045260246000fd5b634e487b7160e01b600052603260045260246000fd5b60008161174c5761174c61156a565b50600019019056fea8254feae331b360dda9558bd798ab27bf43a131cb76e076a396102d8769e0aca26469706673582212200ffb6912ebab5080ebc0aac7dc60540d196eee189350c98a4afccab5e5a0c38864736f6c634300081e0033","linkReferences":{}},"methodIdentifiers":{"DEFAULT_ADMIN_ROLE()":"a217fddf","DISTRIBUTION_DURATION()":"28f7fdcf","EPOCH_ADMIN_ROLE()":"acf833a8","EPOCH_DURATION()":"a70b9f0c","VOTING_DURATION()":"a438d208","advanceEpoch()":"3cf80e6c","currentEpoch()":"76671808","epochs(uint256)":"c6b61e4c","finalizeEpoch(uint256)":"986bce2c","getCurrentEpoch()":"b97dd9e2","getCurrentPhase()":"a3a40ea5","getDistributionTime(uint256)":"c887a487","getEpochData(uint256)":"859e7d32","getEpochEndTime(uint256)":"d4ee9f8d","getEpochStartTime(uint256)":"633e9e09","getRoleAdmin(bytes32)":"248a9ca3","getTimeRemainingInPhase()":"d0ef6c45","getVotingEndTime(uint256)":"0ea6c0dc","getVotingStartTime(uint256)":"e4b5d3fe","grantRole(bytes32,address)":"2f2ff15d","hasRole(bytes32,address)":"91d14854","initialize(uint256)":"fe4b84df","isDistributionPeriod()":"624c3fe7","isEpochActive(uint256)":"6a1fc440","isPreparationPeriod()":"4c7ecd4c","isVotingPeriod()":"e16fd62e","pause()":"8456cb59","paused()":"5c975abb","recordDistribution(uint256)":"6ac7707a","recordVotingPower(uint256)":"9c5c26d2","renounceRole(bytes32,address)":"36568abe","revokeRole(bytes32,address)":"d547741f","startTime()":"78e97925","supportsInterface(bytes4)":"01ffc9a7","unpause()":"3f4ba83a"},"id":0}