{"abi":[{"type":"constructor","inputs":[],"stateMutability":"nonpayable"},{"type":"function","name":"DEFAULT_ADMIN_ROLE","inputs":[],"outputs":[{"name":"","type":"bytes32","internalType":"bytes32"}],"stateMutability":"view"},{"type":"function","name":"EXECUTOR_ROLE","inputs":[],"outputs":[{"name":"","type":"bytes32","internalType":"bytes32"}],"stateMutability":"view"},{"type":"function","name":"GOVERNANCE_ADMIN_ROLE","inputs":[],"outputs":[{"name":"","type":"bytes32","internalType":"bytes32"}],"stateMutability":"view"},{"type":"function","name":"cancel","inputs":[{"name":"_proposalId","type":"uint256","internalType":"uint256"}],"outputs":[],"stateMutability":"nonpayable"},{"type":"function","name":"castVote","inputs":[{"name":"_proposalId","type":"uint256","internalType":"uint256"},{"name":"_tokenId","type":"uint256","internalType":"uint256"},{"name":"_voteType","type":"uint8","internalType":"enum FushumaGovernor.VoteType"}],"outputs":[],"stateMutability":"nonpayable"},{"type":"function","name":"castVoteMultiple","inputs":[{"name":"_proposalId","type":"uint256","internalType":"uint256"},{"name":"_tokenIds","type":"uint256[]","internalType":"uint256[]"},{"name":"_voteType","type":"uint8","internalType":"enum FushumaGovernor.VoteType"}],"outputs":[],"stateMutability":"nonpayable"},{"type":"function","name":"council","inputs":[],"outputs":[{"name":"","type":"address","internalType":"address"}],"stateMutability":"view"},{"type":"function","name":"escrow","inputs":[],"outputs":[{"name":"","type":"address","internalType":"address"}],"stateMutability":"view"},{"type":"function","name":"execute","inputs":[{"name":"_proposalId","type":"uint256","internalType":"uint256"}],"outputs":[],"stateMutability":"nonpayable"},{"type":"function","name":"getRoleAdmin","inputs":[{"name":"role","type":"bytes32","internalType":"bytes32"}],"outputs":[{"name":"","type":"bytes32","internalType":"bytes32"}],"stateMutability":"view"},{"type":"function","name":"getVotes","inputs":[{"name":"_proposalId","type":"uint256","internalType":"uint256"}],"outputs":[{"name":"forVotes","type":"uint256","internalType":"uint256"},{"name":"againstVotes","type":"uint256","internalType":"uint256"},{"name":"abstainVotes","type":"uint256","internalType":"uint256"}],"stateMutability":"view"},{"type":"function","name":"grantRole","inputs":[{"name":"role","type":"bytes32","internalType":"bytes32"},{"name":"account","type":"address","internalType":"address"}],"outputs":[],"stateMutability":"nonpayable"},{"type":"function","name":"hasRole","inputs":[{"name":"role","type":"bytes32","internalType":"bytes32"},{"name":"account","type":"address","internalType":"address"}],"outputs":[{"name":"","type":"bool","internalType":"bool"}],"stateMutability":"view"},{"type":"function","name":"hasVoted","inputs":[{"name":"","type":"uint256","internalType":"uint256"},{"name":"","type":"uint256","internalType":"uint256"}],"outputs":[{"name":"","type":"bool","internalType":"bool"}],"stateMutability":"view"},{"type":"function","name":"initialize","inputs":[{"name":"_admin","type":"address","internalType":"address"},{"name":"_escrow","type":"address","internalType":"address"},{"name":"_council","type":"address","internalType":"address"},{"name":"_proposalThreshold","type":"uint256","internalType":"uint256"},{"name":"_quorumBps","type":"uint256","internalType":"uint256"},{"name":"_votingPeriod","type":"uint256","internalType":"uint256"},{"name":"_votingDelay","type":"uint256","internalType":"uint256"},{"name":"_timelockDelay","type":"uint256","internalType":"uint256"}],"outputs":[],"stateMutability":"nonpayable"},{"type":"function","name":"pause","inputs":[],"outputs":[],"stateMutability":"nonpayable"},{"type":"function","name":"paused","inputs":[],"outputs":[{"name":"","type":"bool","internalType":"bool"}],"stateMutability":"view"},{"type":"function","name":"proposalCount","inputs":[],"outputs":[{"name":"","type":"uint256","internalType":"uint256"}],"stateMutability":"view"},{"type":"function","name":"proposalThreshold","inputs":[],"outputs":[{"name":"","type":"uint256","internalType":"uint256"}],"stateMutability":"view"},{"type":"function","name":"proposals","inputs":[{"name":"","type":"uint256","internalType":"uint256"}],"outputs":[{"name":"id","type":"uint256","internalType":"uint256"},{"name":"proposer","type":"address","internalType":"address"},{"name":"title","type":"string","internalType":"string"},{"name":"description","type":"string","internalType":"string"},{"name":"metadataHash","type":"bytes32","internalType":"bytes32"},{"name":"createdAt","type":"uint256","internalType":"uint256"},{"name":"startTime","type":"uint256","internalType":"uint256"},{"name":"endTime","type":"uint256","internalType":"uint256"},{"name":"executionTime","type":"uint256","internalType":"uint256"},{"name":"state","type":"uint8","internalType":"enum FushumaGovernor.ProposalState"},{"name":"isSpeedup","type":"bool","internalType":"bool"}],"stateMutability":"view"},{"type":"function","name":"propose","inputs":[{"name":"_title","type":"string","internalType":"string"},{"name":"_description","type":"string","internalType":"string"},{"name":"_metadataHash","type":"bytes32","internalType":"bytes32"}],"outputs":[{"name":"proposalId","type":"uint256","internalType":"uint256"}],"stateMutability":"nonpayable"},{"type":"function","name":"proxiableUUID","inputs":[],"outputs":[{"name":"","type":"bytes32","internalType":"bytes32"}],"stateMutability":"view"},{"type":"function","name":"queue","inputs":[{"name":"_proposalId","type":"uint256","internalType":"uint256"}],"outputs":[],"stateMutability":"nonpayable"},{"type":"function","name":"quorumBps","inputs":[],"outputs":[{"name":"","type":"uint256","internalType":"uint256"}],"stateMutability":"view"},{"type":"function","name":"renounceRole","inputs":[{"name":"role","type":"bytes32","internalType":"bytes32"},{"name":"account","type":"address","internalType":"address"}],"outputs":[],"stateMutability":"nonpayable"},{"type":"function","name":"revokeRole","inputs":[{"name":"role","type":"bytes32","internalType":"bytes32"},{"name":"account","type":"address","internalType":"address"}],"outputs":[],"stateMutability":"nonpayable"},{"type":"function","name":"setProposalThreshold","inputs":[{"name":"_newThreshold","type":"uint256","internalType":"uint256"}],"outputs":[],"stateMutability":"nonpayable"},{"type":"function","name":"setQuorum","inputs":[{"name":"_newQuorumBps","type":"uint256","internalType":"uint256"}],"outputs":[],"stateMutability":"nonpayable"},{"type":"function","name":"setTimelockDelay","inputs":[{"name":"_newDelay","type":"uint256","internalType":"uint256"}],"outputs":[],"stateMutability":"nonpayable"},{"type":"function","name":"setVotingDelay","inputs":[{"name":"_newDelay","type":"uint256","internalType":"uint256"}],"outputs":[],"stateMutability":"nonpayable"},{"type":"function","name":"setVotingPeriod","inputs":[{"name":"_newPeriod","type":"uint256","internalType":"uint256"}],"outputs":[],"stateMutability":"nonpayable"},{"type":"function","name":"state","inputs":[{"name":"_proposalId","type":"uint256","internalType":"uint256"}],"outputs":[{"name":"","type":"uint8","internalType":"enum FushumaGovernor.ProposalState"}],"stateMutability":"view"},{"type":"function","name":"supportsInterface","inputs":[{"name":"interfaceId","type":"bytes4","internalType":"bytes4"}],"outputs":[{"name":"","type":"bool","internalType":"bool"}],"stateMutability":"view"},{"type":"function","name":"timelockDelay","inputs":[],"outputs":[{"name":"","type":"uint256","internalType":"uint256"}],"stateMutability":"view"},{"type":"function","name":"unpause","inputs":[],"outputs":[],"stateMutability":"nonpayable"},{"type":"function","name":"upgradeTo","inputs":[{"name":"newImplementation","type":"address","internalType":"address"}],"outputs":[],"stateMutability":"nonpayable"},{"type":"function","name":"upgradeToAndCall","inputs":[{"name":"newImplementation","type":"address","internalType":"address"},{"name":"data","type":"bytes","internalType":"bytes"}],"outputs":[],"stateMutability":"payable"},{"type":"function","name":"voteTallies","inputs":[{"name":"","type":"uint256","internalType":"uint256"}],"outputs":[{"name":"forVotes","type":"uint256","internalType":"uint256"},{"name":"againstVotes","type":"uint256","internalType":"uint256"},{"name":"abstainVotes","type":"uint256","internalType":"uint256"}],"stateMutability":"view"},{"type":"function","name":"votingDelay","inputs":[],"outputs":[{"name":"","type":"uint256","internalType":"uint256"}],"stateMutability":"view"},{"type":"function","name":"votingPeriod","inputs":[],"outputs":[{"name":"","type":"uint256","internalType":"uint256"}],"stateMutability":"view"},{"type":"event","name":"AdminChanged","inputs":[{"name":"previousAdmin","type":"address","indexed":false,"internalType":"address"},{"name":"newAdmin","type":"address","indexed":false,"internalType":"address"}],"anonymous":false},{"type":"event","name":"BeaconUpgraded","inputs":[{"name":"beacon","type":"address","indexed":true,"internalType":"address"}],"anonymous":false},{"type":"event","name":"Initialized","inputs":[{"name":"version","type":"uint8","indexed":false,"internalType":"uint8"}],"anonymous":false},{"type":"event","name":"Paused","inputs":[{"name":"account","type":"address","indexed":false,"internalType":"address"}],"anonymous":false},{"type":"event","name":"ProposalCancelled","inputs":[{"name":"proposalId","type":"uint256","indexed":true,"internalType":"uint256"}],"anonymous":false},{"type":"event","name":"ProposalCreated","inputs":[{"name":"proposalId","type":"uint256","indexed":true,"internalType":"uint256"},{"name":"proposer","type":"address","indexed":true,"internalType":"address"},{"name":"title","type":"string","indexed":false,"internalType":"string"},{"name":"startTime","type":"uint256","indexed":false,"internalType":"uint256"},{"name":"endTime","type":"uint256","indexed":false,"internalType":"uint256"}],"anonymous":false},{"type":"event","name":"ProposalExecuted","inputs":[{"name":"proposalId","type":"uint256","indexed":true,"internalType":"uint256"}],"anonymous":false},{"type":"event","name":"ProposalQueued","inputs":[{"name":"proposalId","type":"uint256","indexed":true,"internalType":"uint256"},{"name":"executionTime","type":"uint256","indexed":false,"internalType":"uint256"}],"anonymous":false},{"type":"event","name":"ProposalSpeedup","inputs":[{"name":"proposalId","type":"uint256","indexed":true,"internalType":"uint256"},{"name":"newEndTime","type":"uint256","indexed":false,"internalType":"uint256"},{"name":"newExecutionTime","type":"uint256","indexed":false,"internalType":"uint256"}],"anonymous":false},{"type":"event","name":"ProposalThresholdUpdated","inputs":[{"name":"oldValue","type":"uint256","indexed":false,"internalType":"uint256"},{"name":"newValue","type":"uint256","indexed":false,"internalType":"uint256"}],"anonymous":false},{"type":"event","name":"ProposalVetoed","inputs":[{"name":"proposalId","type":"uint256","indexed":true,"internalType":"uint256"}],"anonymous":false},{"type":"event","name":"QuorumUpdated","inputs":[{"name":"oldValue","type":"uint256","indexed":false,"internalType":"uint256"},{"name":"newValue","type":"uint256","indexed":false,"internalType":"uint256"}],"anonymous":false},{"type":"event","name":"RoleAdminChanged","inputs":[{"name":"role","type":"bytes32","indexed":true,"internalType":"bytes32"},{"name":"previousAdminRole","type":"bytes32","indexed":true,"internalType":"bytes32"},{"name":"newAdminRole","type":"bytes32","indexed":true,"internalType":"bytes32"}],"anonymous":false},{"type":"event","name":"RoleGranted","inputs":[{"name":"role","type":"bytes32","indexed":true,"internalType":"bytes32"},{"name":"account","type":"address","indexed":true,"internalType":"address"},{"name":"sender","type":"address","indexed":true,"internalType":"address"}],"anonymous":false},{"type":"event","name":"RoleRevoked","inputs":[{"name":"role","type":"bytes32","indexed":true,"internalType":"bytes32"},{"name":"account","type":"address","indexed":true,"internalType":"address"},{"name":"sender","type":"address","indexed":true,"internalType":"address"}],"anonymous":false},{"type":"event","name":"TimelockDelayUpdated","inputs":[{"name":"oldValue","type":"uint256","indexed":false,"internalType":"uint256"},{"name":"newValue","type":"uint256","indexed":false,"internalType":"uint256"}],"anonymous":false},{"type":"event","name":"Unpaused","inputs":[{"name":"account","type":"address","indexed":false,"internalType":"address"}],"anonymous":false},{"type":"event","name":"Upgraded","inputs":[{"name":"implementation","type":"address","indexed":true,"internalType":"address"}],"anonymous":false},{"type":"event","name":"VoteCast","inputs":[{"name":"proposalId","type":"uint256","indexed":true,"internalType":"uint256"},{"name":"tokenId","type":"uint256","indexed":true,"internalType":"uint256"},{"name":"voter","type":"address","indexed":true,"internalType":"address"},{"name":"voteType","type":"uint8","indexed":false,"internalType":"enum FushumaGovernor.VoteType"},{"name":"votingPower","type":"uint256","indexed":false,"internalType":"uint256"}],"anonymous":false},{"type":"event","name":"VotingDelayUpdated","inputs":[{"name":"oldValue","type":"uint256","indexed":false,"internalType":"uint256"},{"name":"newValue","type":"uint256","indexed":false,"internalType":"uint256"}],"anonymous":false},{"type":"event","name":"VotingPeriodUpdated","inputs":[{"name":"oldValue","type":"uint256","indexed":false,"internalType":"uint256"},{"name":"newValue","type":"uint256","indexed":false,"internalType":"uint256"}],"anonymous":false},{"type":"error","name":"AlreadyVoted","inputs":[]},{"type":"error","name":"InsufficientVotingPower","inputs":[]},{"type":"error","name":"InvalidParameters","inputs":[]},{"type":"error","name":"ProposalIsVetoed","inputs":[]},{"type":"error","name":"ProposalNotActive","inputs":[]},{"type":"error","name":"ProposalNotQueued","inputs":[]},{"type":"error","name":"ProposalNotSucceeded","inputs":[]},{"type":"error","name":"QuorumNotReached","inputs":[]},{"type":"error","name":"TimelockNotExpired","inputs":[]}],"bytecode":{"object":"0x60a06040523060805234801561001457600080fd5b5061001d610022565b6100e1565b600054610100900460ff161561008e5760405162461bcd60e51b815260206004820152602760248201527f496e697469616c697a61626c653a20636f6e747261637420697320696e697469604482015266616c697a696e6760c81b606482015260840160405180910390fd5b60005460ff908116146100df576000805460ff191660ff9081179091556040519081527f7f26b83ff96e1f2b6a682f133852f6798a09c465da95921460cefb38474024989060200160405180910390a15b565b60805161335661011860003960008181610b7201528181610bb201528181610f2201528181610f620152610ff101526133566000f3fe60806040526004361061023b5760003560e01c80638456cb591161012e578063ddf0b009116100ab578063ea0217cf1161006f578063ea0217cf14610713578063ece40cc114610733578063eef09bad14610753578063fe0d94c11461076a578063ff9810991461078a57600080fd5b8063ddf0b00914610659578063dea112a614610679578063df8fa43014610699578063e2c6d41c146106b9578063e2fdcc17146106f257600080fd5b8063b58131b0116100f2578063b58131b0146105d4578063c1ba4e59146105eb578063cd2ddd0c1461060b578063d547741f14610622578063da35c6641461064257600080fd5b80638456cb591461054a5780638af76c9b1461055f57806391d148541461057f578063a217fddf1461059f578063af267f8f146105b457600080fd5b80633932abb1116101bc57806352d1902d1161018057806352d1902d1461049f5780635c975abb146104b457806364390ff1146104cc57806370b0f6601461050857806377fb8d7a1461052857600080fd5b80633932abb1146104135780633e4f49e61461042a5780633f4ba83a1461045757806340e58ee51461046c5780634f1ef2861461048c57600080fd5b8063248a9ca311610203578063248a9ca3146103615780632da7e001146103915780632f2ff15d146103b157806336568abe146103d35780633659cfe6146103f357600080fd5b8063013cf08b1461024057806301dec0a21461028057806301ffc9a7146102d857806302a251a31461030857806307bd02651461032d575b600080fd5b34801561024c57600080fd5b5061026061025b3660046129c6565b6107c5565b6040516102779b9a99989796959493929190612a59565b60405180910390f35b34801561028c57600080fd5b506102bd61029b3660046129c6565b6101696020526000908152604090208054600182015460029092015490919083565b60408051938452602084019290925290820152606001610277565b3480156102e457600080fd5b506102f86102f3366004612adf565b61093c565b6040519015158152602001610277565b34801561031457600080fd5b5061031f6101635481565b604051908152602001610277565b34801561033957600080fd5b5061031f7f9cf85f95575c3af1e116e3d37fd41e7f36a8a373623f51ffaaa87fdd032fa76781565b34801561036d57600080fd5b5061031f61037c3660046129c6565b60009081526065602052604090206001015490565b34801561039d57600080fd5b5061031f6103ac366004612b52565b610973565b3480156103bd57600080fd5b506103d16103cc366004612be7565b610abb565b005b3480156103df57600080fd5b506103d16103ee366004612be7565b610ae5565b3480156103ff57600080fd5b506103d161040e366004612c13565b610b68565b34801561041f57600080fd5b5061031f6101645481565b34801561043657600080fd5b5061044a6104453660046129c6565b610c47565b6040516102779190612c2e565b34801561046357600080fd5b506103d1610e22565b34801561047857600080fd5b506103d16104873660046129c6565b610e42565b6103d161049a366004612c52565b610f18565b3480156104ab57600080fd5b5061031f610fe4565b3480156104c057600080fd5b5060c95460ff166102f8565b3480156104d857600080fd5b506102f86104e7366004612d1c565b61016860209081526000928352604080842090915290825290205460ff1681565b34801561051457600080fd5b506103d16105233660046129c6565b611097565b34801561053457600080fd5b5061031f6000805160206132ba83398151915281565b34801561055657600080fd5b506103d16110f7565b34801561056b57600080fd5b506103d161057a366004612d4d565b611117565b34801561058b57600080fd5b506102f861059a366004612be7565b611419565b3480156105ab57600080fd5b5061031f600081565b3480156105c057600080fd5b506103d16105cf3660046129c6565b611444565b3480156105e057600080fd5b5061031f6101615481565b3480156105f757600080fd5b506103d16106063660046129c6565b61149b565b34801561061757600080fd5b5061031f6101625481565b34801561062e57600080fd5b506103d161063d366004612be7565b611515565b34801561064e57600080fd5b5061031f6101665481565b34801561066557600080fd5b506103d16106743660046129c6565b61153a565b34801561068557600080fd5b506103d1610694366004612ddf565b6117b5565b3480156106a557600080fd5b506103d16106b4366004612e14565b611a79565b3480156106c557600080fd5b50610160546106da906001600160a01b031681565b6040516001600160a01b039091168152602001610277565b3480156106fe57600080fd5b5061015f546106da906001600160a01b031681565b34801561071f57600080fd5b506103d161072e3660046129c6565b611c82565b34801561073f57600080fd5b506103d161074e3660046129c6565b611cd9565b34801561075f57600080fd5b5061031f6101655481565b34801561077657600080fd5b506103d16107853660046129c6565b611d30565b34801561079657600080fd5b506102bd6107a53660046129c6565b600090815261016960205260409020805460018201546002909201549092565b6101676020526000908152604090208054600182015460028301805492936001600160a01b03909216926107f890612e85565b80601f016020809104026020016040519081016040528092919081815260200182805461082490612e85565b80156108715780601f1061084657610100808354040283529160200191610871565b820191906000526020600020905b81548152906001019060200180831161085457829003601f168201915b50505050509080600301805461088690612e85565b80601f01602080910402602001604051908101604052809291908181526020018280546108b290612e85565b80156108ff5780601f106108d4576101008083540402835291602001916108ff565b820191906000526020600020905b8154815290600101906020018083116108e257829003601f168201915b5050506004840154600585015460068601546007870154600888015460099098015496979396929550909350919060ff808216916101009004168b565b60006001600160e01b03198216637965db0b60e01b148061096d57506301ffc9a760e01b6001600160e01b03198316145b92915050565b600061097d611eda565b610985611f22565b600061099033611f7b565b9050610161548110156109b65760405163cabeb65560e01b815260040160405180910390fd5b610166600081546109c690612ed5565b9190508190559150600061016454426109df9190612eee565b9050600061016354826109f29190612eee565b6000858152610167602052604090208581556001810180546001600160a01b0319163317905590915060028101610a2a8a8c83612f4f565b5060038101610a3a888a83612f4f565b5060048101869055426005820155600681018390556007810182905560098101805460ff19169055604051339086907f6c98a8c940418b35614f0cd02412d5c9606faff474cbb6cdd6640ba5d1a9f06b90610a9c908e908e908990899061300f565b60405180910390a350505050610ab26001609755565b95945050505050565b600082815260656020526040902060010154610ad681612104565b610ae0838361210e565b505050565b6001600160a01b0381163314610b5a5760405162461bcd60e51b815260206004820152602f60248201527f416363657373436f6e74726f6c3a2063616e206f6e6c792072656e6f756e636560448201526e103937b632b9903337b91039b2b63360891b60648201526084015b60405180910390fd5b610b648282612194565b5050565b6001600160a01b037f0000000000000000000000000000000000000000000000000000000000000000163003610bb05760405162461bcd60e51b8152600401610b519061304f565b7f00000000000000000000000000000000000000000000000000000000000000006001600160a01b0316610bf96000805160206132da833981519152546001600160a01b031690565b6001600160a01b031614610c1f5760405162461bcd60e51b8152600401610b519061309b565b610c28816121fb565b60408051600080825260208201909252610c4491839190612213565b50565b6000818152610167602052604081206005600982015460ff166007811115610c7157610c71612a2f565b1480610c9557506006600982015460ff166007811115610c9357610c93612a2f565b145b80610cb857506007600982015460ff166007811115610cb657610cb6612a2f565b145b15610cca576009015460ff1692915050565b8060060154421015610cdf5750600092915050565b80600701544211610cf35750600192915050565b600083815261016960205260408120600281015460018201548254929392610d1b9190612eee565b610d259190612eee565b9050600061015f60009054906101000a90046001600160a01b03166001600160a01b031663671b37936040518163ffffffff1660e01b8152600401602060405180830381865afa158015610d7d573d6000803e3d6000fd5b505050506040513d601f19601f82011682018060405250810190610da191906130e7565b905060006127106101625483610db79190613100565b610dc19190613117565b905080831080610dd657506001840154845411155b15610de8575060029695505050505050565b6004600986015460ff166007811115610e0357610e03612a2f565b03610e15575060049695505050505050565b5060039695505050505050565b6000805160206132ba833981519152610e3a81612104565b610c4461237e565b60008181526101676020526040902060018101546001600160a01b03163314801590610e835750610e816000805160206132ba83398151915233611419565b155b15610ea15760405163cabeb65560e01b815260040160405180910390fd5b6005600982015460ff166007811115610ebc57610ebc612a2f565b03610eda57604051630e52390960e41b815260040160405180910390fd5b60098101805460ff1916600617905560405182907f416e669c63d9a3a5e36ee7cc7e2104b8db28ccd286aa18966e98fa230c73b08c90600090a25050565b6001600160a01b037f0000000000000000000000000000000000000000000000000000000000000000163003610f605760405162461bcd60e51b8152600401610b519061304f565b7f00000000000000000000000000000000000000000000000000000000000000006001600160a01b0316610fa96000805160206132da833981519152546001600160a01b031690565b6001600160a01b031614610fcf5760405162461bcd60e51b8152600401610b519061309b565b610fd8826121fb565b610b6482826001612213565b6000306001600160a01b037f000000000000000000000000000000000000000000000000000000000000000016146110845760405162461bcd60e51b815260206004820152603860248201527f555550535570677261646561626c653a206d757374206e6f742062652063616c60448201527f6c6564207468726f7567682064656c656761746563616c6c00000000000000006064820152608401610b51565b506000805160206132da83398151915290565b6000805160206132ba8339815191526110af81612104565b61016480549083905560408051828152602081018590527f16569b50c8812bb18e4b5c46b0fee4a9acbb3a9dca1e1badce427e8d75b5652d91015b60405180910390a1505050565b6000805160206132ba83398151915261110f81612104565b610c446123d0565b61111f611eda565b611127611f22565b60008481526101676020526040902061113f8561240d565b6001600982015460ff16600781111561115a5761115a612a2f565b1461117857604051637becc13f60e01b815260040160405180910390fd5b600085815261016960205260408120905b848110156114065760008686838181106111a5576111a5613139565b60008b815261016860209081526040808320938202959095013580835292905292909220549192505060ff16156111ef57604051637c9a1cf960e01b815260040160405180910390fd5b61015f5460405163430c208160e01b8152336004820152602481018390526001600160a01b039091169063430c208190604401602060405180830381865afa15801561123f573d6000803e3d6000fd5b505050506040513d601f19601f82011682018060405250810190611263919061314f565b6112805760405163cabeb65560e01b815260040160405180910390fd5b61015f546040516372c4a92760e01b8152600481018390526000916001600160a01b0316906372c4a92790602401602060405180830381865afa1580156112cb573d6000803e3d6000fd5b505050506040513d601f19601f820116820180604052508101906112ef91906130e7565b9050806000036113125760405163cabeb65560e01b815260040160405180910390fd5b6000898152610168602090815260408083208584529091529020805460ff1916600190811790915586600281111561134c5761134c612a2f565b0361137057808460000160008282546113659190612eee565b909155506113b79050565b600086600281111561138457611384612a2f565b0361139d57808460010160008282546113659190612eee565b808460020160008282546113b19190612eee565b90915550505b336001600160a01b0316828a7fcca9acb9895f98281f97c7ba157e2ade2e7e09c91e5689d561f775c2b09861fb89856040516113f4929190613171565b60405180910390a45050600101611189565b5050506114136001609755565b50505050565b60009182526065602090815260408084206001600160a01b0393909316845291905290205460ff1690565b6000805160206132ba83398151915261145c81612104565b61016580549083905560408051828152602081018590527f0d64018104bbece148774374900c9844b1c388724c82f170dbe557313b34daef91016110ea565b6000805160206132ba8339815191526114b381612104565b6127108211156114d657604051630e52390960e41b815260040160405180910390fd5b61016280549083905560408051828152602081018590527f6784e9bcb845caaa98267d7b0918f97d3d17f7cb35a05b52010f7eb587a0acb091016110ea565b60008281526065602052604090206001015461153081612104565b610ae08383612194565b611542611f22565b61154b8161240d565b6000818152610167602052604090206003600982015460ff16600781111561157557611575612a2f565b146115935760405163feace5cd60e01b815260040160405180910390fd5b610160546040516321cf7be360e21b8152600481018490526001600160a01b039091169063873def8c90602401602060405180830381865afa1580156115dd573d6000803e3d6000fd5b505050506040513d601f19601f82011682018060405250810190611601919061314f565b156116595760098101805460ff1916600717905560405182907fde0cea2a3a0097cc3d981d40c375407760e85bc9c5e69aea449ac3885f8615c690600090a2604051636d3e629360e01b815260040160405180910390fd5b6000610165544261166a9190612eee565b61016054604051631fc6527560e31b8152600481018690529192506001600160a01b03169063fe3293a890602401602060405180830381865afa1580156116b5573d6000803e3d6000fd5b505050506040513d601f19601f820116820180604052508101906116d9919061314f565b1561175e5761016054604051630dbc31eb60e31b8152600481018590526000916001600160a01b031690636de18f58906024016040805180830381865afa158015611728573d6000803e3d6000fd5b505050506040513d601f19601f8201168201806040525081019061174c919061318f565b915061175a90508142612eee565b9150505b6008820181905560098201805460ff1916600417905560405181815283907f9a2e42fd6722813d69113e7d0079d3d940171428df7373df9c7f7617cfda28929060200160405180910390a25050610c446001609755565b6117bd611eda565b6117c5611f22565b6000838152610167602052604090206117dd8461240d565b6001600982015460ff1660078111156117f8576117f8612a2f565b1461181657604051637becc13f60e01b815260040160405180910390fd5b60008481526101686020908152604080832086845290915290205460ff161561185257604051637c9a1cf960e01b815260040160405180910390fd5b61015f5460405163430c208160e01b8152336004820152602481018590526001600160a01b039091169063430c208190604401602060405180830381865afa1580156118a2573d6000803e3d6000fd5b505050506040513d601f19601f820116820180604052508101906118c6919061314f565b6118e35760405163cabeb65560e01b815260040160405180910390fd5b61015f546040516372c4a92760e01b8152600481018590526000916001600160a01b0316906372c4a92790602401602060405180830381865afa15801561192e573d6000803e3d6000fd5b505050506040513d601f19601f8201168201806040525081019061195291906130e7565b9050806000036119755760405163cabeb65560e01b815260040160405180910390fd5b6000858152610168602090815260408083208784528252808320805460ff19166001908117909155888452610169909252909120908460028111156119bc576119bc612a2f565b036119e057818160000160008282546119d59190612eee565b90915550611a279050565b60008460028111156119f4576119f4612a2f565b03611a0d57818160010160008282546119d59190612eee565b81816002016000828254611a219190612eee565b90915550505b336001600160a01b031685877fcca9acb9895f98281f97c7ba157e2ade2e7e09c91e5689d561f775c2b09861fb8786604051611a64929190613171565b60405180910390a4505050610ae06001609755565b600054610100900460ff1615808015611a995750600054600160ff909116105b80611ab35750303b158015611ab3575060005460ff166001145b611b165760405162461bcd60e51b815260206004820152602e60248201527f496e697469616c697a61626c653a20636f6e747261637420697320616c72656160448201526d191e481a5b9a5d1a585b1a5e995960921b6064820152608401610b51565b6000805460ff191660011790558015611b39576000805461ff0019166101001790555b611b4161244c565b611b49612473565b611b516124a2565b611b5961244c565b6001600160a01b0388161580611b7657506001600160a01b038716155b15611b9457604051630e52390960e41b815260040160405180910390fd5b611b9f60008a61210e565b611bb76000805160206132ba8339815191528a61210e565b611be17f9cf85f95575c3af1e116e3d37fd41e7f36a8a373623f51ffaaa87fdd032fa7678a61210e565b61015f80546001600160a01b03808b166001600160a01b0319928316179092556101608054928a16929091169190911790556101618690556101628590556101638490556101648390556101658290558015611c77576000805461ff0019169055604051600181527f7f26b83ff96e1f2b6a682f133852f6798a09c465da95921460cefb38474024989060200160405180910390a15b505050505050505050565b6000805160206132ba833981519152611c9a81612104565b61016380549083905560408051828152602081018590527fffc708f072ca56e3d45ef0cb288b96cb9378f5f63e1646868bfbc9c38f4263a191016110ea565b6000805160206132ba833981519152611cf181612104565b61016180549083905560408051828152602081018590527fe92242fc3efcad407a677132b517977331a6e5b65abab69fd757cc02e99c9c4e91016110ea565b7f9cf85f95575c3af1e116e3d37fd41e7f36a8a373623f51ffaaa87fdd032fa767611d5a81612104565b611d62611f22565b6000828152610167602052604090206004600982015460ff166007811115611d8c57611d8c612a2f565b14611daa5760405163599fb1a360e01b815260040160405180910390fd5b8060080154421015611dcf5760405163621e25c360e01b815260040160405180910390fd5b610160546040516321cf7be360e21b8152600481018590526001600160a01b039091169063873def8c90602401602060405180830381865afa158015611e19573d6000803e3d6000fd5b505050506040513d601f19601f82011682018060405250810190611e3d919061314f565b15611e955760098101805460ff1916600717905560405183907fde0cea2a3a0097cc3d981d40c375407760e85bc9c5e69aea449ac3885f8615c690600090a2604051636d3e629360e01b815260040160405180910390fd5b60098101805460ff1916600517905560405183907f712ae1383f79ac853f8d882153778e0260ef8f03b504e2866e0593e04d2b291f90600090a250610b646001609755565b60c95460ff1615611f205760405162461bcd60e51b815260206004820152601060248201526f14185d5cd8589b194e881c185d5cd95960821b6044820152606401610b51565b565b600260975403611f745760405162461bcd60e51b815260206004820152601f60248201527f5265656e7472616e637947756172643a207265656e7472616e742063616c6c006044820152606401610b51565b6002609755565b61015f546040516370a0823160e01b81526001600160a01b03838116600483015260009283929116906370a0823190602401602060405180830381865afa158015611fca573d6000803e3d6000fd5b505050506040513d601f19601f82011682018060405250810190611fee91906130e7565b905060005b818110156120f65761015f54604051632f745c5960e01b81526001600160a01b038681166004830152602482018490526000921690632f745c5990604401602060405180830381865afa15801561204e573d6000803e3d6000fd5b505050506040513d601f19601f8201168201806040525081019061207291906130e7565b61015f546040516372c4a92760e01b8152600481018390529192506001600160a01b0316906372c4a92790602401602060405180830381865afa1580156120bd573d6000803e3d6000fd5b505050506040513d601f19601f820116820180604052508101906120e191906130e7565b6120eb9085612eee565b935050600101611ff3565b5050919050565b6001609755565b610c4481336124d1565b6121188282611419565b610b645760008281526065602090815260408083206001600160a01b03851684529091529020805460ff191660011790556121503390565b6001600160a01b0316816001600160a01b0316837f2f8788117e7eff1d82e926ec794901d17c78024a50270940304540a733656f0d60405160405180910390a45050565b61219e8282611419565b15610b645760008281526065602090815260408083206001600160a01b0385168085529252808320805460ff1916905551339285917ff6391f5c32d9c69d2a47ea670b442974b53935d1edc7fd64eb21e047a839171b9190a45050565b6000805160206132ba833981519152610b6481612104565b7f4910fdfa16fed3260ed0e7147f7cc6da11a60208b5b9406d12a635614ffd91435460ff161561224657610ae08361252a565b826001600160a01b03166352d1902d6040518163ffffffff1660e01b8152600401602060405180830381865afa9250505080156122a0575060408051601f3d908101601f1916820190925261229d918101906130e7565b60015b6123035760405162461bcd60e51b815260206004820152602e60248201527f45524331393637557067726164653a206e657720696d706c656d656e7461746960448201526d6f6e206973206e6f74205555505360901b6064820152608401610b51565b6000805160206132da83398151915281146123725760405162461bcd60e51b815260206004820152602960248201527f45524331393637557067726164653a20756e737570706f727465642070726f786044820152681a58589b195555525160ba1b6064820152608401610b51565b50610ae08383836125c6565b6123866125eb565b60c9805460ff191690557f5db9ee0a495bf2e6ff9c91a7834c1ba4fdd244a5e8aa4e537bd38aeae4b073aa335b6040516001600160a01b03909116815260200160405180910390a1565b6123d8611eda565b60c9805460ff191660011790557f62e78cea01bee320cd4e420270b5ea74000d11b0c9f74754ebdbfc544b05a2586123b33390565b60008181526101676020526040902061242582610c47565b60098201805460ff1916600183600781111561244357612443612a2f565b02179055505050565b600054610100900460ff16611f205760405162461bcd60e51b8152600401610b51906131b3565b600054610100900460ff1661249a5760405162461bcd60e51b8152600401610b51906131b3565b611f20612634565b600054610100900460ff166124c95760405162461bcd60e51b8152600401610b51906131b3565b611f2061265b565b6124db8282611419565b610b64576124e88161268e565b6124f38360206126a0565b6040516020016125049291906131fe565b60408051601f198184030181529082905262461bcd60e51b8252610b5191600401613273565b6001600160a01b0381163b6125975760405162461bcd60e51b815260206004820152602d60248201527f455243313936373a206e657720696d706c656d656e746174696f6e206973206e60448201526c1bdd08184818dbdb9d1c9858dd609a1b6064820152608401610b51565b6000805160206132da83398151915280546001600160a01b0319166001600160a01b0392909216919091179055565b6125cf83612843565b6000825111806125dc5750805b15610ae0576114138383612883565b60c95460ff16611f205760405162461bcd60e51b815260206004820152601460248201527314185d5cd8589b194e881b9bdd081c185d5cd95960621b6044820152606401610b51565b600054610100900460ff166120fd5760405162461bcd60e51b8152600401610b51906131b3565b600054610100900460ff166126825760405162461bcd60e51b8152600401610b51906131b3565b60c9805460ff19169055565b606061096d6001600160a01b03831660145b606060006126af836002613100565b6126ba906002612eee565b67ffffffffffffffff8111156126d2576126d2612c3c565b6040519080825280601f01601f1916602001820160405280156126fc576020820181803683370190505b509050600360fc1b8160008151811061271757612717613139565b60200101906001600160f81b031916908160001a905350600f60fb1b8160018151811061274657612746613139565b60200101906001600160f81b031916908160001a905350600061276a846002613100565b612775906001612eee565b90505b60018111156127ed576f181899199a1a9b1b9c1cb0b131b232b360811b85600f16601081106127a9576127a9613139565b1a60f81b8282815181106127bf576127bf613139565b60200101906001600160f81b031916908160001a90535060049490941c936127e681613286565b9050612778565b50831561283c5760405162461bcd60e51b815260206004820181905260248201527f537472696e67733a20686578206c656e67746820696e73756666696369656e746044820152606401610b51565b9392505050565b61284c8161252a565b6040516001600160a01b038216907fbc7cd75a20ee27fd9adebab32041f755214dbc6bffa90cc0225b39da2e5c2d3b90600090a250565b606061283c83836040518060600160405280602781526020016132fa602791396060600080856001600160a01b0316856040516128c0919061329d565b600060405180830381855af49150503d80600081146128fb576040519150601f19603f3d011682016040523d82523d6000602084013e612900565b606091505b50915091506129118683838761291b565b9695505050505050565b6060831561298a578251600003612983576001600160a01b0385163b6129835760405162461bcd60e51b815260206004820152601d60248201527f416464726573733a2063616c6c20746f206e6f6e2d636f6e74726163740000006044820152606401610b51565b5081612994565b612994838361299c565b949350505050565b8151156129ac5781518083602001fd5b8060405162461bcd60e51b8152600401610b519190613273565b6000602082840312156129d857600080fd5b5035919050565b60005b838110156129fa5781810151838201526020016129e2565b50506000910152565b60008151808452612a1b8160208601602086016129df565b601f01601f19169290920160200192915050565b634e487b7160e01b600052602160045260246000fd5b60088110612a5557612a55612a2f565b9052565b8b81526001600160a01b038b16602082015261016060408201819052600090612a849083018c612a03565b8281036060840152612a96818c612a03565b9150508860808301528760a08301528660c08301528560e083015284610100830152612ac6610120830185612a45565b8215156101408301529c9b505050505050505050505050565b600060208284031215612af157600080fd5b81356001600160e01b03198116811461283c57600080fd5b60008083601f840112612b1b57600080fd5b50813567ffffffffffffffff811115612b3357600080fd5b602083019150836020828501011115612b4b57600080fd5b9250929050565b600080600080600060608688031215612b6a57600080fd5b853567ffffffffffffffff811115612b8157600080fd5b612b8d88828901612b09565b909650945050602086013567ffffffffffffffff811115612bad57600080fd5b612bb988828901612b09565b96999598509660400135949350505050565b80356001600160a01b0381168114612be257600080fd5b919050565b60008060408385031215612bfa57600080fd5b82359150612c0a60208401612bcb565b90509250929050565b600060208284031215612c2557600080fd5b61283c82612bcb565b6020810161096d8284612a45565b634e487b7160e01b600052604160045260246000fd5b60008060408385031215612c6557600080fd5b612c6e83612bcb565b9150602083013567ffffffffffffffff811115612c8a57600080fd5b8301601f81018513612c9b57600080fd5b803567ffffffffffffffff811115612cb557612cb5612c3c565b604051601f8201601f19908116603f0116810167ffffffffffffffff81118282101715612ce457612ce4612c3c565b604052818152828201602001871015612cfc57600080fd5b816020840160208301376000602083830101528093505050509250929050565b60008060408385031215612d2f57600080fd5b50508035926020909101359150565b803560038110612be257600080fd5b60008060008060608587031215612d6357600080fd5b84359350602085013567ffffffffffffffff811115612d8157600080fd5b8501601f81018713612d9257600080fd5b803567ffffffffffffffff811115612da957600080fd5b8760208260051b8401011115612dbe57600080fd5b60209190910193509150612dd460408601612d3e565b905092959194509250565b600080600060608486031215612df457600080fd5b8335925060208401359150612e0b60408501612d3e565b90509250925092565b600080600080600080600080610100898b031215612e3157600080fd5b612e3a89612bcb565b9750612e4860208a01612bcb565b9650612e5660408a01612bcb565b979a96995096976060810135975060808101359660a0820135965060c0820135955060e0909101359350915050565b600181811c90821680612e9957607f821691505b602082108103612eb957634e487b7160e01b600052602260045260246000fd5b50919050565b634e487b7160e01b600052601160045260246000fd5b600060018201612ee757612ee7612ebf565b5060010190565b8082018082111561096d5761096d612ebf565b601f821115610ae057806000526020600020601f840160051c81016020851015612f285750805b601f840160051c820191505b81811015612f485760008155600101612f34565b5050505050565b67ffffffffffffffff831115612f6757612f67612c3c565b612f7b83612f758354612e85565b83612f01565b6000601f841160018114612faf5760008515612f975750838201355b600019600387901b1c1916600186901b178355612f48565b600083815260209020601f19861690835b82811015612fe05786850135825560209485019460019092019101612fc0565b5086821015612ffd5760001960f88860031b161c19848701351681555b505060018560011b0183555050505050565b606081528360608201528385608083013760006080858301015260006080601f19601f870116830101905083602083015282604083015295945050505050565b6020808252602c908201527f46756e6374696f6e206d7573742062652063616c6c6564207468726f7567682060408201526b19195b1959d85d1958d85b1b60a21b606082015260800190565b6020808252602c908201527f46756e6374696f6e206d7573742062652063616c6c6564207468726f7567682060408201526b6163746976652070726f787960a01b606082015260800190565b6000602082840312156130f957600080fd5b5051919050565b808202811582820484141761096d5761096d612ebf565b60008261313457634e487b7160e01b600052601260045260246000fd5b500490565b634e487b7160e01b600052603260045260246000fd5b60006020828403121561316157600080fd5b8151801515811461283c57600080fd5b604081016003841061318557613185612a2f565b9281526020015290565b600080604083850312156131a257600080fd5b505080516020909101519092909150565b6020808252602b908201527f496e697469616c697a61626c653a20636f6e7472616374206973206e6f74206960408201526a6e697469616c697a696e6760a81b606082015260800190565b7f416363657373436f6e74726f6c3a206163636f756e74200000000000000000008152600083516132368160178501602088016129df565b7001034b99036b4b9b9b4b733903937b6329607d1b60179184019182015283516132678160288401602088016129df565b01602801949350505050565b60208152600061283c6020830184612a03565b60008161329557613295612ebf565b506000190190565b600082516132af8184602087016129df565b919091019291505056fe1e1ae8d468647934e9188897bc3ce839c2721b2daea8093c928bc6cc4ed7c074360894a13ba1a3210667c828492db98dca3e2076cc3735a920a3ca505d382bbc416464726573733a206c6f772d6c6576656c2064656c65676174652063616c6c206661696c6564a2646970667358221220a33fc3c37f211560043ad407e15621e03dd2eb9e9c020a2a7b8f76d9460bb8ff64736f6c634300081e0033","linkReferences":{}},"methodIdentifiers":{"DEFAULT_ADMIN_ROLE()":"a217fddf","EXECUTOR_ROLE()":"07bd0265","GOVERNANCE_ADMIN_ROLE()":"77fb8d7a","cancel(uint256)":"40e58ee5","castVote(uint256,uint256,uint8)":"dea112a6","castVoteMultiple(uint256,uint256[],uint8)":"8af76c9b","council()":"e2c6d41c","escrow()":"e2fdcc17","execute(uint256)":"fe0d94c1","getRoleAdmin(bytes32)":"248a9ca3","getVotes(uint256)":"ff981099","grantRole(bytes32,address)":"2f2ff15d","hasRole(bytes32,address)":"91d14854","hasVoted(uint256,uint256)":"64390ff1","initialize(address,address,address,uint256,uint256,uint256,uint256,uint256)":"df8fa430","pause()":"8456cb59","paused()":"5c975abb","proposalCount()":"da35c664","proposalThreshold()":"b58131b0","proposals(uint256)":"013cf08b","propose(string,string,bytes32)":"2da7e001","proxiableUUID()":"52d1902d","queue(uint256)":"ddf0b009","quorumBps()":"cd2ddd0c","renounceRole(bytes32,address)":"36568abe","revokeRole(bytes32,address)":"d547741f","setProposalThreshold(uint256)":"ece40cc1","setQuorum(uint256)":"c1ba4e59","setTimelockDelay(uint256)":"af267f8f","setVotingDelay(uint256)":"70b0f660","setVotingPeriod(uint256)":"ea0217cf","state(uint256)":"3e4f49e6","supportsInterface(bytes4)":"01ffc9a7","timelockDelay()":"eef09bad","unpause()":"3f4ba83a","upgradeTo(address)":"3659cfe6","upgradeToAndCall(address,bytes)":"4f1ef286","voteTallies(uint256)":"01dec0a2","votingDelay()":"3932abb1","votingPeriod()":"02a251a3"},"id":1}