{"abi":[{"type":"constructor","inputs":[],"stateMutability":"nonpayable"},{"type":"function","name":"DEFAULT_ADMIN_ROLE","inputs":[],"outputs":[{"name":"","type":"bytes32","internalType":"bytes32"}],"stateMutability":"view"},{"type":"function","name":"GAUGE_ADMIN_ROLE","inputs":[],"outputs":[{"name":"","type":"bytes32","internalType":"bytes32"}],"stateMutability":"view"},{"type":"function","name":"MAX_BPS","inputs":[],"outputs":[{"name":"","type":"uint256","internalType":"uint256"}],"stateMutability":"view"},{"type":"function","name":"activateGauge","inputs":[{"name":"_gaugeId","type":"uint256","internalType":"uint256"}],"outputs":[],"stateMutability":"nonpayable"},{"type":"function","name":"addGauge","inputs":[{"name":"_gaugeAddress","type":"address","internalType":"address"},{"name":"_name","type":"string","internalType":"string"},{"name":"_gaugeType","type":"string","internalType":"string"}],"outputs":[{"name":"","type":"uint256","internalType":"uint256"}],"stateMutability":"nonpayable"},{"type":"function","name":"deactivateGauge","inputs":[{"name":"_gaugeId","type":"uint256","internalType":"uint256"}],"outputs":[],"stateMutability":"nonpayable"},{"type":"function","name":"epochFinalized","inputs":[{"name":"","type":"uint256","internalType":"uint256"}],"outputs":[{"name":"","type":"bool","internalType":"bool"}],"stateMutability":"view"},{"type":"function","name":"epochManager","inputs":[],"outputs":[{"name":"","type":"address","internalType":"contract IEpochManager"}],"stateMutability":"view"},{"type":"function","name":"epochTotalVotingPower","inputs":[{"name":"","type":"uint256","internalType":"uint256"}],"outputs":[{"name":"","type":"uint256","internalType":"uint256"}],"stateMutability":"view"},{"type":"function","name":"finalizeEpochWeights","inputs":[{"name":"_epoch","type":"uint256","internalType":"uint256"}],"outputs":[],"stateMutability":"nonpayable"},{"type":"function","name":"gaugeAddressToId","inputs":[{"name":"","type":"address","internalType":"address"}],"outputs":[{"name":"","type":"uint256","internalType":"uint256"}],"stateMutability":"view"},{"type":"function","name":"gaugeCount","inputs":[],"outputs":[{"name":"","type":"uint256","internalType":"uint256"}],"stateMutability":"view"},{"type":"function","name":"gaugeIds","inputs":[{"name":"","type":"uint256","internalType":"uint256"}],"outputs":[{"name":"","type":"uint256","internalType":"uint256"}],"stateMutability":"view"},{"type":"function","name":"gaugeWeights","inputs":[{"name":"","type":"uint256","internalType":"uint256"},{"name":"","type":"uint256","internalType":"uint256"}],"outputs":[{"name":"totalVotingPower","type":"uint256","internalType":"uint256"},{"name":"relativeWeight","type":"uint256","internalType":"uint256"}],"stateMutability":"view"},{"type":"function","name":"gauges","inputs":[{"name":"","type":"uint256","internalType":"uint256"}],"outputs":[{"name":"gaugeAddress","type":"address","internalType":"address"},{"name":"name","type":"string","internalType":"string"},{"name":"gaugeType","type":"string","internalType":"string"},{"name":"isActive","type":"bool","internalType":"bool"},{"name":"addedAtEpoch","type":"uint256","internalType":"uint256"}],"stateMutability":"view"},{"type":"function","name":"getActiveGauges","inputs":[],"outputs":[{"name":"","type":"uint256[]","internalType":"uint256[]"}],"stateMutability":"view"},{"type":"function","name":"getGaugeInfo","inputs":[{"name":"_gaugeId","type":"uint256","internalType":"uint256"}],"outputs":[{"name":"","type":"tuple","internalType":"struct GaugeController.GaugeInfo","components":[{"name":"gaugeAddress","type":"address","internalType":"address"},{"name":"name","type":"string","internalType":"string"},{"name":"gaugeType","type":"string","internalType":"string"},{"name":"isActive","type":"bool","internalType":"bool"},{"name":"addedAtEpoch","type":"uint256","internalType":"uint256"}]}],"stateMutability":"view"},{"type":"function","name":"getGaugeWeight","inputs":[{"name":"_gaugeId","type":"uint256","internalType":"uint256"},{"name":"_epoch","type":"uint256","internalType":"uint256"}],"outputs":[{"name":"","type":"tuple","internalType":"struct GaugeController.GaugeWeight","components":[{"name":"totalVotingPower","type":"uint256","internalType":"uint256"},{"name":"relativeWeight","type":"uint256","internalType":"uint256"}]}],"stateMutability":"view"},{"type":"function","name":"getRoleAdmin","inputs":[{"name":"role","type":"bytes32","internalType":"bytes32"}],"outputs":[{"name":"","type":"bytes32","internalType":"bytes32"}],"stateMutability":"view"},{"type":"function","name":"getUserVote","inputs":[{"name":"_veNftId","type":"uint256","internalType":"uint256"},{"name":"_gaugeId","type":"uint256","internalType":"uint256"}],"outputs":[{"name":"","type":"tuple","internalType":"struct GaugeController.VoteInfo","components":[{"name":"weight","type":"uint256","internalType":"uint256"},{"name":"votingPower","type":"uint256","internalType":"uint256"},{"name":"epoch","type":"uint256","internalType":"uint256"},{"name":"timestamp","type":"uint256","internalType":"uint256"}]}],"stateMutability":"view"},{"type":"function","name":"grantRole","inputs":[{"name":"role","type":"bytes32","internalType":"bytes32"},{"name":"account","type":"address","internalType":"address"}],"outputs":[],"stateMutability":"nonpayable"},{"type":"function","name":"hasRole","inputs":[{"name":"role","type":"bytes32","internalType":"bytes32"},{"name":"account","type":"address","internalType":"address"}],"outputs":[{"name":"","type":"bool","internalType":"bool"}],"stateMutability":"view"},{"type":"function","name":"hasVoted","inputs":[{"name":"_veNftId","type":"uint256","internalType":"uint256"}],"outputs":[{"name":"","type":"bool","internalType":"bool"}],"stateMutability":"view"},{"type":"function","name":"initialize","inputs":[{"name":"_votingEscrow","type":"address","internalType":"address"},{"name":"_epochManager","type":"address","internalType":"address"}],"outputs":[],"stateMutability":"nonpayable"},{"type":"function","name":"pause","inputs":[],"outputs":[],"stateMutability":"nonpayable"},{"type":"function","name":"paused","inputs":[],"outputs":[{"name":"","type":"bool","internalType":"bool"}],"stateMutability":"view"},{"type":"function","name":"renounceRole","inputs":[{"name":"role","type":"bytes32","internalType":"bytes32"},{"name":"account","type":"address","internalType":"address"}],"outputs":[],"stateMutability":"nonpayable"},{"type":"function","name":"revokeRole","inputs":[{"name":"role","type":"bytes32","internalType":"bytes32"},{"name":"account","type":"address","internalType":"address"}],"outputs":[],"stateMutability":"nonpayable"},{"type":"function","name":"supportsInterface","inputs":[{"name":"interfaceId","type":"bytes4","internalType":"bytes4"}],"outputs":[{"name":"","type":"bool","internalType":"bool"}],"stateMutability":"view"},{"type":"function","name":"unpause","inputs":[],"outputs":[],"stateMutability":"nonpayable"},{"type":"function","name":"userTotalWeight","inputs":[{"name":"","type":"uint256","internalType":"uint256"},{"name":"","type":"uint256","internalType":"uint256"}],"outputs":[{"name":"","type":"uint256","internalType":"uint256"}],"stateMutability":"view"},{"type":"function","name":"vote","inputs":[{"name":"_veNftId","type":"uint256","internalType":"uint256"},{"name":"_gaugeIds","type":"uint256[]","internalType":"uint256[]"},{"name":"_weights","type":"uint256[]","internalType":"uint256[]"}],"outputs":[],"stateMutability":"nonpayable"},{"type":"function","name":"votes","inputs":[{"name":"","type":"uint256","internalType":"uint256"},{"name":"","type":"uint256","internalType":"uint256"}],"outputs":[{"name":"weight","type":"uint256","internalType":"uint256"},{"name":"votingPower","type":"uint256","internalType":"uint256"},{"name":"epoch","type":"uint256","internalType":"uint256"},{"name":"timestamp","type":"uint256","internalType":"uint256"}],"stateMutability":"view"},{"type":"function","name":"votingEscrow","inputs":[],"outputs":[{"name":"","type":"address","internalType":"contract IVotingEscrow"}],"stateMutability":"view"},{"type":"event","name":"GaugeActivated","inputs":[{"name":"gaugeId","type":"uint256","indexed":true,"internalType":"uint256"}],"anonymous":false},{"type":"event","name":"GaugeAdded","inputs":[{"name":"gaugeId","type":"uint256","indexed":true,"internalType":"uint256"},{"name":"gaugeAddress","type":"address","indexed":true,"internalType":"address"},{"name":"name","type":"string","indexed":false,"internalType":"string"},{"name":"gaugeType","type":"string","indexed":false,"internalType":"string"}],"anonymous":false},{"type":"event","name":"GaugeDeactivated","inputs":[{"name":"gaugeId","type":"uint256","indexed":true,"internalType":"uint256"}],"anonymous":false},{"type":"event","name":"GaugeWeightCalculated","inputs":[{"name":"gaugeId","type":"uint256","indexed":true,"internalType":"uint256"},{"name":"epoch","type":"uint256","indexed":true,"internalType":"uint256"},{"name":"votingPower","type":"uint256","indexed":false,"internalType":"uint256"},{"name":"relativeWeight","type":"uint256","indexed":false,"internalType":"uint256"}],"anonymous":false},{"type":"event","name":"Initialized","inputs":[{"name":"version","type":"uint8","indexed":false,"internalType":"uint8"}],"anonymous":false},{"type":"event","name":"Paused","inputs":[{"name":"account","type":"address","indexed":false,"internalType":"address"}],"anonymous":false},{"type":"event","name":"RoleAdminChanged","inputs":[{"name":"role","type":"bytes32","indexed":true,"internalType":"bytes32"},{"name":"previousAdminRole","type":"bytes32","indexed":true,"internalType":"bytes32"},{"name":"newAdminRole","type":"bytes32","indexed":true,"internalType":"bytes32"}],"anonymous":false},{"type":"event","name":"RoleGranted","inputs":[{"name":"role","type":"bytes32","indexed":true,"internalType":"bytes32"},{"name":"account","type":"address","indexed":true,"internalType":"address"},{"name":"sender","type":"address","indexed":true,"internalType":"address"}],"anonymous":false},{"type":"event","name":"RoleRevoked","inputs":[{"name":"role","type":"bytes32","indexed":true,"internalType":"bytes32"},{"name":"account","type":"address","indexed":true,"internalType":"address"},{"name":"sender","type":"address","indexed":true,"internalType":"address"}],"anonymous":false},{"type":"event","name":"Unpaused","inputs":[{"name":"account","type":"address","indexed":false,"internalType":"address"}],"anonymous":false},{"type":"event","name":"VoteCast","inputs":[{"name":"veNftId","type":"uint256","indexed":true,"internalType":"uint256"},{"name":"gaugeId","type":"uint256","indexed":true,"internalType":"uint256"},{"name":"weight","type":"uint256","indexed":false,"internalType":"uint256"},{"name":"votingPower","type":"uint256","indexed":false,"internalType":"uint256"},{"name":"epoch","type":"uint256","indexed":false,"internalType":"uint256"}],"anonymous":false},{"type":"event","name":"VoteChanged","inputs":[{"name":"veNftId","type":"uint256","indexed":true,"internalType":"uint256"},{"name":"gaugeId","type":"uint256","indexed":true,"internalType":"uint256"},{"name":"oldWeight","type":"uint256","indexed":false,"internalType":"uint256"},{"name":"newWeight","type":"uint256","indexed":false,"internalType":"uint256"},{"name":"epoch","type":"uint256","indexed":false,"internalType":"uint256"}],"anonymous":false},{"type":"event","name":"WeightsFinalized","inputs":[{"name":"epoch","type":"uint256","indexed":true,"internalType":"uint256"},{"name":"totalVotingPower","type":"uint256","indexed":false,"internalType":"uint256"}],"anonymous":false}],"bytecode":{"object":"0x6080604052348015600f57600080fd5b506016601a565b60d7565b600054610100900460ff161560855760405162461bcd60e51b815260206004820152602760248201527f496e697469616c697a61626c653a20636f6e747261637420697320696e697469604482015266616c697a696e6760c81b606482015260840160405180910390fd5b60005460ff9081161460d5576000805460ff191660ff9081179091556040519081527f7f26b83ff96e1f2b6a682f133852f6798a09c465da95921460cefb38474024989060200160405180910390a15b565b612cc7806100e66000396000f3fe608060405234801561001057600080fd5b50600436106102065760003560e01c8063a64400821161011a578063cffd31dd116100ad578063e4cd7cf41161007c578063e4cd7cf4146105b3578063e79e5a23146105c6578063ecca031f146105db578063eedf0873146105ee578063fd967f471461060e57600080fd5b8063cffd31dd14610530578063d547741f14610545578063dafca4f214610558578063e2d2bfe3146105a057600080fd5b8063b0539187116100e9578063b05391871461045b578063c6e36a321461047f578063cafef3b5146104e0578063ce19e9861461050457600080fd5b8063a6440082146103e5578063a864d1a7146103ef578063a922525414610402578063accd050a1461044857600080fd5b80634f2bfe5b1161019d5780637d72aca31161016c5780637d72aca3146103445780638456cb591461035757806391d148541461035f5780639342ebc614610372578063a217fddf146103dd57600080fd5b80634f2bfe5b146102db5780635a70be70146103065780635c975abb146103265780635fd306371461033157600080fd5b80632f2ff15d116101d95780632f2ff15d1461029a57806336568abe146102ad5780633f4ba83a146102c0578063485cc955146102c857600080fd5b806301ffc9a71461020b5780631a4c56ab14610233578063248a9ca31461024857806326994d2414610279575b600080fd5b61021e61021936600461248a565b610617565b60405190151581526020015b60405180910390f35b6102466102413660046124b4565b61064e565b005b61026b6102563660046124b4565b60009081526065602052604090206001015490565b60405190815260200161022a565b61026b6102873660046124b4565b6101046020526000908152604090205481565b6102466102a83660046124e2565b610743565b6102466102bb3660046124e2565b61076d565b6102466107eb565b6102466102d6366004612512565b610801565b60fb546102ee906001600160a01b031681565b6040516001600160a01b03909116815260200161022a565b61026b610314366004612540565b60ff6020526000908152604090205481565b60975460ff1661021e565b61024661033f366004612627565b610a18565b61026b610352366004612709565b61104f565b61024661130f565b61021e61036d3660046124e2565b611322565b6103c261038036600461277a565b60408051808201825260008082526020918201819052938452610103815281842092845291825291829020825180840190935280548352600101549082015290565b6040805182518152602092830151928101929092520161022a565b61026b600081565b61026b6101005481565b6102466103fd3660046124b4565b61134d565b61041561041036600461277a565b611437565b60405161022a91908151815260208083015190820152604080830151908201526060918201519181019190915260800190565b61026b6104563660046124b4565b6114af565b61046e6104693660046124b4565b6114d0565b60405161022a9594939291906127ec565b6104c061048d36600461277a565b61010160209081526000928352604080842090915290825290208054600182015460028301546003909301549192909184565b60408051948552602085019390935291830152606082015260800161022a565b61021e6104ee3660046124b4565b6101056020526000908152604090205460ff1681565b61026b61051236600461277a565b61010260209081526000928352604080842090915290825290205481565b61053861161d565b60405161022a9190612837565b6102466105533660046124e2565b61176f565b61058b61056636600461277a565b6101036020908152600092835260408084209091529082529020805460019091015482565b6040805192835260208301919091520161022a565b60fc546102ee906001600160a01b031681565b6102466105c13660046124b4565b611794565b61026b600080516020612c7283398151915281565b61021e6105e93660046124b4565b611b48565b6106016105fc3660046124b4565b611be6565b60405161022a919061287a565b61026b61271081565b60006001600160e01b03198216637965db0b60e01b148061064857506301ffc9a760e01b6001600160e01b03198316145b92915050565b600080516020612c7283398151915261066681611d93565b600082815260fe60205260409020546001600160a01b03166106a35760405162461bcd60e51b815260040161069a906128e8565b60405180910390fd5b600082815260fe602052604090206003015460ff16156106fc5760405162461bcd60e51b8152602060048201526014602482015273476175676520616c72656164792061637469766560601b604482015260640161069a565b600082815260fe6020526040808220600301805460ff191660011790555183917f2a07a1dc44ca218a59db10a37c2ca1ea3637a3c697db51e0038e9696ea20581791a25050565b60008281526065602052604090206001015461075e81611d93565b6107688383611d9d565b505050565b6001600160a01b03811633146107dd5760405162461bcd60e51b815260206004820152602f60248201527f416363657373436f6e74726f6c3a2063616e206f6e6c792072656e6f756e636560448201526e103937b632b9903337b91039b2b63360891b606482015260840161069a565b6107e78282611e23565b5050565b60006107f681611d93565b6107fe611e8a565b50565b600054610100900460ff16158080156108215750600054600160ff909116105b8061083b5750303b15801561083b575060005460ff166001145b61089e5760405162461bcd60e51b815260206004820152602e60248201527f496e697469616c697a61626c653a20636f6e747261637420697320616c72656160448201526d191e481a5b9a5d1a585b1a5e995960921b606482015260840161069a565b6000805460ff1916600117905580156108c1576000805461ff0019166101001790555b6108c9611edc565b6108d1611f05565b6108d9611f34565b6001600160a01b0383166109275760405162461bcd60e51b8152602060048201526015602482015274496e76616c696420766f74696e6720657363726f7760581b604482015260640161069a565b6001600160a01b0382166109755760405162461bcd60e51b815260206004820152601560248201527424b73b30b634b21032b837b1b41036b0b730b3b2b960591b604482015260640161069a565b610980600033611d9d565b610998600080516020612c7283398151915233611d9d565b60fb80546001600160a01b038086166001600160a01b03199283161790925560fc8054928516929091169190911790556000610100558015610768576000805461ff0019169055604051600181527f7f26b83ff96e1f2b6a682f133852f6798a09c465da95921460cefb38474024989060200160405180910390a1505050565b610a20611f63565b610a28611fbc565b8051825114610a715760405162461bcd60e51b8152602060048201526015602482015274082e4e4c2f240d8cadccee8d040dad2e6dac2e8c6d605b1b604482015260640161069a565b6000825111610ac25760405162461bcd60e51b815260206004820181905260248201527f4d75737420766f746520666f72206174206c65617374206f6e65206761756765604482015260640161069a565b60fb546040516331a9108f60e11b81526004810185905233916001600160a01b031690636352211e90602401602060405180830381865afa158015610b0b573d6000803e3d6000fd5b505050506040513d601f19601f82011682018060405250810190610b2f9190612916565b6001600160a01b031614610b775760405162461bcd60e51b815260206004820152600f60248201526e2737ba103b32a7232a1037bbb732b960891b604482015260640161069a565b60fc60009054906101000a90046001600160a01b03166001600160a01b031663e16fd62e6040518163ffffffff1660e01b8152600401602060405180830381865afa158015610bca573d6000803e3d6000fd5b505050506040513d601f19601f82011682018060405250810190610bee9190612933565b610c315760405162461bcd60e51b8152602060048201526014602482015273139bdd081a5b881d9bdd1a5b99c81c195c9a5bd960621b604482015260640161069a565b60fc5460408051635cbeecf160e11b815290516000926001600160a01b03169163b97dd9e29160048083019260209291908290030181865afa158015610c7b573d6000803e3d6000fd5b505050506040513d601f19601f82011682018060405250810190610c9f9190612955565b60fb54604051634e3694bb60e11b8152600481018790529192506000916001600160a01b0390911690639c6d297690602401602060405180830381865afa158015610cee573d6000803e3d6000fd5b505050506040513d601f19601f82011682018060405250810190610d129190612955565b905060008111610d565760405162461bcd60e51b815260206004820152600f60248201526e2737903b37ba34b733903837bbb2b960891b604482015260640161069a565b6000805b8451811015610d9257848181518110610d7557610d7561296e565b602002602001015182610d88919061299a565b9150600101610d5a565b506127108114610de45760405162461bcd60e51b815260206004820152601960248201527f57656967687473206d7573742073756d20746f20313030303000000000000000604482015260640161069a565b610dee8684612002565b60005b8551811015611004576000868281518110610e0e57610e0e61296e565b602002602001015190506000868381518110610e2c57610e2c61296e565b602090810291909101810151600084815260fe9092526040909120549091506001600160a01b0316610e705760405162461bcd60e51b815260040161069a906128e8565b600082815260fe602052604090206003015460ff16610ec75760405162461bcd60e51b81526020600482015260136024820152724761756765206973206e6f742061637469766560681b604482015260640161069a565b60008111610f175760405162461bcd60e51b815260206004820152601760248201527f576569676874206d75737420626520706f736974697665000000000000000000604482015260640161069a565b6040805160808101825282815260208082018881528284018a8152426060850190815260008f8152610101855286812089825290945294832093518455905160018401555160028301559151600390910155612710610f7683886129ad565b610f8091906129c4565b6000848152610103602090815260408083208b8452909152812080549293508392909190610faf90849061299a565b9091555050604080518381526020810188905290810188905283908b907f94d41bb6ba59610e9200a16c6cdd6d4794b75c0a120bf7f1581eaf58e8a023b59060600160405180910390a3505050600101610df1565b50600086815261010260209081526040808320868452825280832061271090556101049091528120805484929061103c90849061299a565b9091555050600160c95550610768915050565b6000600080516020612c7283398151915261106981611d93565b6001600160a01b0385166110b75760405162461bcd60e51b8152602060048201526015602482015274496e76616c6964206761756765206164647265737360581b604482015260640161069a565b6001600160a01b038516600090815260ff6020526040902054156111145760405162461bcd60e51b8152602060048201526014602482015273476175676520616c72656164792065786973747360601b604482015260640161069a565b60008451116111555760405162461bcd60e51b815260206004820152600d60248201526c13985b59481c995c5d5a5c9959609a1b604482015260640161069a565b6101008054906000611166836129e6565b9091555050610100546040805160a0810182526001600160a01b03808916825260208083018990528284018890526001606084015260fc548451635cbeecf160e11b8152945193946080860194919093169263b97dd9e29260048083019391928290030181865afa1580156111df573d6000803e3d6000fd5b505050506040513d601f19601f820116820180604052508101906112039190612955565b9052600082815260fe60209081526040909120825181546001600160a01b0319166001600160a01b039091161781559082015160018201906112459082612a87565b506040820151600282019061125a9082612a87565b50606082015160038201805460ff191691151591909117905560809091015160049091015560fd8054600181019091557f9346ac6dd7de6b96975fec380d4d994c4c12e6a8897544f22915316cc6cca280018190556001600160a01b038616600081815260ff6020526040908190208390555182907f212e7b793dd3a0e3a0fa92896297c34ec6c7b204c4c51aa5881c7306cfb4ad7e906112fe9089908990612b46565b60405180910390a395945050505050565b600061131a81611d93565b6107fe61219c565b60009182526065602090815260408084206001600160a01b0393909316845291905290205460ff1690565b600080516020612c7283398151915261136581611d93565b600082815260fe60205260409020546001600160a01b03166113995760405162461bcd60e51b815260040161069a906128e8565b600082815260fe602052604090206003015460ff166113f35760405162461bcd60e51b8152602060048201526016602482015275476175676520616c726561647920696e61637469766560501b604482015260640161069a565b600082815260fe6020526040808220600301805460ff191690555183917f224933cd7e4f4a992b41024a9def52ba5ad3b743ca1c1ebe88720626a362b7ff91a25050565b6114626040518060800160405280600081526020016000815260200160008152602001600081525090565b506000918252610101602090815260408084209284529181529181902081516080810183528154815260018201549381019390935260028101549183019190915260030154606082015290565b60fd81815481106114bf57600080fd5b600091825260209091200154905081565b60fe60205260009081526040902080546001820180546001600160a01b0390921692916114fc906129ff565b80601f0160208091040260200160405190810160405280929190818152602001828054611528906129ff565b80156115755780601f1061154a57610100808354040283529160200191611575565b820191906000526020600020905b81548152906001019060200180831161155857829003601f168201915b50505050509080600201805461158a906129ff565b80601f01602080910402602001604051908101604052809291908181526020018280546115b6906129ff565b80156116035780601f106115d857610100808354040283529160200191611603565b820191906000526020600020905b8154815290600101906020018083116115e657829003601f168201915b505050506003830154600490930154919260ff1691905085565b60606000805b60fd548110156116815760fe600060fd83815481106116445761164461296e565b6000918252602080832090910154835282019290925260400190206003015460ff16156116795781611675816129e6565b9250505b600101611623565b5060008167ffffffffffffffff81111561169d5761169d61255d565b6040519080825280602002602001820160405280156116c6578160200160208202803683370190505b5090506000805b60fd548110156117665760fe600060fd83815481106116ee576116ee61296e565b6000918252602080832090910154835282019290925260400190206003015460ff161561175e5760fd81815481106117285761172861296e565b90600052602060002001548383815181106117455761174561296e565b60209081029190910101528161175a816129e6565b9250505b6001016116cd565b50909392505050565b60008281526065602052604090206001015461178a81611d93565b6107688383611e23565b600080516020612c728339815191526117ac81611d93565b60fc60009054906101000a90046001600160a01b03166001600160a01b031663b97dd9e26040518163ffffffff1660e01b8152600401602060405180830381865afa1580156117ff573d6000803e3d6000fd5b505050506040513d601f19601f820116820180604052508101906118239190612955565b8211156118725760405162461bcd60e51b815260206004820152601c60248201527f43616e6e6f742066696e616c697a65206675747572652065706f636800000000604482015260640161069a565b6000828152610105602052604090205460ff16156118d25760405162461bcd60e51b815260206004820152601760248201527f45706f636820616c72656164792066696e616c697a6564000000000000000000604482015260640161069a565b60fc60009054906101000a90046001600160a01b03166001600160a01b031663e16fd62e6040518163ffffffff1660e01b8152600401602060405180830381865afa158015611925573d6000803e3d6000fd5b505050506040513d601f19601f820116820180604052508101906119499190612933565b15806119ca575060fc60009054906101000a90046001600160a01b03166001600160a01b031663b97dd9e26040518163ffffffff1660e01b8152600401602060405180830381865afa1580156119a3573d6000803e3d6000fd5b505050506040513d601f19601f820116820180604052508101906119c79190612955565b82105b611a0c5760405162461bcd60e51b8152602060048201526013602482015272566f74696e67207374696c6c2061637469766560681b604482015260640161069a565b60008281526101046020526040812054905b60fd54811015611aec57600060fd8281548110611a3d57611a3d61296e565b60009182526020808320909101548083526101038252604080842089855290925290822054909250908415611a865784611a79612710846129ad565b611a8391906129c4565b90505b6000838152610103602090815260408083208a84528252918290206001018390558151848152908101839052889185917f4b014a477a5897992ae8b1a09117ca254de9d42c9b8e374968cbba568c19c0af910160405180910390a3505050600101611a1e565b506000838152610105602052604090819020805460ff191660011790555183907ffc589992c336bac80018d8f685e0eaff5e6b105a2680c07c2ffe21cf0ba79ee590611b3b9084815260200190565b60405180910390a2505050565b60008060fc60009054906101000a90046001600160a01b03166001600160a01b031663b97dd9e26040518163ffffffff1660e01b8152600401602060405180830381865afa158015611b9e573d6000803e3d6000fd5b505050506040513d601f19601f82011682018060405250810190611bc29190612955565b60009384526101026020908152604080862092865291905290922054151592915050565b611c236040518060a0016040528060006001600160a01b031681526020016060815260200160608152602001600015158152602001600081525090565b600082815260fe6020908152604091829020825160a0810190935280546001600160a01b031683526001810180549192840191611c5f906129ff565b80601f0160208091040260200160405190810160405280929190818152602001828054611c8b906129ff565b8015611cd85780601f10611cad57610100808354040283529160200191611cd8565b820191906000526020600020905b815481529060010190602001808311611cbb57829003601f168201915b50505050508152602001600282018054611cf1906129ff565b80601f0160208091040260200160405190810160405280929190818152602001828054611d1d906129ff565b8015611d6a5780601f10611d3f57610100808354040283529160200191611d6a565b820191906000526020600020905b815481529060010190602001808311611d4d57829003601f168201915b5050509183525050600382015460ff161515602082015260049091015460409091015292915050565b6107fe81336121d9565b611da78282611322565b6107e75760008281526065602090815260408083206001600160a01b03851684529091529020805460ff19166001179055611ddf3390565b6001600160a01b0316816001600160a01b0316837f2f8788117e7eff1d82e926ec794901d17c78024a50270940304540a733656f0d60405160405180910390a45050565b611e2d8282611322565b156107e75760008281526065602090815260408083206001600160a01b0385168085529252808320805460ff1916905551339285917ff6391f5c32d9c69d2a47ea670b442974b53935d1edc7fd64eb21e047a839171b9190a45050565b611e92612232565b6097805460ff191690557f5db9ee0a495bf2e6ff9c91a7834c1ba4fdd244a5e8aa4e537bd38aeae4b073aa335b6040516001600160a01b03909116815260200160405180910390a1565b600054610100900460ff16611f035760405162461bcd60e51b815260040161069a90612b74565b565b600054610100900460ff16611f2c5760405162461bcd60e51b815260040161069a90612b74565b611f0361227b565b600054610100900460ff16611f5b5760405162461bcd60e51b815260040161069a90612b74565b611f036122ae565b600260c95403611fb55760405162461bcd60e51b815260206004820152601f60248201527f5265656e7472616e637947756172643a207265656e7472616e742063616c6c00604482015260640161069a565b600260c955565b60975460ff1615611f035760405162461bcd60e51b815260206004820152601060248201526f14185d5cd8589b194e881c185d5cd95960821b604482015260640161069a565b6000828152610102602090815260408083208484529091528120549003612027575050565b6000805b60fd5481101561214b57600060fd828154811061204a5761204a61296e565b6000918252602080832090910154878352610101825260408084208285528352928390208351608081018552815481526001820154938101939093526002810154938301849052600301546060830152925090851480156120ab5750805115155b15612141576000612710826000015183602001516120c991906129ad565b6120d391906129c4565b6000848152610103602090815260408083208a8452909152812080549293508392909190612102908490612bbf565b90915550505060208082015160008881526101018352604080822086835290935291822082815560018101839055600281018390556003019190915593505b505060010161202b565b508015612177576000828152610104602052604081208054839290612171908490612bbf565b90915550505b50600091825261010260209081526040808420928452919052812055565b600160c955565b6121a4611fbc565b6097805460ff191660011790557f62e78cea01bee320cd4e420270b5ea74000d11b0c9f74754ebdbfc544b05a258611ebf3390565b6121e38282611322565b6107e7576121f0816122d5565b6121fb8360206122e7565b60405160200161220c929190612bd2565b60408051601f198184030181529082905262461bcd60e51b825261069a91600401612c47565b60975460ff16611f035760405162461bcd60e51b815260206004820152601460248201527314185d5cd8589b194e881b9bdd081c185d5cd95960621b604482015260640161069a565b600054610100900460ff166122a25760405162461bcd60e51b815260040161069a90612b74565b6097805460ff19169055565b600054610100900460ff166121955760405162461bcd60e51b815260040161069a90612b74565b60606106486001600160a01b03831660145b606060006122f68360026129ad565b61230190600261299a565b67ffffffffffffffff8111156123195761231961255d565b6040519080825280601f01601f191660200182016040528015612343576020820181803683370190505b509050600360fc1b8160008151811061235e5761235e61296e565b60200101906001600160f81b031916908160001a905350600f60fb1b8160018151811061238d5761238d61296e565b60200101906001600160f81b031916908160001a90535060006123b18460026129ad565b6123bc90600161299a565b90505b6001811115612434576f181899199a1a9b1b9c1cb0b131b232b360811b85600f16601081106123f0576123f061296e565b1a60f81b8282815181106124065761240661296e565b60200101906001600160f81b031916908160001a90535060049490941c9361242d81612c5a565b90506123bf565b5083156124835760405162461bcd60e51b815260206004820181905260248201527f537472696e67733a20686578206c656e67746820696e73756666696369656e74604482015260640161069a565b9392505050565b60006020828403121561249c57600080fd5b81356001600160e01b03198116811461248357600080fd5b6000602082840312156124c657600080fd5b5035919050565b6001600160a01b03811681146107fe57600080fd5b600080604083850312156124f557600080fd5b823591506020830135612507816124cd565b809150509250929050565b6000806040838503121561252557600080fd5b8235612530816124cd565b91506020830135612507816124cd565b60006020828403121561255257600080fd5b8135612483816124cd565b634e487b7160e01b600052604160045260246000fd5b604051601f8201601f1916810167ffffffffffffffff8111828210171561259c5761259c61255d565b604052919050565b600082601f8301126125b557600080fd5b813567ffffffffffffffff8111156125cf576125cf61255d565b8060051b6125df60208201612573565b918252602081850181019290810190868411156125fb57600080fd5b6020860192505b8383101561261d578235825260209283019290910190612602565b9695505050505050565b60008060006060848603121561263c57600080fd5b83359250602084013567ffffffffffffffff81111561265a57600080fd5b612666868287016125a4565b925050604084013567ffffffffffffffff81111561268357600080fd5b61268f868287016125a4565b9150509250925092565b600082601f8301126126aa57600080fd5b813567ffffffffffffffff8111156126c4576126c461255d565b6126d7601f8201601f1916602001612573565b8181528460208386010111156126ec57600080fd5b816020850160208301376000918101602001919091529392505050565b60008060006060848603121561271e57600080fd5b8335612729816124cd565b9250602084013567ffffffffffffffff81111561274557600080fd5b61275186828701612699565b925050604084013567ffffffffffffffff81111561276e57600080fd5b61268f86828701612699565b6000806040838503121561278d57600080fd5b50508035926020909101359150565b60005b838110156127b757818101518382015260200161279f565b50506000910152565b600081518084526127d881602086016020860161279c565b601f01601f19169290920160200192915050565b6001600160a01b038616815260a060208201819052600090612810908301876127c0565b828103604084015261282281876127c0565b94151560608401525050608001529392505050565b602080825282518282018190526000918401906040840190835b8181101561286f578351835260209384019390920191600101612851565b509095945050505050565b602080825282516001600160a01b03168282015282015160a060408301526000906128a860c08401826127c0565b90506040840151601f198483030160608501526128c582826127c0565b915050606084015115156080840152608084015160a08401528091505092915050565b60208082526014908201527311d85d59d948191bd95cc81b9bdd08195e1a5cdd60621b604082015260600190565b60006020828403121561292857600080fd5b8151612483816124cd565b60006020828403121561294557600080fd5b8151801515811461248357600080fd5b60006020828403121561296757600080fd5b5051919050565b634e487b7160e01b600052603260045260246000fd5b634e487b7160e01b600052601160045260246000fd5b8082018082111561064857610648612984565b808202811582820484141761064857610648612984565b6000826129e157634e487b7160e01b600052601260045260246000fd5b500490565b6000600182016129f8576129f8612984565b5060010190565b600181811c90821680612a1357607f821691505b602082108103612a3357634e487b7160e01b600052602260045260246000fd5b50919050565b601f82111561076857806000526020600020601f840160051c81016020851015612a605750805b601f840160051c820191505b81811015612a805760008155600101612a6c565b5050505050565b815167ffffffffffffffff811115612aa157612aa161255d565b612ab581612aaf84546129ff565b84612a39565b6020601f821160018114612ae95760008315612ad15750848201515b600019600385901b1c1916600184901b178455612a80565b600084815260208120601f198516915b82811015612b195787850151825560209485019460019092019101612af9565b5084821015612b375786840151600019600387901b60f8161c191681555b50505050600190811b01905550565b604081526000612b5960408301856127c0565b8281036020840152612b6b81856127c0565b95945050505050565b6020808252602b908201527f496e697469616c697a61626c653a20636f6e7472616374206973206e6f74206960408201526a6e697469616c697a696e6760a81b606082015260800190565b8181038181111561064857610648612984565b7f416363657373436f6e74726f6c3a206163636f756e7420000000000000000000815260008351612c0a81601785016020880161279c565b7001034b99036b4b9b9b4b733903937b6329607d1b6017918401918201528351612c3b81602884016020880161279c565b01602801949350505050565b60208152600061248360208301846127c0565b600081612c6957612c69612984565b50600019019056fec0b076f3f1bcc46f29fa5cd1a645dd4127d39173da5651fdf9127bcb395fd28ca264697066735822122099e7bc8b9df0060399facfb92777cd4cf60f6c90ed581354ea621af71429528f64736f6c634300081e0033","linkReferences":{}},"methodIdentifiers":{"DEFAULT_ADMIN_ROLE()":"a217fddf","GAUGE_ADMIN_ROLE()":"e79e5a23","MAX_BPS()":"fd967f47","activateGauge(uint256)":"1a4c56ab","addGauge(address,string,string)":"7d72aca3","deactivateGauge(uint256)":"a864d1a7","epochFinalized(uint256)":"cafef3b5","epochManager()":"e2d2bfe3","epochTotalVotingPower(uint256)":"26994d24","finalizeEpochWeights(uint256)":"e4cd7cf4","gaugeAddressToId(address)":"5a70be70","gaugeCount()":"a6440082","gaugeIds(uint256)":"accd050a","gaugeWeights(uint256,uint256)":"dafca4f2","gauges(uint256)":"b0539187","getActiveGauges()":"cffd31dd","getGaugeInfo(uint256)":"eedf0873","getGaugeWeight(uint256,uint256)":"9342ebc6","getRoleAdmin(bytes32)":"248a9ca3","getUserVote(uint256,uint256)":"a9225254","grantRole(bytes32,address)":"2f2ff15d","hasRole(bytes32,address)":"91d14854","hasVoted(uint256)":"ecca031f","initialize(address,address)":"485cc955","pause()":"8456cb59","paused()":"5c975abb","renounceRole(bytes32,address)":"36568abe","revokeRole(bytes32,address)":"d547741f","supportsInterface(bytes4)":"01ffc9a7","unpause()":"3f4ba83a","userTotalWeight(uint256,uint256)":"ce19e986","vote(uint256,uint256[],uint256[])":"5fd30637","votes(uint256,uint256)":"c6e36a32","votingEscrow()":"4f2bfe5b"},"id":3}