{"abi":[{"type":"constructor","inputs":[],"stateMutability":"nonpayable"},{"type":"function","name":"COUNCIL_ADMIN_ROLE","inputs":[],"outputs":[{"name":"","type":"bytes32","internalType":"bytes32"}],"stateMutability":"view"},{"type":"function","name":"COUNCIL_MEMBER_ROLE","inputs":[],"outputs":[{"name":"","type":"bytes32","internalType":"bytes32"}],"stateMutability":"view"},{"type":"function","name":"DEFAULT_ADMIN_ROLE","inputs":[],"outputs":[{"name":"","type":"bytes32","internalType":"bytes32"}],"stateMutability":"view"},{"type":"function","name":"approveSpeedup","inputs":[{"name":"_proposalId","type":"uint256","internalType":"uint256"}],"outputs":[],"stateMutability":"nonpayable"},{"type":"function","name":"approveVeto","inputs":[{"name":"_proposalId","type":"uint256","internalType":"uint256"}],"outputs":[],"stateMutability":"nonpayable"},{"type":"function","name":"executeSpeedup","inputs":[{"name":"_proposalId","type":"uint256","internalType":"uint256"}],"outputs":[],"stateMutability":"nonpayable"},{"type":"function","name":"executeVeto","inputs":[{"name":"_proposalId","type":"uint256","internalType":"uint256"}],"outputs":[],"stateMutability":"nonpayable"},{"type":"function","name":"getRoleAdmin","inputs":[{"name":"role","type":"bytes32","internalType":"bytes32"}],"outputs":[{"name":"","type":"bytes32","internalType":"bytes32"}],"stateMutability":"view"},{"type":"function","name":"getSpeedupParams","inputs":[{"name":"_proposalId","type":"uint256","internalType":"uint256"}],"outputs":[{"name":"newVotingPeriod","type":"uint256","internalType":"uint256"},{"name":"newTimelockDelay","type":"uint256","internalType":"uint256"}],"stateMutability":"view"},{"type":"function","name":"grantRole","inputs":[{"name":"role","type":"bytes32","internalType":"bytes32"},{"name":"account","type":"address","internalType":"address"}],"outputs":[],"stateMutability":"nonpayable"},{"type":"function","name":"hasApprovedSpeedup","inputs":[{"name":"_proposalId","type":"uint256","internalType":"uint256"},{"name":"_member","type":"address","internalType":"address"}],"outputs":[{"name":"","type":"bool","internalType":"bool"}],"stateMutability":"view"},{"type":"function","name":"hasApprovedVeto","inputs":[{"name":"_proposalId","type":"uint256","internalType":"uint256"},{"name":"_member","type":"address","internalType":"address"}],"outputs":[{"name":"","type":"bool","internalType":"bool"}],"stateMutability":"view"},{"type":"function","name":"hasRole","inputs":[{"name":"role","type":"bytes32","internalType":"bytes32"},{"name":"account","type":"address","internalType":"address"}],"outputs":[{"name":"","type":"bool","internalType":"bool"}],"stateMutability":"view"},{"type":"function","name":"initialize","inputs":[{"name":"_admin","type":"address","internalType":"address"},{"name":"_requiredApprovals","type":"uint256","internalType":"uint256"},{"name":"_vetoPeriod","type":"uint256","internalType":"uint256"},{"name":"_vetoVotingPeriod","type":"uint256","internalType":"uint256"},{"name":"_speedupVotingPeriod","type":"uint256","internalType":"uint256"}],"outputs":[],"stateMutability":"nonpayable"},{"type":"function","name":"initiateSpeedup","inputs":[{"name":"_proposalId","type":"uint256","internalType":"uint256"},{"name":"_newVotingPeriod","type":"uint256","internalType":"uint256"},{"name":"_newTimelockDelay","type":"uint256","internalType":"uint256"}],"outputs":[],"stateMutability":"nonpayable"},{"type":"function","name":"initiateVeto","inputs":[{"name":"_proposalId","type":"uint256","internalType":"uint256"}],"outputs":[],"stateMutability":"nonpayable"},{"type":"function","name":"isSpedup","inputs":[{"name":"_proposalId","type":"uint256","internalType":"uint256"}],"outputs":[{"name":"","type":"bool","internalType":"bool"}],"stateMutability":"view"},{"type":"function","name":"isVetoed","inputs":[{"name":"_proposalId","type":"uint256","internalType":"uint256"}],"outputs":[{"name":"","type":"bool","internalType":"bool"}],"stateMutability":"view"},{"type":"function","name":"proxiableUUID","inputs":[],"outputs":[{"name":"","type":"bytes32","internalType":"bytes32"}],"stateMutability":"view"},{"type":"function","name":"renounceRole","inputs":[{"name":"role","type":"bytes32","internalType":"bytes32"},{"name":"account","type":"address","internalType":"address"}],"outputs":[],"stateMutability":"nonpayable"},{"type":"function","name":"requiredApprovals","inputs":[],"outputs":[{"name":"","type":"uint256","internalType":"uint256"}],"stateMutability":"view"},{"type":"function","name":"revokeRole","inputs":[{"name":"role","type":"bytes32","internalType":"bytes32"},{"name":"account","type":"address","internalType":"address"}],"outputs":[],"stateMutability":"nonpayable"},{"type":"function","name":"setRequiredApprovals","inputs":[{"name":"_newRequiredApprovals","type":"uint256","internalType":"uint256"}],"outputs":[],"stateMutability":"nonpayable"},{"type":"function","name":"setSpeedupVotingPeriod","inputs":[{"name":"_newSpeedupVotingPeriod","type":"uint256","internalType":"uint256"}],"outputs":[],"stateMutability":"nonpayable"},{"type":"function","name":"setVetoPeriod","inputs":[{"name":"_newVetoPeriod","type":"uint256","internalType":"uint256"}],"outputs":[],"stateMutability":"nonpayable"},{"type":"function","name":"setVetoVotingPeriod","inputs":[{"name":"_newVetoVotingPeriod","type":"uint256","internalType":"uint256"}],"outputs":[],"stateMutability":"nonpayable"},{"type":"function","name":"speedupActionCount","inputs":[],"outputs":[{"name":"","type":"uint256","internalType":"uint256"}],"stateMutability":"view"},{"type":"function","name":"speedupActions","inputs":[{"name":"","type":"uint256","internalType":"uint256"}],"outputs":[{"name":"proposalId","type":"uint256","internalType":"uint256"},{"name":"initiator","type":"address","internalType":"address"},{"name":"approvals","type":"uint256","internalType":"uint256"},{"name":"createdAt","type":"uint256","internalType":"uint256"},{"name":"expiresAt","type":"uint256","internalType":"uint256"},{"name":"newVotingPeriod","type":"uint256","internalType":"uint256"},{"name":"newTimelockDelay","type":"uint256","internalType":"uint256"},{"name":"executed","type":"bool","internalType":"bool"}],"stateMutability":"view"},{"type":"function","name":"speedupVotingPeriod","inputs":[],"outputs":[{"name":"","type":"uint256","internalType":"uint256"}],"stateMutability":"view"},{"type":"function","name":"supportsInterface","inputs":[{"name":"interfaceId","type":"bytes4","internalType":"bytes4"}],"outputs":[{"name":"","type":"bool","internalType":"bool"}],"stateMutability":"view"},{"type":"function","name":"upgradeTo","inputs":[{"name":"newImplementation","type":"address","internalType":"address"}],"outputs":[],"stateMutability":"nonpayable"},{"type":"function","name":"upgradeToAndCall","inputs":[{"name":"newImplementation","type":"address","internalType":"address"},{"name":"data","type":"bytes","internalType":"bytes"}],"outputs":[],"stateMutability":"payable"},{"type":"function","name":"vetoActionCount","inputs":[],"outputs":[{"name":"","type":"uint256","internalType":"uint256"}],"stateMutability":"view"},{"type":"function","name":"vetoActions","inputs":[{"name":"","type":"uint256","internalType":"uint256"}],"outputs":[{"name":"proposalId","type":"uint256","internalType":"uint256"},{"name":"initiator","type":"address","internalType":"address"},{"name":"approvals","type":"uint256","internalType":"uint256"},{"name":"createdAt","type":"uint256","internalType":"uint256"},{"name":"expiresAt","type":"uint256","internalType":"uint256"},{"name":"executed","type":"bool","internalType":"bool"}],"stateMutability":"view"},{"type":"function","name":"vetoPeriod","inputs":[],"outputs":[{"name":"","type":"uint256","internalType":"uint256"}],"stateMutability":"view"},{"type":"function","name":"vetoVotingPeriod","inputs":[],"outputs":[{"name":"","type":"uint256","internalType":"uint256"}],"stateMutability":"view"},{"type":"event","name":"AdminChanged","inputs":[{"name":"previousAdmin","type":"address","indexed":false,"internalType":"address"},{"name":"newAdmin","type":"address","indexed":false,"internalType":"address"}],"anonymous":false},{"type":"event","name":"BeaconUpgraded","inputs":[{"name":"beacon","type":"address","indexed":true,"internalType":"address"}],"anonymous":false},{"type":"event","name":"Initialized","inputs":[{"name":"version","type":"uint8","indexed":false,"internalType":"uint8"}],"anonymous":false},{"type":"event","name":"RequiredApprovalsUpdated","inputs":[{"name":"oldValue","type":"uint256","indexed":false,"internalType":"uint256"},{"name":"newValue","type":"uint256","indexed":false,"internalType":"uint256"}],"anonymous":false},{"type":"event","name":"RoleAdminChanged","inputs":[{"name":"role","type":"bytes32","indexed":true,"internalType":"bytes32"},{"name":"previousAdminRole","type":"bytes32","indexed":true,"internalType":"bytes32"},{"name":"newAdminRole","type":"bytes32","indexed":true,"internalType":"bytes32"}],"anonymous":false},{"type":"event","name":"RoleGranted","inputs":[{"name":"role","type":"bytes32","indexed":true,"internalType":"bytes32"},{"name":"account","type":"address","indexed":true,"internalType":"address"},{"name":"sender","type":"address","indexed":true,"internalType":"address"}],"anonymous":false},{"type":"event","name":"RoleRevoked","inputs":[{"name":"role","type":"bytes32","indexed":true,"internalType":"bytes32"},{"name":"account","type":"address","indexed":true,"internalType":"address"},{"name":"sender","type":"address","indexed":true,"internalType":"address"}],"anonymous":false},{"type":"event","name":"SpeedupApproved","inputs":[{"name":"proposalId","type":"uint256","indexed":true,"internalType":"uint256"},{"name":"approver","type":"address","indexed":true,"internalType":"address"},{"name":"approvals","type":"uint256","indexed":false,"internalType":"uint256"}],"anonymous":false},{"type":"event","name":"SpeedupExecuted","inputs":[{"name":"proposalId","type":"uint256","indexed":true,"internalType":"uint256"},{"name":"newVotingPeriod","type":"uint256","indexed":false,"internalType":"uint256"},{"name":"newTimelockDelay","type":"uint256","indexed":false,"internalType":"uint256"}],"anonymous":false},{"type":"event","name":"SpeedupInitiated","inputs":[{"name":"proposalId","type":"uint256","indexed":true,"internalType":"uint256"},{"name":"initiator","type":"address","indexed":true,"internalType":"address"},{"name":"newVotingPeriod","type":"uint256","indexed":false,"internalType":"uint256"},{"name":"newTimelockDelay","type":"uint256","indexed":false,"internalType":"uint256"},{"name":"expiresAt","type":"uint256","indexed":false,"internalType":"uint256"}],"anonymous":false},{"type":"event","name":"SpeedupVotingPeriodUpdated","inputs":[{"name":"oldValue","type":"uint256","indexed":false,"internalType":"uint256"},{"name":"newValue","type":"uint256","indexed":false,"internalType":"uint256"}],"anonymous":false},{"type":"event","name":"Upgraded","inputs":[{"name":"implementation","type":"address","indexed":true,"internalType":"address"}],"anonymous":false},{"type":"event","name":"VetoApproved","inputs":[{"name":"proposalId","type":"uint256","indexed":true,"internalType":"uint256"},{"name":"approver","type":"address","indexed":true,"internalType":"address"},{"name":"approvals","type":"uint256","indexed":false,"internalType":"uint256"}],"anonymous":false},{"type":"event","name":"VetoExecuted","inputs":[{"name":"proposalId","type":"uint256","indexed":true,"internalType":"uint256"},{"name":"approvals","type":"uint256","indexed":false,"internalType":"uint256"}],"anonymous":false},{"type":"event","name":"VetoInitiated","inputs":[{"name":"proposalId","type":"uint256","indexed":true,"internalType":"uint256"},{"name":"initiator","type":"address","indexed":true,"internalType":"address"},{"name":"expiresAt","type":"uint256","indexed":false,"internalType":"uint256"}],"anonymous":false},{"type":"event","name":"VetoPeriodUpdated","inputs":[{"name":"oldValue","type":"uint256","indexed":false,"internalType":"uint256"},{"name":"newValue","type":"uint256","indexed":false,"internalType":"uint256"}],"anonymous":false},{"type":"event","name":"VetoVotingPeriodUpdated","inputs":[{"name":"oldValue","type":"uint256","indexed":false,"internalType":"uint256"},{"name":"newValue","type":"uint256","indexed":false,"internalType":"uint256"}],"anonymous":false},{"type":"error","name":"AlreadyApproved","inputs":[]},{"type":"error","name":"AlreadyExecuted","inputs":[]},{"type":"error","name":"AlreadySpedup","inputs":[]},{"type":"error","name":"AlreadyVetoed","inputs":[]},{"type":"error","name":"InsufficientApprovals","inputs":[]},{"type":"error","name":"InvalidParameters","inputs":[]},{"type":"error","name":"NotCouncilMember","inputs":[]},{"type":"error","name":"SpeedupActionExpired","inputs":[]},{"type":"error","name":"VetoActionExpired","inputs":[]},{"type":"error","name":"VetoPeriodPassed","inputs":[]}],"bytecode":{"object":"0x60a06040523060805234801561001457600080fd5b5061001d610022565b6100e1565b600054610100900460ff161561008e5760405162461bcd60e51b815260206004820152602760248201527f496e697469616c697a61626c653a20636f6e747261637420697320696e697469604482015266616c697a696e6760c81b606482015260840160405180910390fd5b60005460ff908116146100df576000805460ff191660ff9081179091556040519081527f7f26b83ff96e1f2b6a682f133852f6798a09c465da95921460cefb38474024989060200160405180910390a15b565b60805161231161011860003960008181610a3601528181610a7601528181610b1201528181610b520152610be101526123116000f3fe60806040526004361061020f5760003560e01c80636a5c842b11610118578063a217fddf116100a0578063d9cc29a21161006f578063d9cc29a21461077b578063f75355251461079b578063f92ad219146107b2578063f9468dd5146107d2578063fe3293a8146107f257600080fd5b8063a217fddf1461069a578063af46c4d0146106af578063ba7727e814610744578063d547741f1461075b57600080fd5b8063727f5a12116100e7578063727f5a12146105ef57806375f6d0b41461060f578063873def8c1461062f57806391d148541461066357806399c1aadc1461068357600080fd5b80636a5c842b1461054a5780636d43b8c91461056a5780636de18f581461058157806370f12161146105cf57600080fd5b80633659cfe61161019b5780634938d5a41161016a5780634938d5a4146104c05780634f1ef286146104e257806352d1902d146104f557806358cd2ced1461050a578063629f5f1e1461052a57600080fd5b80633659cfe6146103f35780633b0980f11461041357806343e88b0e1461045e578063456942741461047557600080fd5b8063222a242e116101e2578063222a242e14610341578063248a9ca3146103615780632d0e9722146103915780632f2ff15d146103b357806336568abe146103d357600080fd5b806301ffc9a7146102145780630281a61114610249578063097de4c21461026b57806310b7a0d914610290575b600080fd5b34801561022057600080fd5b5061023461022f366004611df6565b610826565b60405190151581526020015b60405180910390f35b34801561025557600080fd5b50610269610264366004611e20565b61085d565b005b34801561027757600080fd5b5061028261012f5481565b604051908152602001610240565b34801561029c57600080fd5b506102fc6102ab366004611e20565b610132602052600090815260409020805460018201546002830154600384015460048501546005860154600687015460079097015495966001600160a01b0390951695939492939192909160ff1688565b604080519889526001600160a01b039097166020890152958701949094526060860192909252608085015260a084015260c0830152151560e082015261010001610240565b34801561034d57600080fd5b5061026961035c366004611e20565b6108fe565b34801561036d57600080fd5b5061028261037c366004611e20565b60009081526065602052604090206001015490565b34801561039d57600080fd5b5061028260008051602061225583398151915281565b3480156103bf57600080fd5b506102696103ce366004611e55565b61097f565b3480156103df57600080fd5b506102696103ee366004611e55565b6109a9565b3480156103ff57600080fd5b5061026961040e366004611e81565b610a2c565b34801561041f57600080fd5b5061023461042e366004611e55565b6000828152610131602090815260408083206001600160a01b038516845260060190915290205460ff1692915050565b34801561046a57600080fd5b506102826101345481565b34801561048157600080fd5b50610234610490366004611e55565b6000828152610132602090815260408083206001600160a01b038516845260080190915290205460ff1692915050565b3480156104cc57600080fd5b5061028260008051602061227583398151915281565b6102696104f0366004611eb2565b610b08565b34801561050157600080fd5b50610282610bd4565b34801561051657600080fd5b50610269610525366004611e20565b610c87565b34801561053657600080fd5b50610269610545366004611e20565b610cde565b34801561055657600080fd5b50610269610565366004611e20565b610e4b565b34801561057657600080fd5b506102826101305481565b34801561058d57600080fd5b506105ba61059c366004611e20565b60009081526101326020526040902060058101546006909101549091565b60408051928352602083019190915201610240565b3480156105db57600080fd5b506102696105ea366004611e20565b610ea2565b3480156105fb57600080fd5b5061026961060a366004611f7c565b610ff8565b34801561061b57600080fd5b5061026961062a366004611e20565b611163565b34801561063b57600080fd5b5061023461064a366004611e20565b6000908152610131602052604090206005015460ff1690565b34801561066f57600080fd5b5061023461067e366004611e55565b6111f6565b34801561068f57600080fd5b5061028261012d5481565b3480156106a657600080fd5b50610282600081565b3480156106bb57600080fd5b5061070d6106ca366004611e20565b6101316020526000908152604090208054600182015460028301546003840154600485015460059095015493946001600160a01b03909316939192909160ff1686565b604080519687526001600160a01b0390951660208701529385019290925260608401526080830152151560a082015260c001610240565b34801561075057600080fd5b506102826101335481565b34801561076757600080fd5b50610269610776366004611e55565b611221565b34801561078757600080fd5b50610269610796366004611e20565b611246565b3480156107a757600080fd5b5061028261012e5481565b3480156107be57600080fd5b506102696107cd366004611fa8565b61129d565b3480156107de57600080fd5b506102696107ed366004611e20565b61141f565b3480156107fe57600080fd5b5061023461080d366004611e20565b6000908152610132602052604090206007015460ff1690565b60006001600160e01b03198216637965db0b60e01b148061085757506301ffc9a760e01b6001600160e01b03198316145b92915050565b610865611581565b600081815261013260205260409020600781015460ff161561089a57604051630dc1019760e01b815260040160405180910390fd5b61012d54816002015410156108c257604051638af69cf160e01b815260040160405180910390fd5b80600401544211156108e75760405163ee325f3560e01b815260040160405180910390fd5b6108f0826115da565b506108fb6001609755565b50565b60008051602061227583398151915261091681611651565b8160000361093757604051630e52390960e41b815260040160405180910390fd5b61012d80549083905560408051828152602081018590527fcbd3eb803c8088c0677f88231c298df176fddba3dfd2a266ebcc538c71885ef691015b60405180910390a1505050565b60008281526065602052604090206001015461099a81611651565b6109a4838361165b565b505050565b6001600160a01b0381163314610a1e5760405162461bcd60e51b815260206004820152602f60248201527f416363657373436f6e74726f6c3a2063616e206f6e6c792072656e6f756e636560448201526e103937b632b9903337b91039b2b63360891b60648201526084015b60405180910390fd5b610a2882826116e1565b5050565b6001600160a01b037f0000000000000000000000000000000000000000000000000000000000000000163003610a745760405162461bcd60e51b8152600401610a1590611fea565b7f00000000000000000000000000000000000000000000000000000000000000006001600160a01b0316610abd600080516020612295833981519152546001600160a01b031690565b6001600160a01b031614610ae35760405162461bcd60e51b8152600401610a1590612036565b610aec81611748565b604080516000808252602082019092526108fb91839190611760565b6001600160a01b037f0000000000000000000000000000000000000000000000000000000000000000163003610b505760405162461bcd60e51b8152600401610a1590611fea565b7f00000000000000000000000000000000000000000000000000000000000000006001600160a01b0316610b99600080516020612295833981519152546001600160a01b031690565b6001600160a01b031614610bbf5760405162461bcd60e51b8152600401610a1590612036565b610bc882611748565b610a2882826001611760565b6000306001600160a01b037f00000000000000000000000000000000000000000000000000000000000000001614610c745760405162461bcd60e51b815260206004820152603860248201527f555550535570677261646561626c653a206d757374206e6f742062652063616c60448201527f6c6564207468726f7567682064656c656761746563616c6c00000000000000006064820152608401610a15565b5060008051602061229583398151915290565b600080516020612275833981519152610c9f81611651565b61013080549083905560408051828152602081018590527fddc62975942447edc2befb2987f88e0d5c39ba546a7bacb218dd6cc01d0ffe7a9101610972565b600080516020612255833981519152610cf681611651565b610cfe611581565b6000828152610132602052604081206003810154909103610d3257604051637150a4a360e11b815260040160405180910390fd5b8060040154421115610d575760405163ee325f3560e01b815260040160405180910390fd5b600781015460ff1615610d7d57604051630dc1019760e01b815260040160405180910390fd5b33600090815260088201602052604090205460ff1615610db05760405163080fc0bd60e11b815260040160405180910390fd5b3360009081526008820160205260408120805460ff1916600117905560028201805491610ddc83612098565b9190505550336001600160a01b0316837f597e96329f735794b57a800e36210e25335e1e7729594461f8f0524b266a63ba8360020154604051610e2191815260200190565b60405180910390a361012d54816002015410610e4057610e40836115da565b50610a286001609755565b600080516020612275833981519152610e6381611651565b61012e80549083905560408051828152602081018590527fc011145e12b3ae673a8a66f4a3d270fc17b3ac1370281068c6309e42ce5d857b9101610972565b600080516020612255833981519152610eba81611651565b610ec2611581565b6000828152610131602052604090206003015415610ef35760405163712a5ee760e11b815260040160405180910390fd5b6000828152610131602052604090208281556001810180546001600160a01b03191633179055426003820181905561012f54610f2e916120b1565b60048201556001600282018190553360009081526006830160205260408120805460ff1916909217909155610133805491610f6883612098565b9190505550336001600160a01b0316837fbb45867c94d715203088058706f5f5dd9303460b51645ffd31f49c136c0853468360040154604051610fad91815260200190565b60405180910390a360405160018152339084907f86a37527ade52a81f588e85b3cfe36b4a9cc3457df7e8201e126fb8e506cfd199060200160405180910390a350610a286001609755565b60008051602061225583398151915261101081611651565b611018611581565b600084815261013260205260409020600301541561104957604051637150a4a360e11b815260040160405180910390fd5b6000848152610132602052604090208481556001810180546001600160a01b03191633179055426003820181905561013054611084916120b1565b600482015560058101849055600681018390556001600282018190553360009081526008830160205260408120805460ff19169092179091556101348054916110cc83612098565b9091555050600481015460408051868152602081018690528082019290925251339187917f4cc7c7910b8d3d7264637f29bd2a780a8b497145f9f048b5944a7c5c7149b7419181900360600190a360405160018152339086907f597e96329f735794b57a800e36210e25335e1e7729594461f8f0524b266a63ba9060200160405180910390a35061115d6001609755565b50505050565b61116b611581565b600081815261013160205260409020600581015460ff16156111a057604051630dc1019760e01b815260040160405180910390fd5b61012d54816002015410156111c857604051638af69cf160e01b815260040160405180910390fd5b80600401544211156111ed5760405163035552d760e51b815260040160405180910390fd5b6108f0826118cb565b60009182526065602090815260408084206001600160a01b0393909316845291905290205460ff1690565b60008281526065602052604090206001015461123c81611651565b6109a483836116e1565b60008051602061227583398151915261125e81611651565b61012f80549083905560408051828152602081018590527f2baadf8f651e84d4db5760565fb3954c372f590beedb067d244d9127872ca4209101610972565b600054610100900460ff16158080156112bd5750600054600160ff909116105b806112d75750303b1580156112d7575060005460ff166001145b61133a5760405162461bcd60e51b815260206004820152602e60248201527f496e697469616c697a61626c653a20636f6e747261637420697320616c72656160448201526d191e481a5b9a5d1a585b1a5e995960921b6064820152608401610a15565b6000805460ff19166001179055801561135d576000805461ff0019166101001790555b611365611925565b61136d61194e565b611375611925565b8460000361139657604051630e52390960e41b815260040160405180910390fd5b6113a160008761165b565b6113b96000805160206122758339815191528761165b565b61012d85905561012e84905561012f8390556101308290558015611417576000805461ff0019169055604051600181527f7f26b83ff96e1f2b6a682f133852f6798a09c465da95921460cefb38474024989060200160405180910390a15b505050505050565b60008051602061225583398151915261143781611651565b61143f611581565b60008281526101316020526040812060038101549091036114735760405163712a5ee760e11b815260040160405180910390fd5b80600401544211156114985760405163035552d760e51b815260040160405180910390fd5b600581015460ff16156114be57604051630dc1019760e01b815260040160405180910390fd5b33600090815260068201602052604090205460ff16156114f15760405163080fc0bd60e11b815260040160405180910390fd5b3360009081526006820160205260408120805460ff191660011790556002820180549161151d83612098565b9190505550336001600160a01b0316837f86a37527ade52a81f588e85b3cfe36b4a9cc3457df7e8201e126fb8e506cfd19836002015460405161156291815260200190565b60405180910390a361012d54816002015410610e4057610e40836118cb565b6002609754036115d35760405162461bcd60e51b815260206004820152601f60248201527f5265656e7472616e637947756172643a207265656e7472616e742063616c6c006044820152606401610a15565b6002609755565b600081815261013260205260409081902060078101805460ff19166001179055600581015460068201549251919284927fba7b759920bfe19ba7d01fe8071582bb0f5ab946d0121752d406ab5132cd24179261163e92908252602082015260400190565b60405180910390a25050565b6001609755565b6108fb813361197d565b61166582826111f6565b610a285760008281526065602090815260408083206001600160a01b03851684529091529020805460ff1916600117905561169d3390565b6001600160a01b0316816001600160a01b0316837f2f8788117e7eff1d82e926ec794901d17c78024a50270940304540a733656f0d60405160405180910390a45050565b6116eb82826111f6565b15610a285760008281526065602090815260408083206001600160a01b0385168085529252808320805460ff1916905551339285917ff6391f5c32d9c69d2a47ea670b442974b53935d1edc7fd64eb21e047a839171b9190a45050565b600080516020612275833981519152610a2881611651565b7f4910fdfa16fed3260ed0e7147f7cc6da11a60208b5b9406d12a635614ffd91435460ff1615611793576109a4836119d6565b826001600160a01b03166352d1902d6040518163ffffffff1660e01b8152600401602060405180830381865afa9250505080156117ed575060408051601f3d908101601f191682019092526117ea918101906120c4565b60015b6118505760405162461bcd60e51b815260206004820152602e60248201527f45524331393637557067726164653a206e657720696d706c656d656e7461746960448201526d6f6e206973206e6f74205555505360901b6064820152608401610a15565b60008051602061229583398151915281146118bf5760405162461bcd60e51b815260206004820152602960248201527f45524331393637557067726164653a20756e737570706f727465642070726f786044820152681a58589b195555525160ba1b6064820152608401610a15565b506109a4838383611a72565b600081815261013160205260409081902060058101805460ff1916600117905560028101549151909183917f4b740a9bab1da66ec9fade9d6938971ccf4beeb32a3c67fc51a1ba111a66c8859161163e9190815260200190565b600054610100900460ff1661194c5760405162461bcd60e51b8152600401610a15906120dd565b565b600054610100900460ff166119755760405162461bcd60e51b8152600401610a15906120dd565b61194c611a97565b61198782826111f6565b610a285761199481611abe565b61199f836020611ad0565b6040516020016119b092919061214c565b60408051601f198184030181529082905262461bcd60e51b8252610a15916004016121c1565b6001600160a01b0381163b611a435760405162461bcd60e51b815260206004820152602d60248201527f455243313936373a206e657720696d706c656d656e746174696f6e206973206e60448201526c1bdd08184818dbdb9d1c9858dd609a1b6064820152608401610a15565b60008051602061229583398151915280546001600160a01b0319166001600160a01b0392909216919091179055565b611a7b83611c73565b600082511180611a885750805b156109a45761115d8383611cb3565b600054610100900460ff1661164a5760405162461bcd60e51b8152600401610a15906120dd565b60606108576001600160a01b03831660145b60606000611adf8360026121f4565b611aea9060026120b1565b67ffffffffffffffff811115611b0257611b02611e9c565b6040519080825280601f01601f191660200182016040528015611b2c576020820181803683370190505b509050600360fc1b81600081518110611b4757611b4761220b565b60200101906001600160f81b031916908160001a905350600f60fb1b81600181518110611b7657611b7661220b565b60200101906001600160f81b031916908160001a9053506000611b9a8460026121f4565b611ba59060016120b1565b90505b6001811115611c1d576f181899199a1a9b1b9c1cb0b131b232b360811b85600f1660108110611bd957611bd961220b565b1a60f81b828281518110611bef57611bef61220b565b60200101906001600160f81b031916908160001a90535060049490941c93611c1681612221565b9050611ba8565b508315611c6c5760405162461bcd60e51b815260206004820181905260248201527f537472696e67733a20686578206c656e67746820696e73756666696369656e746044820152606401610a15565b9392505050565b611c7c816119d6565b6040516001600160a01b038216907fbc7cd75a20ee27fd9adebab32041f755214dbc6bffa90cc0225b39da2e5c2d3b90600090a250565b6060611c6c83836040518060600160405280602781526020016122b5602791396060600080856001600160a01b031685604051611cf09190612238565b600060405180830381855af49150503d8060008114611d2b576040519150601f19603f3d011682016040523d82523d6000602084013e611d30565b606091505b5091509150611d4186838387611d4b565b9695505050505050565b60608315611dba578251600003611db3576001600160a01b0385163b611db35760405162461bcd60e51b815260206004820152601d60248201527f416464726573733a2063616c6c20746f206e6f6e2d636f6e74726163740000006044820152606401610a15565b5081611dc4565b611dc48383611dcc565b949350505050565b815115611ddc5781518083602001fd5b8060405162461bcd60e51b8152600401610a1591906121c1565b600060208284031215611e0857600080fd5b81356001600160e01b031981168114611c6c57600080fd5b600060208284031215611e3257600080fd5b5035919050565b80356001600160a01b0381168114611e5057600080fd5b919050565b60008060408385031215611e6857600080fd5b82359150611e7860208401611e39565b90509250929050565b600060208284031215611e9357600080fd5b611c6c82611e39565b634e487b7160e01b600052604160045260246000fd5b60008060408385031215611ec557600080fd5b611ece83611e39565b9150602083013567ffffffffffffffff811115611eea57600080fd5b8301601f81018513611efb57600080fd5b803567ffffffffffffffff811115611f1557611f15611e9c565b604051601f8201601f19908116603f0116810167ffffffffffffffff81118282101715611f4457611f44611e9c565b604052818152828201602001871015611f5c57600080fd5b816020840160208301376000602083830101528093505050509250929050565b600080600060608486031215611f9157600080fd5b505081359360208301359350604090920135919050565b600080600080600060a08688031215611fc057600080fd5b611fc986611e39565b97602087013597506040870135966060810135965060800135945092505050565b6020808252602c908201527f46756e6374696f6e206d7573742062652063616c6c6564207468726f7567682060408201526b19195b1959d85d1958d85b1b60a21b606082015260800190565b6020808252602c908201527f46756e6374696f6e206d7573742062652063616c6c6564207468726f7567682060408201526b6163746976652070726f787960a01b606082015260800190565b634e487b7160e01b600052601160045260246000fd5b6000600182016120aa576120aa612082565b5060010190565b8082018082111561085757610857612082565b6000602082840312156120d657600080fd5b5051919050565b6020808252602b908201527f496e697469616c697a61626c653a20636f6e7472616374206973206e6f74206960408201526a6e697469616c697a696e6760a81b606082015260800190565b60005b8381101561214357818101518382015260200161212b565b50506000910152565b7f416363657373436f6e74726f6c3a206163636f756e7420000000000000000000815260008351612184816017850160208801612128565b7001034b99036b4b9b9b4b733903937b6329607d1b60179184019182015283516121b5816028840160208801612128565b01602801949350505050565b60208152600082518060208401526121e0816040850160208701612128565b601f01601f19169190910160400192915050565b808202811582820484141761085757610857612082565b634e487b7160e01b600052603260045260246000fd5b60008161223057612230612082565b506000190190565b6000825161224a818460208701612128565b919091019291505056fe03be538b6391ddcd7f2649585cc95b120c9e2a613f70714fbb55345057d809faf29415a6431cbdc037e4213e82cd5f777c83c5daddced87816f08e2a73d50fe5360894a13ba1a3210667c828492db98dca3e2076cc3735a920a3ca505d382bbc416464726573733a206c6f772d6c6576656c2064656c65676174652063616c6c206661696c6564a264697066735822122066bf4b42fe2d65138884cdc5e2e37c98b308a91bbf4282574dd225e79f66a6fb64736f6c634300081e0033","linkReferences":{}},"methodIdentifiers":{"COUNCIL_ADMIN_ROLE()":"4938d5a4","COUNCIL_MEMBER_ROLE()":"2d0e9722","DEFAULT_ADMIN_ROLE()":"a217fddf","approveSpeedup(uint256)":"629f5f1e","approveVeto(uint256)":"f9468dd5","executeSpeedup(uint256)":"0281a611","executeVeto(uint256)":"75f6d0b4","getRoleAdmin(bytes32)":"248a9ca3","getSpeedupParams(uint256)":"6de18f58","grantRole(bytes32,address)":"2f2ff15d","hasApprovedSpeedup(uint256,address)":"45694274","hasApprovedVeto(uint256,address)":"3b0980f1","hasRole(bytes32,address)":"91d14854","initialize(address,uint256,uint256,uint256,uint256)":"f92ad219","initiateSpeedup(uint256,uint256,uint256)":"727f5a12","initiateVeto(uint256)":"70f12161","isSpedup(uint256)":"fe3293a8","isVetoed(uint256)":"873def8c","proxiableUUID()":"52d1902d","renounceRole(bytes32,address)":"36568abe","requiredApprovals()":"99c1aadc","revokeRole(bytes32,address)":"d547741f","setRequiredApprovals(uint256)":"222a242e","setSpeedupVotingPeriod(uint256)":"58cd2ced","setVetoPeriod(uint256)":"6a5c842b","setVetoVotingPeriod(uint256)":"d9cc29a2","speedupActionCount()":"43e88b0e","speedupActions(uint256)":"10b7a0d9","speedupVotingPeriod()":"6d43b8c9","supportsInterface(bytes4)":"01ffc9a7","upgradeTo(address)":"3659cfe6","upgradeToAndCall(address,bytes)":"4f1ef286","vetoActionCount()":"ba7727e8","vetoActions(uint256)":"af46c4d0","vetoPeriod()":"f7535525","vetoVotingPeriod()":"097de4c2"},"id":4}