{"abi":[{"type":"constructor","inputs":[],"stateMutability":"nonpayable"},{"type":"function","name":"DEFAULT_ADMIN_ROLE","inputs":[],"outputs":[{"name":"","type":"bytes32","internalType":"bytes32"}],"stateMutability":"view"},{"type":"function","name":"DISTRIBUTOR_ROLE","inputs":[],"outputs":[{"name":"","type":"bytes32","internalType":"bytes32"}],"stateMutability":"view"},{"type":"function","name":"GAUGE_ADMIN_ROLE","inputs":[],"outputs":[{"name":"","type":"bytes32","internalType":"bytes32"}],"stateMutability":"view"},{"type":"function","name":"cancelGrant","inputs":[{"name":"_grantId","type":"uint256","internalType":"uint256"}],"outputs":[],"stateMutability":"nonpayable"},{"type":"function","name":"claimGrant","inputs":[{"name":"_grantId","type":"uint256","internalType":"uint256"},{"name":"_epoch","type":"uint256","internalType":"uint256"}],"outputs":[],"stateMutability":"nonpayable"},{"type":"function","name":"createGrant","inputs":[{"name":"_recipient","type":"address","internalType":"address"},{"name":"_totalAmount","type":"uint256","internalType":"uint256"},{"name":"_vestingEpochs","type":"uint256","internalType":"uint256"},{"name":"_metadata","type":"string","internalType":"string"}],"outputs":[{"name":"","type":"uint256","internalType":"uint256"}],"stateMutability":"nonpayable"},{"type":"function","name":"distributions","inputs":[{"name":"","type":"uint256","internalType":"uint256"}],"outputs":[{"name":"epoch","type":"uint256","internalType":"uint256"},{"name":"amount","type":"uint256","internalType":"uint256"},{"name":"weight","type":"uint256","internalType":"uint256"},{"name":"timestamp","type":"uint256","internalType":"uint256"},{"name":"claimed","type":"bool","internalType":"bool"}],"stateMutability":"view"},{"type":"function","name":"emergencyWithdraw","inputs":[{"name":"_token","type":"address","internalType":"address"},{"name":"_to","type":"address","internalType":"address"},{"name":"_amount","type":"uint256","internalType":"uint256"}],"outputs":[],"stateMutability":"nonpayable"},{"type":"function","name":"epochManager","inputs":[],"outputs":[{"name":"","type":"address","internalType":"contract IEpochManager"}],"stateMutability":"view"},{"type":"function","name":"gaugeController","inputs":[],"outputs":[{"name":"","type":"address","internalType":"contract IGaugeController"}],"stateMutability":"view"},{"type":"function","name":"gaugeId","inputs":[],"outputs":[{"name":"","type":"uint256","internalType":"uint256"}],"stateMutability":"view"},{"type":"function","name":"gaugeType","inputs":[],"outputs":[{"name":"","type":"string","internalType":"string"}],"stateMutability":"view"},{"type":"function","name":"getActiveGrants","inputs":[],"outputs":[{"name":"","type":"uint256[]","internalType":"uint256[]"}],"stateMutability":"view"},{"type":"function","name":"getAvailableBalance","inputs":[],"outputs":[{"name":"","type":"uint256","internalType":"uint256"}],"stateMutability":"view"},{"type":"function","name":"getClaimableAmount","inputs":[{"name":"_grantId","type":"uint256","internalType":"uint256"},{"name":"_epoch","type":"uint256","internalType":"uint256"}],"outputs":[{"name":"","type":"uint256","internalType":"uint256"}],"stateMutability":"view"},{"type":"function","name":"getDistribution","inputs":[{"name":"_epoch","type":"uint256","internalType":"uint256"}],"outputs":[{"name":"","type":"tuple","internalType":"struct Gauge.Distribution","components":[{"name":"epoch","type":"uint256","internalType":"uint256"},{"name":"amount","type":"uint256","internalType":"uint256"},{"name":"weight","type":"uint256","internalType":"uint256"},{"name":"timestamp","type":"uint256","internalType":"uint256"},{"name":"claimed","type":"bool","internalType":"bool"}]}],"stateMutability":"view"},{"type":"function","name":"getGrant","inputs":[{"name":"_grantId","type":"uint256","internalType":"uint256"}],"outputs":[{"name":"","type":"tuple","internalType":"struct GrantGauge.Grant","components":[{"name":"recipient","type":"address","internalType":"address"},{"name":"totalAmount","type":"uint256","internalType":"uint256"},{"name":"claimedAmount","type":"uint256","internalType":"uint256"},{"name":"startEpoch","type":"uint256","internalType":"uint256"},{"name":"vestingEpochs","type":"uint256","internalType":"uint256"},{"name":"isActive","type":"bool","internalType":"bool"},{"name":"metadata","type":"string","internalType":"string"}]}],"stateMutability":"view"},{"type":"function","name":"getGrantUnclaimedAmount","inputs":[{"name":"_grantId","type":"uint256","internalType":"uint256"}],"outputs":[{"name":"","type":"uint256","internalType":"uint256"}],"stateMutability":"view"},{"type":"function","name":"getRoleAdmin","inputs":[{"name":"role","type":"bytes32","internalType":"bytes32"}],"outputs":[{"name":"","type":"bytes32","internalType":"bytes32"}],"stateMutability":"view"},{"type":"function","name":"getUnclaimedAmount","inputs":[],"outputs":[{"name":"","type":"uint256","internalType":"uint256"}],"stateMutability":"view"},{"type":"function","name":"grantCount","inputs":[],"outputs":[{"name":"","type":"uint256","internalType":"uint256"}],"stateMutability":"view"},{"type":"function","name":"grantEpochAllocation","inputs":[{"name":"","type":"uint256","internalType":"uint256"},{"name":"","type":"uint256","internalType":"uint256"}],"outputs":[{"name":"","type":"uint256","internalType":"uint256"}],"stateMutability":"view"},{"type":"function","name":"grantRole","inputs":[{"name":"role","type":"bytes32","internalType":"bytes32"},{"name":"account","type":"address","internalType":"address"}],"outputs":[],"stateMutability":"nonpayable"},{"type":"function","name":"grants","inputs":[{"name":"","type":"uint256","internalType":"uint256"}],"outputs":[{"name":"recipient","type":"address","internalType":"address"},{"name":"totalAmount","type":"uint256","internalType":"uint256"},{"name":"claimedAmount","type":"uint256","internalType":"uint256"},{"name":"startEpoch","type":"uint256","internalType":"uint256"},{"name":"vestingEpochs","type":"uint256","internalType":"uint256"},{"name":"isActive","type":"bool","internalType":"bool"},{"name":"metadata","type":"string","internalType":"string"}],"stateMutability":"view"},{"type":"function","name":"hasRole","inputs":[{"name":"role","type":"bytes32","internalType":"bytes32"},{"name":"account","type":"address","internalType":"address"}],"outputs":[{"name":"","type":"bool","internalType":"bool"}],"stateMutability":"view"},{"type":"function","name":"initialize","inputs":[{"name":"_gaugeController","type":"address","internalType":"address"},{"name":"_epochManager","type":"address","internalType":"address"},{"name":"_token","type":"address","internalType":"address"},{"name":"_gaugeId","type":"uint256","internalType":"uint256"},{"name":"_name","type":"string","internalType":"string"}],"outputs":[],"stateMutability":"nonpayable"},{"type":"function","name":"name","inputs":[],"outputs":[{"name":"","type":"string","internalType":"string"}],"stateMutability":"view"},{"type":"function","name":"receiveDistribution","inputs":[{"name":"_epoch","type":"uint256","internalType":"uint256"},{"name":"_amount","type":"uint256","internalType":"uint256"},{"name":"_weight","type":"uint256","internalType":"uint256"}],"outputs":[],"stateMutability":"nonpayable"},{"type":"function","name":"renounceRole","inputs":[{"name":"role","type":"bytes32","internalType":"bytes32"},{"name":"account","type":"address","internalType":"address"}],"outputs":[],"stateMutability":"nonpayable"},{"type":"function","name":"revokeRole","inputs":[{"name":"role","type":"bytes32","internalType":"bytes32"},{"name":"account","type":"address","internalType":"address"}],"outputs":[],"stateMutability":"nonpayable"},{"type":"function","name":"supportsInterface","inputs":[{"name":"interfaceId","type":"bytes4","internalType":"bytes4"}],"outputs":[{"name":"","type":"bool","internalType":"bool"}],"stateMutability":"view"},{"type":"function","name":"token","inputs":[],"outputs":[{"name":"","type":"address","internalType":"contract IERC20Upgradeable"}],"stateMutability":"view"},{"type":"function","name":"totalClaimed","inputs":[],"outputs":[{"name":"","type":"uint256","internalType":"uint256"}],"stateMutability":"view"},{"type":"function","name":"totalDistributed","inputs":[],"outputs":[{"name":"","type":"uint256","internalType":"uint256"}],"stateMutability":"view"},{"type":"function","name":"updateGrantMetadata","inputs":[{"name":"_grantId","type":"uint256","internalType":"uint256"},{"name":"_metadata","type":"string","internalType":"string"}],"outputs":[],"stateMutability":"nonpayable"},{"type":"event","name":"DistributionClaimed","inputs":[{"name":"epoch","type":"uint256","indexed":true,"internalType":"uint256"},{"name":"recipient","type":"address","indexed":true,"internalType":"address"},{"name":"amount","type":"uint256","indexed":false,"internalType":"uint256"}],"anonymous":false},{"type":"event","name":"DistributionReceived","inputs":[{"name":"epoch","type":"uint256","indexed":true,"internalType":"uint256"},{"name":"amount","type":"uint256","indexed":false,"internalType":"uint256"},{"name":"weight","type":"uint256","indexed":false,"internalType":"uint256"}],"anonymous":false},{"type":"event","name":"GaugeInitialized","inputs":[{"name":"gaugeId","type":"uint256","indexed":true,"internalType":"uint256"},{"name":"name","type":"string","indexed":false,"internalType":"string"},{"name":"gaugeType","type":"string","indexed":false,"internalType":"string"}],"anonymous":false},{"type":"event","name":"GrantCancelled","inputs":[{"name":"grantId","type":"uint256","indexed":true,"internalType":"uint256"}],"anonymous":false},{"type":"event","name":"GrantClaimed","inputs":[{"name":"grantId","type":"uint256","indexed":true,"internalType":"uint256"},{"name":"epoch","type":"uint256","indexed":true,"internalType":"uint256"},{"name":"recipient","type":"address","indexed":true,"internalType":"address"},{"name":"amount","type":"uint256","indexed":false,"internalType":"uint256"}],"anonymous":false},{"type":"event","name":"GrantCreated","inputs":[{"name":"grantId","type":"uint256","indexed":true,"internalType":"uint256"},{"name":"recipient","type":"address","indexed":true,"internalType":"address"},{"name":"totalAmount","type":"uint256","indexed":false,"internalType":"uint256"},{"name":"vestingEpochs","type":"uint256","indexed":false,"internalType":"uint256"}],"anonymous":false},{"type":"event","name":"GrantUpdated","inputs":[{"name":"grantId","type":"uint256","indexed":true,"internalType":"uint256"},{"name":"metadata","type":"string","indexed":false,"internalType":"string"}],"anonymous":false},{"type":"event","name":"Initialized","inputs":[{"name":"version","type":"uint8","indexed":false,"internalType":"uint8"}],"anonymous":false},{"type":"event","name":"RoleAdminChanged","inputs":[{"name":"role","type":"bytes32","indexed":true,"internalType":"bytes32"},{"name":"previousAdminRole","type":"bytes32","indexed":true,"internalType":"bytes32"},{"name":"newAdminRole","type":"bytes32","indexed":true,"internalType":"bytes32"}],"anonymous":false},{"type":"event","name":"RoleGranted","inputs":[{"name":"role","type":"bytes32","indexed":true,"internalType":"bytes32"},{"name":"account","type":"address","indexed":true,"internalType":"address"},{"name":"sender","type":"address","indexed":true,"internalType":"address"}],"anonymous":false},{"type":"event","name":"RoleRevoked","inputs":[{"name":"role","type":"bytes32","indexed":true,"internalType":"bytes32"},{"name":"account","type":"address","indexed":true,"internalType":"address"},{"name":"sender","type":"address","indexed":true,"internalType":"address"}],"anonymous":false}],"bytecode":{"object":"0x6080604052348015600f57600080fd5b5060166020565b601c6020565b60dd565b600054610100900460ff1615608b5760405162461bcd60e51b815260206004820152602760248201527f496e697469616c697a61626c653a20636f6e747261637420697320696e697469604482015266616c697a696e6760c81b606482015260840160405180910390fd5b60005460ff9081161460db576000805460ff191660ff9081179091556040519081527f7f26b83ff96e1f2b6a682f133852f6798a09c465da95921460cefb38474024989060200160405180910390a15b565b612aa9806100ec6000396000f3fe608060405234801561001057600080fd5b50600436106102115760003560e01c806399eecb3b11610125578063d547741f116100ad578063e79e5a231161007c578063e79e5a2314610512578063eb06574014610527578063efca2eed14610552578063f0bd87cc1461055b578063fc0c546a1461058257600080fd5b8063d547741f146104d0578063d54ad2a1146104e3578063e2d2bfe3146104ec578063e63ea408146104ff57600080fd5b8063a6ceae80116100f4578063a6ceae8014610478578063a8c2ce511461048b578063abff9d8014610494578063b8cc6c93146104a7578063cab42672146104c757600080fd5b806399eecb3b1461041f5780639edf24d01461044a578063a217fddf1461045d578063a30af8171461046557600080fd5b806338d04f36116101a85780636cfa2a82116101775780636cfa2a82146103d6578063809dab6a146103e95780638282b148146103f157806391d14854146103f9578063940e151d1461040c57600080fd5b806338d04f36146102ef5780633b345a87146103025780634487d3df1461035957806365046a83146103c357600080fd5b8063248a9ca3116101e4578063248a9ca31461028f5780632d68905d146102b25780632f2ff15d146102c757806336568abe146102dc57600080fd5b806301ffc9a71461021657806306fdde031461023e5780630c0debea146102535780632216730a14610279575b600080fd5b6102296102243660046122da565b610595565b60405190151581526020015b60405180910390f35b6102466105cc565b6040516102359190612354565b610266610261366004612367565b61065a565b6040516102359796959493929190612380565b61028161072f565b604051908152602001610235565b61028161029d366004612367565b60009081526065602052604090206001015490565b6102ba610746565b60405161023591906123ce565b6102da6102d536600461242d565b610847565b005b6102da6102ea36600461242d565b610871565b6102da6102fd3660046124fe565b6108f4565b610315610310366004612367565b6109ba565b6040516102359190600060a0820190508251825260208301516020830152604083015160408301526060830151606083015260808301511515608083015292915050565b610399610367366004612367565b60cf60205260009081526040902080546001820154600283015460038401546004909401549293919290919060ff1685565b6040805195865260208601949094529284019190915260608301521515608082015260a001610235565b6102816103d1366004612545565b610a42565b6102da6103e43660046125a6565b610ce6565b610281610e24565b610246610e91565b61022961040736600461242d565b610e9e565b6102da61041a36600461261f565b610ec9565b60c954610432906001600160a01b031681565b6040516001600160a01b039091168152602001610235565b61028161045836600461264b565b611081565b610281600081565b610281610473366004612367565b6112ab565b6102da61048636600461264b565b6113c3565b61028160cc5481565b6102da6104a2366004612367565b61172c565b6104ba6104b5366004612367565b6117dc565b604051610235919061266d565b61028160d35481565b6102da6104de36600461242d565b61192a565b61028160d15481565b60ca54610432906001600160a01b031681565b6102da61050d3660046126cf565b61194f565b610281600080516020612a5483398151915281565b61028161053536600461264b565b60d460209081526000928352604080842090915290825290205481565b61028160d05481565b6102817ffbd454f36a7e1a388bd6fc3ab10d434aa4578f811acbbcf33afb1c697486313c81565b60cb54610432906001600160a01b031681565b60006001600160e01b03198216637965db0b60e01b14806105c657506301ffc9a760e01b6001600160e01b03198316145b92915050565b60cd80546105d99061270c565b80601f01602080910402602001604051908101604052809291908181526020018280546106059061270c565b80156106525780601f1061062757610100808354040283529160200191610652565b820191906000526020600020905b81548152906001019060200180831161063557829003601f168201915b505050505081565b60d26020526000908152604090208054600182015460028301546003840154600485015460058601546006870180546001600160a01b0390971697959694959394929360ff909216926106ac9061270c565b80601f01602080910402602001604051908101604052809291908181526020018280546106d89061270c565b80156107255780601f106106fa57610100808354040283529160200191610725565b820191906000526020600020905b81548152906001019060200180831161070857829003601f168201915b5050505050905087565b600060d15460d054610741919061275c565b905090565b6060600060015b60d354811161079057600081815260d2602052604090206005015460ff161561077e578161077a8161276f565b9250505b806107888161276f565b91505061074d565b5060008167ffffffffffffffff8111156107ac576107ac612459565b6040519080825280602002602001820160405280156107d5578160200160208202803683370190505b509050600060015b60d354811161083e57600081815260d2602052604090206005015460ff161561082c578083838151811061081357610813612788565b6020908102919091010152816108288161276f565b9250505b806108368161276f565b9150506107dd565b50909392505050565b600082815260656020526040902060010154610862816119b8565b61086c83836119c5565b505050565b6001600160a01b03811633146108e65760405162461bcd60e51b815260206004820152602f60248201527f416363657373436f6e74726f6c3a2063616e206f6e6c792072656e6f756e636560448201526e103937b632b9903337b91039b2b63360891b60648201526084015b60405180910390fd5b6108f08282611a4b565b5050565b600080516020612a5483398151915261090c816119b8565b600083815260d260205260409020600101546109615760405162461bcd60e51b815260206004820152601460248201527311dc985b9d08191bd95cc81b9bdd08195e1a5cdd60621b60448201526064016108dd565b600083815260d26020526040902060060161097c83826127ec565b50827f3b8cd407222f1f7b77bd1fcf2cefb97255cec1973e1a36987dda5f92a391246e836040516109ad9190612354565b60405180910390a2505050565b6109ee6040518060a00160405280600081526020016000815260200160008152602001600081526020016000151581525090565b50600090815260cf6020908152604091829020825160a081018452815481526001820154928101929092526002810154928201929092526003820154606082015260049091015460ff161515608082015290565b6000600080516020612a54833981519152610a5c816119b8565b6001600160a01b038616610aa65760405162461bcd60e51b8152602060048201526011602482015270125b9d985b1a59081c9958da5c1a595b9d607a1b60448201526064016108dd565b60008511610af05760405162461bcd60e51b8152602060048201526017602482015276416d6f756e74206d75737420626520706f73697469766560481b60448201526064016108dd565b60008411610b405760405162461bcd60e51b815260206004820152601f60248201527f56657374696e672065706f636873206d75737420626520706f7369746976650060448201526064016108dd565b60d38054906000610b508361276f565b909155505060d35460ca5460408051635cbeecf160e11b815290516000926001600160a01b03169163b97dd9e29160048083019260209291908290030181865afa158015610ba2573d6000803e3d6000fd5b505050506040513d601f19601f82011682018060405250810190610bc691906128ab565b90506040518060e00160405280896001600160a01b0316815260200188815260200160008152602001826001610bfc91906128c4565b815260208082018990526001604080840182905260609384018a9052600087815260d28452819020855181546001600160a01b0319166001600160a01b03909116178155928501519183019190915583015160028201559082015160038201556080820151600482015560a082015160058201805460ff191691151591909117905560c08201516006820190610c9290826127ec565b505060408051898152602081018990526001600160a01b038b16925084917f1ef87e33d90c6cd4d41b1236eeebaef622ecd9fbfd2342a19393ff1d1ae40702910160405180910390a3509695505050505050565b600054610100900460ff1615808015610d065750600054600160ff909116105b80610d205750303b158015610d20575060005460ff166001145b610d835760405162461bcd60e51b815260206004820152602e60248201527f496e697469616c697a61626c653a20636f6e747261637420697320616c72656160448201526d191e481a5b9a5d1a585b1a5e995960921b60648201526084016108dd565b6000805460ff191660011790558015610da6576000805461ff0019166101001790555b610dd186868686866040518060400160405280600581526020016419dc985b9d60da1b815250611ab2565b600060d3558015610e1c576000805461ff0019169055604051600181527f7f26b83ff96e1f2b6a682f133852f6798a09c465da95921460cefb38474024989060200160405180910390a15b505050505050565b60cb546040516370a0823160e01b81523060048201526000916001600160a01b0316906370a0823190602401602060405180830381865afa158015610e6d573d6000803e3d6000fd5b505050506040513d601f19601f8201168201806040525081019061074191906128ab565b60ce80546105d99061270c565b60009182526065602090815260408084206001600160a01b0393909316845291905290205460ff1690565b7ffbd454f36a7e1a388bd6fc3ab10d434aa4578f811acbbcf33afb1c697486313c610ef3816119b8565b610efb611cf4565b60008311610f455760405162461bcd60e51b8152602060048201526017602482015276416d6f756e74206d75737420626520706f73697469766560481b60448201526064016108dd565b600084815260cf602052604090206001015415610fa45760405162461bcd60e51b815260206004820152601d60248201527f446973747269627574696f6e20616c726561647920726563656976656400000060448201526064016108dd565b6040805160a081018252858152602080820186815282840186815242606085019081526000608086018181528b825260cf9095529586209451855591516001850155516002840155516003830155516004909101805460ff191691151591909117905560d080548592906110199084906128c4565b909155505060cb54611036906001600160a01b0316333086611d4d565b604080518481526020810184905285917f2f711a6ecf1fe3a39d62a4519cfa5b1dfb29b4d6683ccca7231c17fdf20be8b1910160405180910390a261107b6001609755565b50505050565b600082815260d260209081526040808320815160e08101835281546001600160a01b031681526001820154938101939093526002810154918301919091526003810154606083015260048101546080830152600581015460ff16151560a08301526006810180548493929160c08401916110fa9061270c565b80601f01602080910402602001604051908101604052809291908181526020018280546111269061270c565b80156111735780601f1061114857610100808354040283529160200191611173565b820191906000526020600020905b81548152906001019060200180831161115657829003601f168201915b50505050508152505090508060a001516111915760009150506105c6565b80606001518310156111a75760009150506105c6565b60008160600151846111b9919061275c565b9050816080015181106111e357816040015182602001516111da919061275c565b925050506105c6565b60808201516000906111f68360016128c4565b846020015161120591906128d7565b61120f91906128ee565b90506000836040015182611223919061275c565b600087815260cf60209081526040808320815160a081018352815481526001820154938101849052600282015492810192909252600381015460608301526004015460ff16151560808201529293509003611286576000955050505050506105c6565b6000611290610e24565b90508083111561129e578092505b5090979650505050505050565b600081815260d260209081526040808320815160e08101835281546001600160a01b031681526001820154938101939093526002810154918301919091526003810154606083015260048101546080830152600581015460ff16151560a08301526006810180548493929160c08401916113249061270c565b80601f01602080910402602001604051908101604052809291908181526020018280546113509061270c565b801561139d5780601f106113725761010080835404028352916020019161139d565b820191906000526020600020905b81548152906001019060200180831161138057829003601f168201915b5050505050815250509050806040015181602001516113bc919061275c565b9392505050565b6113cb611cf4565b600082815260d260205260409020600581015460ff166114205760405162461bcd60e51b815260206004820152601060248201526f4772616e74206e6f742061637469766560801b60448201526064016108dd565b80546001600160a01b0316331461146f5760405162461bcd60e51b8152602060048201526013602482015272139bdd0819dc985b9d081c9958da5c1a595b9d606a1b60448201526064016108dd565b60ca60009054906101000a90046001600160a01b03166001600160a01b031663b97dd9e26040518163ffffffff1660e01b8152600401602060405180830381865afa1580156114c2573d6000803e3d6000fd5b505050506040513d601f19601f820116820180604052508101906114e691906128ab565b8211156115355760405162461bcd60e51b815260206004820152601960248201527f43616e6e6f7420636c61696d206675747572652065706f63680000000000000060448201526064016108dd565b600083815260d4602090815260408083208584529091529020541561159c5760405162461bcd60e51b815260206004820152601e60248201527f416c726561647920636c61696d656420666f7220746869732065706f6368000060448201526064016108dd565b60006115a88484611081565b9050600081116115ed5760405162461bcd60e51b815260206004820152601060248201526f4e6f7468696e6720746f20636c61696d60801b60448201526064016108dd565b8082600201600082825461160191906128c4565b9091555050600084815260d460209081526040808320868452909152812082905560d180548392906116349084906128c4565b9091555050600083815260cf60205260409020600101541580159061166b5750600083815260cf602052604090206004015460ff16155b1561168d57600083815260cf60205260409020600401805460ff191660011790555b60cb546116a4906001600160a01b03163383611dbf565b336001600160a01b031683857f4d68bc7512d1b2acf8b725129bb8b88139233830e1d3543181c67dc8263f0359846040516116e191815260200190565b60405180910390a4604051818152339084907f64bdb55782b54d32d4886f2dc4f69cf7344fd99862caaa6703164c8fc13f2ea89060200160405180910390a350506108f06001609755565b600080516020612a54833981519152611744816119b8565b600082815260d2602052604090206005015460ff166117985760405162461bcd60e51b815260206004820152601060248201526f4772616e74206e6f742061637469766560801b60448201526064016108dd565b600082815260d26020526040808220600501805460ff191690555183917f4df93d542273eb976c82d138be4f31cca880a82b7f8209e8281719a1a877fa4891a25050565b6118276040518060e0016040528060006001600160a01b0316815260200160008152602001600081526020016000815260200160008152602001600015158152602001606081525090565b600082815260d26020908152604091829020825160e08101845281546001600160a01b031681526001820154928101929092526002810154928201929092526003820154606082015260048201546080820152600582015460ff16151560a082015260068201805491929160c0840191906118a19061270c565b80601f01602080910402602001604051908101604052809291908181526020018280546118cd9061270c565b801561191a5780601f106118ef5761010080835404028352916020019161191a565b820191906000526020600020905b8154815290600101906020018083116118fd57829003601f168201915b5050505050815250509050919050565b600082815260656020526040902060010154611945816119b8565b61086c8383611a4b565b600061195a816119b8565b6001600160a01b0383166119a45760405162461bcd60e51b8152602060048201526011602482015270125b9d985b1a59081c9958da5c1a595b9d607a1b60448201526064016108dd565b61107b6001600160a01b0385168484611dbf565b6119c28133611def565b50565b6119cf8282610e9e565b6108f05760008281526065602090815260408083206001600160a01b03851684529091529020805460ff19166001179055611a073390565b6001600160a01b0316816001600160a01b0316837f2f8788117e7eff1d82e926ec794901d17c78024a50270940304540a733656f0d60405160405180910390a45050565b611a558282610e9e565b156108f05760008281526065602090815260408083206001600160a01b0385168085529252808320805460ff1916905551339285917ff6391f5c32d9c69d2a47ea670b442974b53935d1edc7fd64eb21e047a839171b9190a45050565b600054610100900460ff16611ad95760405162461bcd60e51b81526004016108dd90612910565b611ae1611e48565b611ae9611e71565b6001600160a01b038616611b345760405162461bcd60e51b815260206004820152601260248201527124b73b30b634b21031b7b73a3937b63632b960711b60448201526064016108dd565b6001600160a01b038516611b825760405162461bcd60e51b815260206004820152601560248201527424b73b30b634b21032b837b1b41036b0b730b3b2b960591b60448201526064016108dd565b6001600160a01b038416611bc85760405162461bcd60e51b815260206004820152600d60248201526c24b73b30b634b2103a37b5b2b760991b60448201526064016108dd565b6000825111611c095760405162461bcd60e51b815260206004820152600d60248201526c13985b59481c995c5d5a5c9959609a1b60448201526064016108dd565b611c146000336119c5565b611c2c600080516020612a54833981519152336119c5565b611c567ffbd454f36a7e1a388bd6fc3ab10d434aa4578f811acbbcf33afb1c697486313c876119c5565b60c980546001600160a01b038089166001600160a01b03199283161790925560ca805488841690831617905560cb80549287169290911691909117905560cc83905560cd611ca483826127ec565b5060ce611cb182826127ec565b50827fbb970a4821e0ebb72d5fe044f817f08221a87457eb7f1115ee49d65f88279e168383604051611ce492919061295b565b60405180910390a2505050505050565b600260975403611d465760405162461bcd60e51b815260206004820152601f60248201527f5265656e7472616e637947756172643a207265656e7472616e742063616c6c0060448201526064016108dd565b6002609755565b6040516001600160a01b038085166024830152831660448201526064810182905261107b9085906323b872dd60e01b906084015b60408051601f198184030181529190526020810180516001600160e01b03166001600160e01b031990931692909217909152611ea0565b6001609755565b6040516001600160a01b03831660248201526044810182905261086c90849063a9059cbb60e01b90606401611d81565b611df98282610e9e565b6108f057611e0681611f75565b611e11836020611f87565b604051602001611e22929190612989565b60408051601f198184030181529082905262461bcd60e51b82526108dd91600401612354565b600054610100900460ff16611e6f5760405162461bcd60e51b81526004016108dd90612910565b565b600054610100900460ff16611e985760405162461bcd60e51b81526004016108dd90612910565b611e6f612123565b6000611ef5826040518060400160405280602081526020017f5361666545524332303a206c6f772d6c6576656c2063616c6c206661696c6564815250856001600160a01b031661214a9092919063ffffffff16565b9050805160001480611f16575080806020019051810190611f1691906129fe565b61086c5760405162461bcd60e51b815260206004820152602a60248201527f5361666545524332303a204552433230206f7065726174696f6e20646964206e6044820152691bdd081cdd58d8d9595960b21b60648201526084016108dd565b60606105c66001600160a01b03831660145b60606000611f968360026128d7565b611fa19060026128c4565b67ffffffffffffffff811115611fb957611fb9612459565b6040519080825280601f01601f191660200182016040528015611fe3576020820181803683370190505b509050600360fc1b81600081518110611ffe57611ffe612788565b60200101906001600160f81b031916908160001a905350600f60fb1b8160018151811061202d5761202d612788565b60200101906001600160f81b031916908160001a90535060006120518460026128d7565b61205c9060016128c4565b90505b60018111156120d4576f181899199a1a9b1b9c1cb0b131b232b360811b85600f166010811061209057612090612788565b1a60f81b8282815181106120a6576120a6612788565b60200101906001600160f81b031916908160001a90535060049490941c936120cd81612a20565b905061205f565b5083156113bc5760405162461bcd60e51b815260206004820181905260248201527f537472696e67733a20686578206c656e67746820696e73756666696369656e7460448201526064016108dd565b600054610100900460ff16611db85760405162461bcd60e51b81526004016108dd90612910565b60606121598484600085612161565b949350505050565b6060824710156121c25760405162461bcd60e51b815260206004820152602660248201527f416464726573733a20696e73756666696369656e742062616c616e636520666f6044820152651c8818d85b1b60d21b60648201526084016108dd565b600080866001600160a01b031685876040516121de9190612a37565b60006040518083038185875af1925050503d806000811461221b576040519150601f19603f3d011682016040523d82523d6000602084013e612220565b606091505b50915091506122318783838761223c565b979650505050505050565b606083156122ab5782516000036122a4576001600160a01b0385163b6122a45760405162461bcd60e51b815260206004820152601d60248201527f416464726573733a2063616c6c20746f206e6f6e2d636f6e747261637400000060448201526064016108dd565b5081612159565b61215983838151156122c05781518083602001fd5b8060405162461bcd60e51b81526004016108dd9190612354565b6000602082840312156122ec57600080fd5b81356001600160e01b0319811681146113bc57600080fd5b60005b8381101561231f578181015183820152602001612307565b50506000910152565b60008151808452612340816020860160208601612304565b601f01601f19169290920160200192915050565b6020815260006113bc6020830184612328565b60006020828403121561237957600080fd5b5035919050565b60018060a01b038816815286602082015285604082015284606082015283608082015282151560a082015260e060c082015260006123c160e0830184612328565b9998505050505050505050565b602080825282518282018190526000918401906040840190835b818110156124065783518352602093840193909201916001016123e8565b509095945050505050565b80356001600160a01b038116811461242857600080fd5b919050565b6000806040838503121561244057600080fd5b8235915061245060208401612411565b90509250929050565b634e487b7160e01b600052604160045260246000fd5b600082601f83011261248057600080fd5b813567ffffffffffffffff81111561249a5761249a612459565b604051601f8201601f19908116603f0116810167ffffffffffffffff811182821017156124c9576124c9612459565b6040528181528382016020018510156124e157600080fd5b816020850160208301376000918101602001919091529392505050565b6000806040838503121561251157600080fd5b82359150602083013567ffffffffffffffff81111561252f57600080fd5b61253b8582860161246f565b9150509250929050565b6000806000806080858703121561255b57600080fd5b61256485612411565b93506020850135925060408501359150606085013567ffffffffffffffff81111561258e57600080fd5b61259a8782880161246f565b91505092959194509250565b600080600080600060a086880312156125be57600080fd5b6125c786612411565b94506125d560208701612411565b93506125e360408701612411565b925060608601359150608086013567ffffffffffffffff81111561260657600080fd5b6126128882890161246f565b9150509295509295909350565b60008060006060848603121561263457600080fd5b505081359360208301359350604090920135919050565b6000806040838503121561265e57600080fd5b50508035926020909101359150565b6020815260018060a01b038251166020820152602082015160408201526040820151606082015260608201516080820152608082015160a082015260a0820151151560c0820152600060c083015160e080840152612159610100840182612328565b6000806000606084860312156126e457600080fd5b6126ed84612411565b92506126fb60208501612411565b929592945050506040919091013590565b600181811c9082168061272057607f821691505b60208210810361274057634e487b7160e01b600052602260045260246000fd5b50919050565b634e487b7160e01b600052601160045260246000fd5b818103818111156105c6576105c6612746565b60006001820161278157612781612746565b5060010190565b634e487b7160e01b600052603260045260246000fd5b601f82111561086c57806000526020600020601f840160051c810160208510156127c55750805b601f840160051c820191505b818110156127e557600081556001016127d1565b5050505050565b815167ffffffffffffffff81111561280657612806612459565b61281a81612814845461270c565b8461279e565b6020601f82116001811461284e57600083156128365750848201515b600019600385901b1c1916600184901b1784556127e5565b600084815260208120601f198516915b8281101561287e578785015182556020948501946001909201910161285e565b508482101561289c5786840151600019600387901b60f8161c191681555b50505050600190811b01905550565b6000602082840312156128bd57600080fd5b5051919050565b808201808211156105c6576105c6612746565b80820281158282048414176105c6576105c6612746565b60008261290b57634e487b7160e01b600052601260045260246000fd5b500490565b6020808252602b908201527f496e697469616c697a61626c653a20636f6e7472616374206973206e6f74206960408201526a6e697469616c697a696e6760a81b606082015260800190565b60408152600061296e6040830185612328565b82810360208401526129808185612328565b95945050505050565b7f416363657373436f6e74726f6c3a206163636f756e74200000000000000000008152600083516129c1816017850160208801612304565b7001034b99036b4b9b9b4b733903937b6329607d1b60179184019182015283516129f2816028840160208801612304565b01602801949350505050565b600060208284031215612a1057600080fd5b815180151581146113bc57600080fd5b600081612a2f57612a2f612746565b506000190190565b60008251612a49818460208701612304565b919091019291505056fec0b076f3f1bcc46f29fa5cd1a645dd4127d39173da5651fdf9127bcb395fd28ca2646970667358221220b5787041bcd167cf4ff793491e3d4e7ca8b821514da18999f4172fa2abcdc92c64736f6c634300081e0033","linkReferences":{}},"methodIdentifiers":{"DEFAULT_ADMIN_ROLE()":"a217fddf","DISTRIBUTOR_ROLE()":"f0bd87cc","GAUGE_ADMIN_ROLE()":"e79e5a23","cancelGrant(uint256)":"abff9d80","claimGrant(uint256,uint256)":"a6ceae80","createGrant(address,uint256,uint256,string)":"65046a83","distributions(uint256)":"4487d3df","emergencyWithdraw(address,address,uint256)":"e63ea408","epochManager()":"e2d2bfe3","gaugeController()":"99eecb3b","gaugeId()":"a8c2ce51","gaugeType()":"8282b148","getActiveGrants()":"2d68905d","getAvailableBalance()":"809dab6a","getClaimableAmount(uint256,uint256)":"9edf24d0","getDistribution(uint256)":"3b345a87","getGrant(uint256)":"b8cc6c93","getGrantUnclaimedAmount(uint256)":"a30af817","getRoleAdmin(bytes32)":"248a9ca3","getUnclaimedAmount()":"2216730a","grantCount()":"cab42672","grantEpochAllocation(uint256,uint256)":"eb065740","grantRole(bytes32,address)":"2f2ff15d","grants(uint256)":"0c0debea","hasRole(bytes32,address)":"91d14854","initialize(address,address,address,uint256,string)":"6cfa2a82","name()":"06fdde03","receiveDistribution(uint256,uint256,uint256)":"940e151d","renounceRole(bytes32,address)":"36568abe","revokeRole(bytes32,address)":"d547741f","supportsInterface(bytes4)":"01ffc9a7","token()":"fc0c546a","totalClaimed()":"d54ad2a1","totalDistributed()":"efca2eed","updateGrantMetadata(uint256,string)":"38d04f36"},"id":5}