{"abi":[{"type":"constructor","inputs":[],"stateMutability":"nonpayable"},{"type":"function","name":"ADMIN_ROLE","inputs":[],"outputs":[{"name":"","type":"bytes32","internalType":"bytes32"}],"stateMutability":"view"},{"type":"function","name":"DEFAULT_ADMIN_ROLE","inputs":[],"outputs":[{"name":"","type":"bytes32","internalType":"bytes32"}],"stateMutability":"view"},{"type":"function","name":"PAUSER_ROLE","inputs":[],"outputs":[{"name":"","type":"bytes32","internalType":"bytes32"}],"stateMutability":"view"},{"type":"function","name":"approve","inputs":[{"name":"to","type":"address","internalType":"address"},{"name":"tokenId","type":"uint256","internalType":"uint256"}],"outputs":[],"stateMutability":"nonpayable"},{"type":"function","name":"balanceOf","inputs":[{"name":"owner","type":"address","internalType":"address"}],"outputs":[{"name":"","type":"uint256","internalType":"uint256"}],"stateMutability":"view"},{"type":"function","name":"completeExit","inputs":[{"name":"_tokenId","type":"uint256","internalType":"uint256"}],"outputs":[],"stateMutability":"nonpayable"},{"type":"function","name":"cooldownPeriod","inputs":[],"outputs":[{"name":"","type":"uint256","internalType":"uint256"}],"stateMutability":"view"},{"type":"function","name":"createLock","inputs":[{"name":"_amount","type":"uint256","internalType":"uint256"}],"outputs":[{"name":"tokenId","type":"uint256","internalType":"uint256"}],"stateMutability":"nonpayable"},{"type":"function","name":"getApproved","inputs":[{"name":"tokenId","type":"uint256","internalType":"uint256"}],"outputs":[{"name":"","type":"address","internalType":"address"}],"stateMutability":"view"},{"type":"function","name":"getLockedBalance","inputs":[{"name":"_tokenId","type":"uint256","internalType":"uint256"}],"outputs":[{"name":"amount","type":"uint256","internalType":"uint256"},{"name":"startTime","type":"uint256","internalType":"uint256"},{"name":"inExitQueue","type":"bool","internalType":"bool"},{"name":"exitQueueTime","type":"uint256","internalType":"uint256"},{"name":"currentVotingPower","type":"uint256","internalType":"uint256"}],"stateMutability":"view"},{"type":"function","name":"getRoleAdmin","inputs":[{"name":"role","type":"bytes32","internalType":"bytes32"}],"outputs":[{"name":"","type":"bytes32","internalType":"bytes32"}],"stateMutability":"view"},{"type":"function","name":"grantRole","inputs":[{"name":"role","type":"bytes32","internalType":"bytes32"},{"name":"account","type":"address","internalType":"address"}],"outputs":[],"stateMutability":"nonpayable"},{"type":"function","name":"hasRole","inputs":[{"name":"role","type":"bytes32","internalType":"bytes32"},{"name":"account","type":"address","internalType":"address"}],"outputs":[{"name":"","type":"bool","internalType":"bool"}],"stateMutability":"view"},{"type":"function","name":"increaseAmount","inputs":[{"name":"_tokenId","type":"uint256","internalType":"uint256"},{"name":"_amount","type":"uint256","internalType":"uint256"}],"outputs":[],"stateMutability":"nonpayable"},{"type":"function","name":"initialize","inputs":[{"name":"_token","type":"address","internalType":"address"},{"name":"_admin","type":"address","internalType":"address"},{"name":"_minDeposit","type":"uint256","internalType":"uint256"},{"name":"_warmupPeriod","type":"uint256","internalType":"uint256"},{"name":"_cooldownPeriod","type":"uint256","internalType":"uint256"},{"name":"_maxLockDuration","type":"uint256","internalType":"uint256"},{"name":"_maxMultiplier","type":"uint256","internalType":"uint256"}],"outputs":[],"stateMutability":"nonpayable"},{"type":"function","name":"isApprovedForAll","inputs":[{"name":"owner","type":"address","internalType":"address"},{"name":"operator","type":"address","internalType":"address"}],"outputs":[{"name":"","type":"bool","internalType":"bool"}],"stateMutability":"view"},{"type":"function","name":"isApprovedOrOwner","inputs":[{"name":"_spender","type":"address","internalType":"address"},{"name":"_tokenId","type":"uint256","internalType":"uint256"}],"outputs":[{"name":"","type":"bool","internalType":"bool"}],"stateMutability":"view"},{"type":"function","name":"lastTokenId","inputs":[],"outputs":[{"name":"","type":"uint256","internalType":"uint256"}],"stateMutability":"view"},{"type":"function","name":"locked","inputs":[{"name":"","type":"uint256","internalType":"uint256"}],"outputs":[{"name":"amount","type":"uint256","internalType":"uint256"},{"name":"startTime","type":"uint256","internalType":"uint256"},{"name":"inExitQueue","type":"bool","internalType":"bool"},{"name":"exitQueueTime","type":"uint256","internalType":"uint256"}],"stateMutability":"view"},{"type":"function","name":"maxLockDuration","inputs":[],"outputs":[{"name":"","type":"uint256","internalType":"uint256"}],"stateMutability":"view"},{"type":"function","name":"maxMultiplier","inputs":[],"outputs":[{"name":"","type":"uint256","internalType":"uint256"}],"stateMutability":"view"},{"type":"function","name":"minDeposit","inputs":[],"outputs":[{"name":"","type":"uint256","internalType":"uint256"}],"stateMutability":"view"},{"type":"function","name":"name","inputs":[],"outputs":[{"name":"","type":"string","internalType":"string"}],"stateMutability":"view"},{"type":"function","name":"ownerOf","inputs":[{"name":"tokenId","type":"uint256","internalType":"uint256"}],"outputs":[{"name":"","type":"address","internalType":"address"}],"stateMutability":"view"},{"type":"function","name":"pause","inputs":[],"outputs":[],"stateMutability":"nonpayable"},{"type":"function","name":"paused","inputs":[],"outputs":[{"name":"","type":"bool","internalType":"bool"}],"stateMutability":"view"},{"type":"function","name":"proxiableUUID","inputs":[],"outputs":[{"name":"","type":"bytes32","internalType":"bytes32"}],"stateMutability":"view"},{"type":"function","name":"renounceRole","inputs":[{"name":"role","type":"bytes32","internalType":"bytes32"},{"name":"account","type":"address","internalType":"address"}],"outputs":[],"stateMutability":"nonpayable"},{"type":"function","name":"revokeRole","inputs":[{"name":"role","type":"bytes32","internalType":"bytes32"},{"name":"account","type":"address","internalType":"address"}],"outputs":[],"stateMutability":"nonpayable"},{"type":"function","name":"safeTransferFrom","inputs":[{"name":"from","type":"address","internalType":"address"},{"name":"to","type":"address","internalType":"address"},{"name":"tokenId","type":"uint256","internalType":"uint256"}],"outputs":[],"stateMutability":"nonpayable"},{"type":"function","name":"safeTransferFrom","inputs":[{"name":"from","type":"address","internalType":"address"},{"name":"to","type":"address","internalType":"address"},{"name":"tokenId","type":"uint256","internalType":"uint256"},{"name":"data","type":"bytes","internalType":"bytes"}],"outputs":[],"stateMutability":"nonpayable"},{"type":"function","name":"setApprovalForAll","inputs":[{"name":"operator","type":"address","internalType":"address"},{"name":"approved","type":"bool","internalType":"bool"}],"outputs":[],"stateMutability":"nonpayable"},{"type":"function","name":"setCooldownPeriod","inputs":[{"name":"_newCooldownPeriod","type":"uint256","internalType":"uint256"}],"outputs":[],"stateMutability":"nonpayable"},{"type":"function","name":"setMaxLockDuration","inputs":[{"name":"_newMaxLockDuration","type":"uint256","internalType":"uint256"}],"outputs":[],"stateMutability":"nonpayable"},{"type":"function","name":"setMaxMultiplier","inputs":[{"name":"_newMaxMultiplier","type":"uint256","internalType":"uint256"}],"outputs":[],"stateMutability":"nonpayable"},{"type":"function","name":"setMinDeposit","inputs":[{"name":"_newMinDeposit","type":"uint256","internalType":"uint256"}],"outputs":[],"stateMutability":"nonpayable"},{"type":"function","name":"setWarmupPeriod","inputs":[{"name":"_newWarmupPeriod","type":"uint256","internalType":"uint256"}],"outputs":[],"stateMutability":"nonpayable"},{"type":"function","name":"startExit","inputs":[{"name":"_tokenId","type":"uint256","internalType":"uint256"}],"outputs":[],"stateMutability":"nonpayable"},{"type":"function","name":"supportsInterface","inputs":[{"name":"interfaceId","type":"bytes4","internalType":"bytes4"}],"outputs":[{"name":"","type":"bool","internalType":"bool"}],"stateMutability":"view"},{"type":"function","name":"symbol","inputs":[],"outputs":[{"name":"","type":"string","internalType":"string"}],"stateMutability":"view"},{"type":"function","name":"token","inputs":[],"outputs":[{"name":"","type":"address","internalType":"contract IERC20"}],"stateMutability":"view"},{"type":"function","name":"tokenByIndex","inputs":[{"name":"index","type":"uint256","internalType":"uint256"}],"outputs":[{"name":"","type":"uint256","internalType":"uint256"}],"stateMutability":"view"},{"type":"function","name":"tokenOfOwnerByIndex","inputs":[{"name":"owner","type":"address","internalType":"address"},{"name":"index","type":"uint256","internalType":"uint256"}],"outputs":[{"name":"","type":"uint256","internalType":"uint256"}],"stateMutability":"view"},{"type":"function","name":"tokenURI","inputs":[{"name":"tokenId","type":"uint256","internalType":"uint256"}],"outputs":[{"name":"","type":"string","internalType":"string"}],"stateMutability":"view"},{"type":"function","name":"tokensOfOwner","inputs":[{"name":"_owner","type":"address","internalType":"address"}],"outputs":[{"name":"tokenIds","type":"uint256[]","internalType":"uint256[]"}],"stateMutability":"view"},{"type":"function","name":"totalLocked","inputs":[],"outputs":[{"name":"","type":"uint256","internalType":"uint256"}],"stateMutability":"view"},{"type":"function","name":"totalSupply","inputs":[],"outputs":[{"name":"","type":"uint256","internalType":"uint256"}],"stateMutability":"view"},{"type":"function","name":"totalVotingPower","inputs":[],"outputs":[{"name":"","type":"uint256","internalType":"uint256"}],"stateMutability":"view"},{"type":"function","name":"transferFrom","inputs":[{"name":"from","type":"address","internalType":"address"},{"name":"to","type":"address","internalType":"address"},{"name":"tokenId","type":"uint256","internalType":"uint256"}],"outputs":[],"stateMutability":"nonpayable"},{"type":"function","name":"unpause","inputs":[],"outputs":[],"stateMutability":"nonpayable"},{"type":"function","name":"upgradeTo","inputs":[{"name":"newImplementation","type":"address","internalType":"address"}],"outputs":[],"stateMutability":"nonpayable"},{"type":"function","name":"upgradeToAndCall","inputs":[{"name":"newImplementation","type":"address","internalType":"address"},{"name":"data","type":"bytes","internalType":"bytes"}],"outputs":[],"stateMutability":"payable"},{"type":"function","name":"votingPower","inputs":[{"name":"_tokenId","type":"uint256","internalType":"uint256"}],"outputs":[{"name":"","type":"uint256","internalType":"uint256"}],"stateMutability":"view"},{"type":"function","name":"warmupPeriod","inputs":[],"outputs":[{"name":"","type":"uint256","internalType":"uint256"}],"stateMutability":"view"},{"type":"event","name":"AdminChanged","inputs":[{"name":"previousAdmin","type":"address","indexed":false,"internalType":"address"},{"name":"newAdmin","type":"address","indexed":false,"internalType":"address"}],"anonymous":false},{"type":"event","name":"Approval","inputs":[{"name":"owner","type":"address","indexed":true,"internalType":"address"},{"name":"approved","type":"address","indexed":true,"internalType":"address"},{"name":"tokenId","type":"uint256","indexed":true,"internalType":"uint256"}],"anonymous":false},{"type":"event","name":"ApprovalForAll","inputs":[{"name":"owner","type":"address","indexed":true,"internalType":"address"},{"name":"operator","type":"address","indexed":true,"internalType":"address"},{"name":"approved","type":"bool","indexed":false,"internalType":"bool"}],"anonymous":false},{"type":"event","name":"BeaconUpgraded","inputs":[{"name":"beacon","type":"address","indexed":true,"internalType":"address"}],"anonymous":false},{"type":"event","name":"CooldownPeriodUpdated","inputs":[{"name":"oldValue","type":"uint256","indexed":false,"internalType":"uint256"},{"name":"newValue","type":"uint256","indexed":false,"internalType":"uint256"}],"anonymous":false},{"type":"event","name":"ExitCompleted","inputs":[{"name":"tokenId","type":"uint256","indexed":true,"internalType":"uint256"},{"name":"owner","type":"address","indexed":true,"internalType":"address"},{"name":"amount","type":"uint256","indexed":false,"internalType":"uint256"}],"anonymous":false},{"type":"event","name":"ExitStarted","inputs":[{"name":"tokenId","type":"uint256","indexed":true,"internalType":"uint256"},{"name":"exitTime","type":"uint256","indexed":false,"internalType":"uint256"}],"anonymous":false},{"type":"event","name":"Initialized","inputs":[{"name":"version","type":"uint8","indexed":false,"internalType":"uint8"}],"anonymous":false},{"type":"event","name":"LockCreated","inputs":[{"name":"tokenId","type":"uint256","indexed":true,"internalType":"uint256"},{"name":"owner","type":"address","indexed":true,"internalType":"address"},{"name":"amount","type":"uint256","indexed":false,"internalType":"uint256"},{"name":"startTime","type":"uint256","indexed":false,"internalType":"uint256"}],"anonymous":false},{"type":"event","name":"LockIncreased","inputs":[{"name":"tokenId","type":"uint256","indexed":true,"internalType":"uint256"},{"name":"additionalAmount","type":"uint256","indexed":false,"internalType":"uint256"},{"name":"newTotal","type":"uint256","indexed":false,"internalType":"uint256"}],"anonymous":false},{"type":"event","name":"MaxLockDurationUpdated","inputs":[{"name":"oldValue","type":"uint256","indexed":false,"internalType":"uint256"},{"name":"newValue","type":"uint256","indexed":false,"internalType":"uint256"}],"anonymous":false},{"type":"event","name":"MaxMultiplierUpdated","inputs":[{"name":"oldValue","type":"uint256","indexed":false,"internalType":"uint256"},{"name":"newValue","type":"uint256","indexed":false,"internalType":"uint256"}],"anonymous":false},{"type":"event","name":"MinDepositUpdated","inputs":[{"name":"oldValue","type":"uint256","indexed":false,"internalType":"uint256"},{"name":"newValue","type":"uint256","indexed":false,"internalType":"uint256"}],"anonymous":false},{"type":"event","name":"Paused","inputs":[{"name":"account","type":"address","indexed":false,"internalType":"address"}],"anonymous":false},{"type":"event","name":"RoleAdminChanged","inputs":[{"name":"role","type":"bytes32","indexed":true,"internalType":"bytes32"},{"name":"previousAdminRole","type":"bytes32","indexed":true,"internalType":"bytes32"},{"name":"newAdminRole","type":"bytes32","indexed":true,"internalType":"bytes32"}],"anonymous":false},{"type":"event","name":"RoleGranted","inputs":[{"name":"role","type":"bytes32","indexed":true,"internalType":"bytes32"},{"name":"account","type":"address","indexed":true,"internalType":"address"},{"name":"sender","type":"address","indexed":true,"internalType":"address"}],"anonymous":false},{"type":"event","name":"RoleRevoked","inputs":[{"name":"role","type":"bytes32","indexed":true,"internalType":"bytes32"},{"name":"account","type":"address","indexed":true,"internalType":"address"},{"name":"sender","type":"address","indexed":true,"internalType":"address"}],"anonymous":false},{"type":"event","name":"Transfer","inputs":[{"name":"from","type":"address","indexed":true,"internalType":"address"},{"name":"to","type":"address","indexed":true,"internalType":"address"},{"name":"tokenId","type":"uint256","indexed":true,"internalType":"uint256"}],"anonymous":false},{"type":"event","name":"Unpaused","inputs":[{"name":"account","type":"address","indexed":false,"internalType":"address"}],"anonymous":false},{"type":"event","name":"Upgraded","inputs":[{"name":"implementation","type":"address","indexed":true,"internalType":"address"}],"anonymous":false},{"type":"event","name":"WarmupPeriodUpdated","inputs":[{"name":"oldValue","type":"uint256","indexed":false,"internalType":"uint256"},{"name":"newValue","type":"uint256","indexed":false,"internalType":"uint256"}],"anonymous":false},{"type":"error","name":"AlreadyInExitQueue","inputs":[]},{"type":"error","name":"CooldownNotComplete","inputs":[]},{"type":"error","name":"InsufficientAmount","inputs":[]},{"type":"error","name":"InvalidParameters","inputs":[]},{"type":"error","name":"NotInExitQueue","inputs":[]},{"type":"error","name":"NotOwnerOrApproved","inputs":[]},{"type":"error","name":"SafeERC20FailedOperation","inputs":[{"name":"token","type":"address","internalType":"address"}]},{"type":"error","name":"TokenDoesNotExist","inputs":[]}],"bytecode":{"object":"0x60a06040523060805234801561001457600080fd5b5061001d610022565b6100e1565b600054610100900460ff161561008e5760405162461bcd60e51b815260206004820152602760248201527f496e697469616c697a61626c653a20636f6e747261637420697320696e697469604482015266616c697a696e6760c81b606482015260840160405180910390fd5b60005460ff908116146100df576000805460ff191660ff9081179091556040519081527f7f26b83ff96e1f2b6a682f133852f6798a09c465da95921460cefb38474024989060200160405180910390a15b565b608051613ee561011860003960008181610f5001528181610f9001528181611091015281816110d101526111f30152613ee56000f3fe6080604052600436106103355760003560e01c806370a08231116101ab578063a910ede3116100f7578063e63ab1e911610095578063f786b9581161006f578063f786b958146109ea578063f7d9d0c414610a0a578063f84ddf0b14610a2a578063fc0c546a14610a4157600080fd5b8063e63ab1e91461095f578063e985e9c514610981578063edbf4ac2146109ca57600080fd5b8063b88d4fde116100d1578063b88d4fde146108e8578063c87b56dd14610908578063d547741f14610928578063deac361a1461094857600080fd5b8063a910ede314610839578063b2383e5514610859578063b45a3c0e1461087957600080fd5b80638fcc9cfb11610164578063a16cdbb11161013e578063a16cdbb1146107cd578063a217fddf146107e4578063a22cb465146107f9578063a85667c51461081957600080fd5b80638fcc9cfb1461077857806391d148541461079857806395d89b41146107b857600080fd5b806370a08231146106b457806372c4a927146106d457806375b238fc146106f457806380ea3de1146107165780638456cb59146107365780638462151c1461074b57600080fd5b80632f745c59116102855780634f1ef2861161022357806356891412116101fd578063568914121461064f5780635c975abb146106665780636352211e1461067f578063671b37931461069f57600080fd5b80634f1ef286146106075780634f6ccce71461061a57806352d1902d1461063a57600080fd5b80633f4ba83a1161025f5780633f4ba83a1461059b57806341b3d185146105b057806342842e0e146105c7578063430c2081146105e757600080fd5b80632f745c591461053b57806336568abe1461055b5780633659cfe61461057b57600080fd5b8063081812fc116102f257806323b872dd116102cc57806323b872dd1461047c578063248a9ca31461049c5780632c4e9ebd146104cc5780632f2ff15d1461051b57600080fd5b8063081812fc1461040f578063095ea7b31461044757806318160ddd1461046757600080fd5b806301526a431461033a5780630187aea01461035c57806301ffc9a71461038657806304646a49146103b657806306f3a401146103cd57806306fdde03146103ed575b600080fd5b34801561034657600080fd5b5061035a61035536600461352f565b610a62565b005b34801561036857600080fd5b506103736101c85481565b6040519081526020015b60405180910390f35b34801561039257600080fd5b506103a66103a136600461355e565b610ae4565b604051901515815260200161037d565b3480156103c257600080fd5b506103736101c65481565b3480156103d957600080fd5b5061035a6103e836600461352f565b610af5565b3480156103f957600080fd5b50610402610bb9565b60405161037d91906135cb565b34801561041b57600080fd5b5061042f61042a36600461352f565b610c4b565b6040516001600160a01b03909116815260200161037d565b34801561045357600080fd5b5061035a6104623660046135f5565b610c72565b34801561047357600080fd5b50609954610373565b34801561048857600080fd5b5061035a61049736600461361f565b610d8c565b3480156104a857600080fd5b506103736104b736600461352f565b600090815260c9602052604090206001015490565b3480156104d857600080fd5b506104ec6104e736600461352f565b610dbd565b60405161037d959493929190948552602085019390935290151560408401526060830152608082015260a00190565b34801561052757600080fd5b5061035a61053636600461365c565b610e0d565b34801561054757600080fd5b506103736105563660046135f5565b610e32565b34801561056757600080fd5b5061035a61057636600461365c565b610ec8565b34801561058757600080fd5b5061035a610596366004613688565b610f46565b3480156105a757600080fd5b5061035a611022565b3480156105bc57600080fd5b506103736101c45481565b3480156105d357600080fd5b5061035a6105e236600461361f565b611042565b3480156105f357600080fd5b506103a66106023660046135f5565b61105d565b61035a610615366004613748565b611087565b34801561062657600080fd5b5061037361063536600461352f565b611153565b34801561064657600080fd5b506103736111e6565b34801561065b57600080fd5b506103736101ca5481565b34801561067257600080fd5b5061012d5460ff166103a6565b34801561068b57600080fd5b5061042f61069a36600461352f565b611299565b3480156106ab57600080fd5b506103736112f9565b3480156106c057600080fd5b506103736106cf366004613688565b611346565b3480156106e057600080fd5b506103736106ef36600461352f565b6113cc565b34801561070057600080fd5b50610373600080516020613e9083398151915281565b34801561072257600080fd5b5061035a61073136600461352f565b6114c6565b34801561074257600080fd5b5061035a61151d565b34801561075757600080fd5b5061076b610766366004613688565b61153d565b60405161037d9190613796565b34801561078457600080fd5b5061035a61079336600461352f565b6115d2565b3480156107a457600080fd5b506103a66107b336600461365c565b611629565b3480156107c457600080fd5b50610402611654565b3480156107d957600080fd5b506103736101c75481565b3480156107f057600080fd5b50610373600081565b34801561080557600080fd5b5061035a6108143660046137d9565b611663565b34801561082557600080fd5b5061035a61083436600461352f565b61166e565b34801561084557600080fd5b5061035a61085436600461352f565b6116c5565b34801561086557600080fd5b5061035a610874366004613815565b61182c565b34801561088557600080fd5b506108c261089436600461352f565b6101cb6020526000908152604090208054600182015460028301546003909301549192909160ff9091169084565b60408051948552602085019390935290151591830191909152606082015260800161037d565b3480156108f457600080fd5b5061035a610903366004613837565b611950565b34801561091457600080fd5b5061040261092336600461352f565b611988565b34801561093457600080fd5b5061035a61094336600461365c565b6119fc565b34801561095457600080fd5b506103736101c55481565b34801561096b57600080fd5b50610373600080516020613e4983398151915281565b34801561098d57600080fd5b506103a661099c36600461389f565b6001600160a01b039182166000908152606a6020908152604080832093909416825291909152205460ff1690565b3480156109d657600080fd5b5061035a6109e53660046138c9565b611a21565b3480156109f657600080fd5b5061035a610a0536600461352f565b611c9e565b348015610a1657600080fd5b50610373610a2536600461352f565b611d16565b348015610a3657600080fd5b506103736101c95481565b348015610a4d57600080fd5b506101c35461042f906001600160a01b031681565b600080516020613e90833981519152610a7a81611e4a565b6001821015610a9c57604051630e52390960e41b815260040160405180910390fd5b6101c880549083905560408051828152602081018590527f310da1fca1114f3d0117a22a60cc2d1fc7a3963b81a67ff5375b919add92ec1291015b60405180910390a1505050565b6000610aef82611e54565b92915050565b610afd611e79565b610b073382611ed2565b610b2457604051636d8a29e760e11b815260040160405180910390fd5b60008181526101cb60205260409020600281015460ff1615610b595760405163648f40b760e01b815260040160405180910390fd5b60028101805460ff19166001179055426003820181905560405183917fee1d6bc4e612d3867caf7330d699cc77a55b2fe68a920b0a2e214319a565c82291610ba391815260200190565b60405180910390a250610bb6600160fb55565b50565b606060658054610bc890613927565b80601f0160208091040260200160405190810160405280929190818152602001828054610bf490613927565b8015610c415780601f10610c1657610100808354040283529160200191610c41565b820191906000526020600020905b815481529060010190602001808311610c2457829003601f168201915b5050505050905090565b6000610c5682611f57565b506000908152606960205260409020546001600160a01b031690565b6000610c7d82611299565b9050806001600160a01b0316836001600160a01b031603610cef5760405162461bcd60e51b815260206004820152602160248201527f4552433732313a20617070726f76616c20746f2063757272656e74206f776e656044820152603960f91b60648201526084015b60405180910390fd5b336001600160a01b0382161480610d0b5750610d0b813361099c565b610d7d5760405162461bcd60e51b815260206004820152603d60248201527f4552433732313a20617070726f76652063616c6c6572206973206e6f7420746f60448201527f6b656e206f776e6572206f7220617070726f76656420666f7220616c6c0000006064820152608401610ce6565b610d878383611fb6565b505050565b610d963382611ed2565b610db25760405162461bcd60e51b8152600401610ce690613961565b610d87838383612024565b60008181526101cb602052604081208054600182015460028301546003840154859485948594859492939192909160ff90911690610dfa8b6113cc565b939b929a50909850965090945092505050565b600082815260c96020526040902060010154610e2881611e4a565b610d878383612195565b6000610e3d83611346565b8210610e9f5760405162461bcd60e51b815260206004820152602b60248201527f455243373231456e756d657261626c653a206f776e657220696e646578206f7560448201526a74206f6620626f756e647360a81b6064820152608401610ce6565b506001600160a01b03919091166000908152609760209081526040808320938352929052205490565b6001600160a01b0381163314610f385760405162461bcd60e51b815260206004820152602f60248201527f416363657373436f6e74726f6c3a2063616e206f6e6c792072656e6f756e636560448201526e103937b632b9903337b91039b2b63360891b6064820152608401610ce6565b610f42828261221b565b5050565b6001600160a01b037f0000000000000000000000000000000000000000000000000000000000000000163003610f8e5760405162461bcd60e51b8152600401610ce6906139ae565b7f00000000000000000000000000000000000000000000000000000000000000006001600160a01b0316610fd7600080516020613e29833981519152546001600160a01b031690565b6001600160a01b031614610ffd5760405162461bcd60e51b8152600401610ce6906139fa565b61100681612282565b60408051600080825260208201909252610bb69183919061229a565b600080516020613e4983398151915261103a81611e4a565b610bb6612405565b610d8783838360405180602001604052806000815250611950565b6000818152606760205260408120546001600160a01b031661107f8484611ed2565b949350505050565b6001600160a01b037f00000000000000000000000000000000000000000000000000000000000000001630036110cf5760405162461bcd60e51b8152600401610ce6906139ae565b7f00000000000000000000000000000000000000000000000000000000000000006001600160a01b0316611118600080516020613e29833981519152546001600160a01b031690565b6001600160a01b03161461113e5760405162461bcd60e51b8152600401610ce6906139fa565b61114782612282565b610f428282600161229a565b600061115e60995490565b82106111c15760405162461bcd60e51b815260206004820152602c60248201527f455243373231456e756d657261626c653a20676c6f62616c20696e646578206f60448201526b7574206f6620626f756e647360a01b6064820152608401610ce6565b609982815481106111d4576111d4613a46565b90600052602060002001549050919050565b6000306001600160a01b037f000000000000000000000000000000000000000000000000000000000000000016146112865760405162461bcd60e51b815260206004820152603860248201527f555550535570677261646561626c653a206d757374206e6f742062652063616c60448201527f6c6564207468726f7567682064656c656761746563616c6c00000000000000006064820152608401610ce6565b50600080516020613e2983398151915290565b6000818152606760205260408120546001600160a01b031680610aef5760405162461bcd60e51b8152602060048201526018602482015277115490cdcc8c4e881a5b9d985b1a59081d1bdad95b88125160421b6044820152606401610ce6565b6000808061130660995490565b905060005b8181101561133e57600061131e82611153565b9050611329816113cc565b6113339085613a72565b93505060010161130b565b509092915050565b60006001600160a01b0382166113b05760405162461bcd60e51b815260206004820152602960248201527f4552433732313a2061646472657373207a65726f206973206e6f7420612076616044820152683634b21037bbb732b960b91b6064820152608401610ce6565b506001600160a01b031660009081526068602052604090205490565b60008181526101cb60205260408120805482036113ec5750600092915050565b600281015460ff16156114025750600092915050565b6101c55481600101546114159190613a72565b4210156114255750600092915050565b60008160010154426114379190613a85565b90506101c7548110611453576101c854825461107f9190613a98565b6101c75460009061146683612710613a98565b6114709190613aaf565b905060006127108260016101c8546114889190613a85565b6114929190613a98565b61149c9190613aaf565b905060006114ab826001613a72565b85549091506114bb908290613a98565b979650505050505050565b600080516020613e908339815191526114de81611e4a565b6101c680549083905560408051828152602081018590527f98eaabfe135a9c40c420208962bf81e7926b4d6df3e23502164c0554b7b352249101610ad7565b600080516020613e4983398151915261153581611e4a565b610bb6612458565b6060600061154a83611346565b90508067ffffffffffffffff811115611565576115656136a3565b60405190808252806020026020018201604052801561158e578160200160208202803683370190505b50915060005b818110156115cb576115a68482610e32565b8382815181106115b8576115b8613a46565b6020908102919091010152600101611594565b5050919050565b600080516020613e908339815191526115ea81611e4a565b6101c480549083905560408051828152602081018590527fb566d3df2587c9e70b06b6419bdeeeeec8ca8cd60e4c48c6baad0d94c46809c79101610ad7565b600091825260c9602090815260408084206001600160a01b0393909316845291905290205460ff1690565b606060668054610bc890613927565b610f42338383612496565b600080516020613e9083398151915261168681611e4a565b6101c580549083905560408051828152602081018590527f092c8de1f91bf90a308eb95f614547b24964472d1048b5c8b3b998bc443ee09f9101610ad7565b6116cd611e79565b6000818152606760205260409020546001600160a01b03166116ef3383611ed2565b61170c57604051636d8a29e760e11b815260040160405180910390fd5b60008281526101cb60205260409020600281015460ff166117405760405163a9d862cf60e01b815260040160405180910390fd5b6101c65481600301546117539190613a72565b4210156117735760405163111bb2f160e31b815260040160405180910390fd5b80546101ca805482919060009061178b908490613a85565b9091555061179a905084612564565b60008481526101cb602052604081208181556001810182905560028101805460ff19169055600301556101c3546117db906001600160a01b03163383612607565b826001600160a01b0316847fbc2fe1f1358f9ea31d4ac07bec7597153ac52af9f6771b87b626549a80b0a45d8360405161181791815260200190565b60405180910390a3505050610bb6600160fb55565b611834611e79565b61183c61263c565b6118463383611ed2565b61186357604051636d8a29e760e11b815260040160405180910390fd5b60008281526101cb60205260409020600281015460ff16156118985760405163648f40b760e01b815260040160405180910390fd5b816000036118b957604051632ca2f52b60e11b815260040160405180910390fd5b8054828260006118c98385613a72565b92505081905550826101ca60008282546118e39190613a72565b90915550506101c354611901906001600160a01b0316333086612685565b815460405185917f20a35ba5aff675daef33f7ee50ccd50e552fdcd699b96998ed6a28bf6f4e570f9161193c91878252602082015260400190565b60405180910390a25050610f42600160fb55565b61195a3383611ed2565b6119765760405162461bcd60e51b8152600401610ce690613961565b611982848484846126bb565b50505050565b606061199382611f57565b60006119aa60408051602081019091526000815290565b905060008151116119ca57604051806020016040528060008152506119f5565b806119d4846126ee565b6040516020016119e5929190613ad1565b6040516020818303038152906040525b9392505050565b600082815260c96020526040902060010154611a1781611e4a565b610d87838361221b565b600054610100900460ff1615808015611a415750600054600160ff909116105b80611a5b5750303b158015611a5b575060005460ff166001145b611abe5760405162461bcd60e51b815260206004820152602e60248201527f496e697469616c697a61626c653a20636f6e747261637420697320616c72656160448201526d191e481a5b9a5d1a585b1a5e995960921b6064820152608401610ce6565b6000805460ff191660011790558015611ae1576000805461ff0019166101001790555b6001600160a01b0388161580611afe57506001600160a01b038716155b15611b1c57604051630e52390960e41b815260040160405180910390fd5b6001821015611b3e57604051630e52390960e41b815260040160405180910390fd5b82600003611b5f57604051630e52390960e41b815260040160405180910390fd5b611bb160405180604001604052806012815260200171566f74652d457363726f7765642046554d4160701b81525060405180604001604052806006815260200165766546554d4160d01b815250612781565b611bb96127b2565b611bc16127b2565b611bc96127d9565b611bd1612808565b611bd96127b2565b6101c380546001600160a01b0319166001600160a01b038a161790556101c48690556101c58590556101c68490556101c78390556101c8829055611c1e600088612195565b611c36600080516020613e9083398151915288612195565b611c4e600080516020613e4983398151915288612195565b8015611c94576000805461ff0019169055604051600181527f7f26b83ff96e1f2b6a682f133852f6798a09c465da95921460cefb38474024989060200160405180910390a15b5050505050505050565b600080516020613e90833981519152611cb681611e4a565b81600003611cd757604051630e52390960e41b815260040160405180910390fd5b6101c780549083905560408051828152602081018590527fc586b63a7dd25a8f779ea2204bd799faa31a041413e1c1dc848fc3d4db326bc59101610ad7565b6000611d20611e79565b611d2861263c565b6101c454821015611d4c57604051632ca2f52b60e11b815260040160405180910390fd5b6101c960008154611d5c90613b00565b9182905550604080516080810182528481524260208083018281526000848601818152606086018281528883526101cb9094529581209451855590516001850155935160028401805460ff1916911515919091179055516003909201919091556101ca80549394509092859290611dd4908490613a72565b90915550611de490503383612837565b6101c354611dfd906001600160a01b0316333086612685565b6040805184815260208101839052339184917f1f0650dfb293ab82d4436fe83b01202a80a399c0ad904483e28ad3167a2b15fc910160405180910390a350611e45600160fb55565b919050565b610bb68133612851565b60006001600160e01b03198216637965db0b60e01b1480610aef5750610aef826128aa565b600260fb5403611ecb5760405162461bcd60e51b815260206004820152601f60248201527f5265656e7472616e637947756172643a207265656e7472616e742063616c6c006044820152606401610ce6565b600260fb55565b600080611ede83611299565b9050806001600160a01b0316846001600160a01b03161480611f2557506001600160a01b038082166000908152606a602090815260408083209388168352929052205460ff165b8061107f5750836001600160a01b0316611f3e84610c4b565b6001600160a01b031614949350505050565b600160fb55565b6000818152606760205260409020546001600160a01b0316610bb65760405162461bcd60e51b8152602060048201526018602482015277115490cdcc8c4e881a5b9d985b1a59081d1bdad95b88125160421b6044820152606401610ce6565b600081815260696020526040902080546001600160a01b0319166001600160a01b0384169081179091558190611feb82611299565b6001600160a01b03167f8c5be1e5ebec7d5bd14f71427d1e84f3dd0314c0f7b2291e5b200ac8c7c3b92560405160405180910390a45050565b826001600160a01b031661203782611299565b6001600160a01b03161461205d5760405162461bcd60e51b8152600401610ce690613b19565b6001600160a01b0382166120bf5760405162461bcd60e51b8152602060048201526024808201527f4552433732313a207472616e7366657220746f20746865207a65726f206164646044820152637265737360e01b6064820152608401610ce6565b6120cc83838360016128cf565b826001600160a01b03166120df82611299565b6001600160a01b0316146121055760405162461bcd60e51b8152600401610ce690613b19565b600081815260696020908152604080832080546001600160a01b03199081169091556001600160a01b0387811680865260688552838620805460001901905590871680865283862080546001019055868652606790945282852080549092168417909155905184937fddf252ad1be2c89b69c2b068fc378daa952ba7f163c4a11628f55a4df523b3ef91a4505050565b61219f8282611629565b610f4257600082815260c9602090815260408083206001600160a01b03851684529091529020805460ff191660011790556121d73390565b6001600160a01b0316816001600160a01b0316837f2f8788117e7eff1d82e926ec794901d17c78024a50270940304540a733656f0d60405160405180910390a45050565b6122258282611629565b15610f4257600082815260c9602090815260408083206001600160a01b0385168085529252808320805460ff1916905551339285917ff6391f5c32d9c69d2a47ea670b442974b53935d1edc7fd64eb21e047a839171b9190a45050565b600080516020613e90833981519152610f4281611e4a565b7f4910fdfa16fed3260ed0e7147f7cc6da11a60208b5b9406d12a635614ffd91435460ff16156122cd57610d8783612a03565b826001600160a01b03166352d1902d6040518163ffffffff1660e01b8152600401602060405180830381865afa925050508015612327575060408051601f3d908101601f1916820190925261232491810190613b5e565b60015b61238a5760405162461bcd60e51b815260206004820152602e60248201527f45524331393637557067726164653a206e657720696d706c656d656e7461746960448201526d6f6e206973206e6f74205555505360901b6064820152608401610ce6565b600080516020613e2983398151915281146123f95760405162461bcd60e51b815260206004820152602960248201527f45524331393637557067726164653a20756e737570706f727465642070726f786044820152681a58589b195555525160ba1b6064820152608401610ce6565b50610d87838383612a9f565b61240d612ac4565b61012d805460ff191690557f5db9ee0a495bf2e6ff9c91a7834c1ba4fdd244a5e8aa4e537bd38aeae4b073aa335b6040516001600160a01b03909116815260200160405180910390a1565b61246061263c565b61012d805460ff191660011790557f62e78cea01bee320cd4e420270b5ea74000d11b0c9f74754ebdbfc544b05a25861243b3390565b816001600160a01b0316836001600160a01b0316036124f75760405162461bcd60e51b815260206004820152601960248201527f4552433732313a20617070726f766520746f2063616c6c6572000000000000006044820152606401610ce6565b6001600160a01b038381166000818152606a6020908152604080832094871680845294825291829020805460ff191686151590811790915591519182527f17307eab39ab6107e8899845ad3d59bd9653f200f220920489ca2b5937696c31910160405180910390a3505050565b600061256f82611299565b905061257f8160008460016128cf565b61258882611299565b600083815260696020908152604080832080546001600160a01b03199081169091556001600160a01b0385168085526068845282852080546000190190558785526067909352818420805490911690555192935084927fddf252ad1be2c89b69c2b068fc378daa952ba7f163c4a11628f55a4df523b3ef908390a45050565b6126148383836001612b0e565b610d8757604051635274afe760e01b81526001600160a01b0384166004820152602401610ce6565b61012d5460ff16156126835760405162461bcd60e51b815260206004820152601060248201526f14185d5cd8589b194e881c185d5cd95960821b6044820152606401610ce6565b565b612693848484846001612b74565b61198257604051635274afe760e01b81526001600160a01b0385166004820152602401610ce6565b6126c6848484612024565b6126d284848484612be6565b6119825760405162461bcd60e51b8152600401610ce690613b77565b606060006126fb83612ce7565b600101905060008167ffffffffffffffff81111561271b5761271b6136a3565b6040519080825280601f01601f191660200182016040528015612745576020820181803683370190505b5090508181016020015b600019016f181899199a1a9b1b9c1cb0b131b232b360811b600a86061a8153600a850494508461274f57509392505050565b600054610100900460ff166127a85760405162461bcd60e51b8152600401610ce690613bc9565b610f428282612dbf565b600054610100900460ff166126835760405162461bcd60e51b8152600401610ce690613bc9565b600054610100900460ff166128005760405162461bcd60e51b8152600401610ce690613bc9565b612683612dff565b600054610100900460ff1661282f5760405162461bcd60e51b8152600401610ce690613bc9565b612683612e26565b610f42828260405180602001604052806000815250612e5a565b61285b8282611629565b610f425761286881612e8d565b612873836020612e9f565b604051602001612884929190613c14565b60408051601f198184030181529082905262461bcd60e51b8252610ce6916004016135cb565b60006001600160e01b0319821663780e9d6360e01b1480610aef5750610aef8261303b565b600181111561293e5760405162461bcd60e51b815260206004820152603560248201527f455243373231456e756d657261626c653a20636f6e7365637574697665207472604482015274185b9cd9995c9cc81b9bdd081cdd5c1c1bdc9d1959605a1b6064820152608401610ce6565b816001600160a01b03851661299a5761299581609980546000838152609a60205260408120829055600182018355919091527f72a152ddfb8e864297c917af52ea6c1c68aead0fee1a62673fcc7e0c94979d000155565b6129bd565b836001600160a01b0316856001600160a01b0316146129bd576129bd858261308b565b6001600160a01b0384166129d9576129d481613128565b6129fc565b846001600160a01b0316846001600160a01b0316146129fc576129fc84826131d7565b5050505050565b6001600160a01b0381163b612a705760405162461bcd60e51b815260206004820152602d60248201527f455243313936373a206e657720696d706c656d656e746174696f6e206973206e60448201526c1bdd08184818dbdb9d1c9858dd609a1b6064820152608401610ce6565b600080516020613e2983398151915280546001600160a01b0319166001600160a01b0392909216919091179055565b612aa88361321b565b600082511180612ab55750805b15610d8757611982838361325b565b61012d5460ff166126835760405162461bcd60e51b815260206004820152601460248201527314185d5cd8589b194e881b9bdd081c185d5cd95960621b6044820152606401610ce6565b60405163a9059cbb60e01b60008181526001600160a01b038616600452602485905291602083604481808b5af192506001600051148316612b68578383151615612b5b573d6000823e3d81fd5b6000873b113d1516831692505b60405250949350505050565b6040516323b872dd60e01b60008181526001600160a01b038781166004528616602452604485905291602083606481808c5af192506001600051148316612bd4578383151615612bc7573d6000823e3d81fd5b6000883b113d1516831692505b60405250600060605295945050505050565b60006001600160a01b0384163b15612cdc57604051630a85bd0160e11b81526001600160a01b0385169063150b7a0290612c2a903390899088908890600401613c89565b6020604051808303816000875af1925050508015612c65575060408051601f3d908101601f19168201909252612c6291810190613cbc565b60015b612cc2573d808015612c93576040519150601f19603f3d011682016040523d82523d6000602084013e612c98565b606091505b508051600003612cba5760405162461bcd60e51b8152600401610ce690613b77565b805181602001fd5b6001600160e01b031916630a85bd0160e11b14905061107f565b506001949350505050565b60008072184f03e93ff9f4daa797ed6e38ed64bf6a1f0160401b8310612d265772184f03e93ff9f4daa797ed6e38ed64bf6a1f0160401b830492506040015b6d04ee2d6d415b85acef81000000008310612d52576d04ee2d6d415b85acef8100000000830492506020015b662386f26fc100008310612d7057662386f26fc10000830492506010015b6305f5e1008310612d88576305f5e100830492506008015b6127108310612d9c57612710830492506004015b60648310612dae576064830492506002015b600a8310610aef5760010192915050565b600054610100900460ff16612de65760405162461bcd60e51b8152600401610ce690613bc9565b6065612df28382613d20565b506066610d878282613d20565b600054610100900460ff16611f505760405162461bcd60e51b8152600401610ce690613bc9565b600054610100900460ff16612e4d5760405162461bcd60e51b8152600401610ce690613bc9565b61012d805460ff19169055565b612e648383613280565b612e716000848484612be6565b610d875760405162461bcd60e51b8152600401610ce690613b77565b6060610aef6001600160a01b03831660145b60606000612eae836002613a98565b612eb9906002613a72565b67ffffffffffffffff811115612ed157612ed16136a3565b6040519080825280601f01601f191660200182016040528015612efb576020820181803683370190505b509050600360fc1b81600081518110612f1657612f16613a46565b60200101906001600160f81b031916908160001a905350600f60fb1b81600181518110612f4557612f45613a46565b60200101906001600160f81b031916908160001a9053506000612f69846002613a98565b612f74906001613a72565b90505b6001811115612fec576f181899199a1a9b1b9c1cb0b131b232b360811b85600f1660108110612fa857612fa8613a46565b1a60f81b828281518110612fbe57612fbe613a46565b60200101906001600160f81b031916908160001a90535060049490941c93612fe581613ddf565b9050612f77565b5083156119f55760405162461bcd60e51b815260206004820181905260248201527f537472696e67733a20686578206c656e67746820696e73756666696369656e746044820152606401610ce6565b60006001600160e01b031982166380ac58cd60e01b148061306c57506001600160e01b03198216635b5e139f60e01b145b80610aef57506301ffc9a760e01b6001600160e01b0319831614610aef565b6000600161309884611346565b6130a29190613a85565b6000838152609860205260409020549091508082146130f5576001600160a01b03841660009081526097602090815260408083208584528252808320548484528184208190558352609890915290208190555b5060009182526098602090815260408084208490556001600160a01b039094168352609781528383209183525290812055565b60995460009061313a90600190613a85565b6000838152609a60205260408120546099805493945090928490811061316257613162613a46565b90600052602060002001549050806099838154811061318357613183613a46565b6000918252602080832090910192909255828152609a909152604080822084905585825281205560998054806131bb576131bb613df6565b6001900381819060005260206000200160009055905550505050565b60006131e283611346565b6001600160a01b039093166000908152609760209081526040808320868452825280832085905593825260989052919091209190915550565b61322481612a03565b6040516001600160a01b038216907fbc7cd75a20ee27fd9adebab32041f755214dbc6bffa90cc0225b39da2e5c2d3b90600090a250565b60606119f58383604051806060016040528060278152602001613e6960279139613419565b6001600160a01b0382166132d65760405162461bcd60e51b815260206004820181905260248201527f4552433732313a206d696e7420746f20746865207a65726f20616464726573736044820152606401610ce6565b6000818152606760205260409020546001600160a01b03161561333b5760405162461bcd60e51b815260206004820152601c60248201527f4552433732313a20746f6b656e20616c7265616479206d696e746564000000006044820152606401610ce6565b6133496000838360016128cf565b6000818152606760205260409020546001600160a01b0316156133ae5760405162461bcd60e51b815260206004820152601c60248201527f4552433732313a20746f6b656e20616c7265616479206d696e746564000000006044820152606401610ce6565b6001600160a01b038216600081815260686020908152604080832080546001019055848352606790915280822080546001600160a01b0319168417905551839291907fddf252ad1be2c89b69c2b068fc378daa952ba7f163c4a11628f55a4df523b3ef908290a45050565b6060600080856001600160a01b0316856040516134369190613e0c565b600060405180830381855af49150503d8060008114613471576040519150601f19603f3d011682016040523d82523d6000602084013e613476565b606091505b509150915061348786838387613491565b9695505050505050565b606083156135005782516000036134f9576001600160a01b0385163b6134f95760405162461bcd60e51b815260206004820152601d60248201527f416464726573733a2063616c6c20746f206e6f6e2d636f6e74726163740000006044820152606401610ce6565b508161107f565b61107f83838151156135155781518083602001fd5b8060405162461bcd60e51b8152600401610ce691906135cb565b60006020828403121561354157600080fd5b5035919050565b6001600160e01b031981168114610bb657600080fd5b60006020828403121561357057600080fd5b81356119f581613548565b60005b8381101561359657818101518382015260200161357e565b50506000910152565b600081518084526135b781602086016020860161357b565b601f01601f19169290920160200192915050565b6020815260006119f5602083018461359f565b80356001600160a01b0381168114611e4557600080fd5b6000806040838503121561360857600080fd5b613611836135de565b946020939093013593505050565b60008060006060848603121561363457600080fd5b61363d846135de565b925061364b602085016135de565b929592945050506040919091013590565b6000806040838503121561366f57600080fd5b8235915061367f602084016135de565b90509250929050565b60006020828403121561369a57600080fd5b6119f5826135de565b634e487b7160e01b600052604160045260246000fd5b600082601f8301126136ca57600080fd5b813567ffffffffffffffff8111156136e4576136e46136a3565b604051601f8201601f19908116603f0116810167ffffffffffffffff81118282101715613713576137136136a3565b60405281815283820160200185101561372b57600080fd5b816020850160208301376000918101602001919091529392505050565b6000806040838503121561375b57600080fd5b613764836135de565b9150602083013567ffffffffffffffff81111561378057600080fd5b61378c858286016136b9565b9150509250929050565b602080825282518282018190526000918401906040840190835b818110156137ce5783518352602093840193909201916001016137b0565b509095945050505050565b600080604083850312156137ec57600080fd5b6137f5836135de565b91506020830135801515811461380a57600080fd5b809150509250929050565b6000806040838503121561382857600080fd5b50508035926020909101359150565b6000806000806080858703121561384d57600080fd5b613856856135de565b9350613864602086016135de565b925060408501359150606085013567ffffffffffffffff81111561388757600080fd5b613893878288016136b9565b91505092959194509250565b600080604083850312156138b257600080fd5b6138bb836135de565b915061367f602084016135de565b600080600080600080600060e0888a0312156138e457600080fd5b6138ed886135de565b96506138fb602089016135de565b96999698505050506040850135946060810135946080820135945060a0820135935060c0909101359150565b600181811c9082168061393b57607f821691505b60208210810361395b57634e487b7160e01b600052602260045260246000fd5b50919050565b6020808252602d908201527f4552433732313a2063616c6c6572206973206e6f7420746f6b656e206f776e6560408201526c1c881bdc88185c1c1c9bdd9959609a1b606082015260800190565b6020808252602c908201527f46756e6374696f6e206d7573742062652063616c6c6564207468726f7567682060408201526b19195b1959d85d1958d85b1b60a21b606082015260800190565b6020808252602c908201527f46756e6374696f6e206d7573742062652063616c6c6564207468726f7567682060408201526b6163746976652070726f787960a01b606082015260800190565b634e487b7160e01b600052603260045260246000fd5b634e487b7160e01b600052601160045260246000fd5b80820180821115610aef57610aef613a5c565b81810381811115610aef57610aef613a5c565b8082028115828204841417610aef57610aef613a5c565b600082613acc57634e487b7160e01b600052601260045260246000fd5b500490565b60008351613ae381846020880161357b565b835190830190613af781836020880161357b565b01949350505050565b600060018201613b1257613b12613a5c565b5060010190565b60208082526025908201527f4552433732313a207472616e736665722066726f6d20696e636f72726563742060408201526437bbb732b960d91b606082015260800190565b600060208284031215613b7057600080fd5b5051919050565b60208082526032908201527f4552433732313a207472616e7366657220746f206e6f6e20455243373231526560408201527131b2b4bb32b91034b6b83632b6b2b73a32b960711b606082015260800190565b6020808252602b908201527f496e697469616c697a61626c653a20636f6e7472616374206973206e6f74206960408201526a6e697469616c697a696e6760a81b606082015260800190565b7f416363657373436f6e74726f6c3a206163636f756e7420000000000000000000815260008351613c4c81601785016020880161357b565b7001034b99036b4b9b9b4b733903937b6329607d1b6017918401918201528351613c7d81602884016020880161357b565b01602801949350505050565b6001600160a01b03858116825284166020820152604081018390526080606082018190526000906134879083018461359f565b600060208284031215613cce57600080fd5b81516119f581613548565b601f821115610d8757806000526020600020601f840160051c81016020851015613d005750805b601f840160051c820191505b818110156129fc5760008155600101613d0c565b815167ffffffffffffffff811115613d3a57613d3a6136a3565b613d4e81613d488454613927565b84613cd9565b6020601f821160018114613d825760008315613d6a5750848201515b600019600385901b1c1916600184901b1784556129fc565b600084815260208120601f198516915b82811015613db25787850151825560209485019460019092019101613d92565b5084821015613dd05786840151600019600387901b60f8161c191681555b50505050600190811b01905550565b600081613dee57613dee613a5c565b506000190190565b634e487b7160e01b600052603160045260246000fd5b60008251613e1e81846020870161357b565b919091019291505056fe360894a13ba1a3210667c828492db98dca3e2076cc3735a920a3ca505d382bbc539440820030c4994db4e31b6b800deafd503688728f932addfe7a410515c14c416464726573733a206c6f772d6c6576656c2064656c65676174652063616c6c206661696c6564df8b4c520ffe197c5343c6f5aec59570151ef9a492f2c624fd45ddde6135ec42a2646970667358221220fe41da83962e375be12e1739df43db5d0c17baf3d0b73daf8b59709b002b3d9e64736f6c634300081e0033","linkReferences":{}},"methodIdentifiers":{"ADMIN_ROLE()":"75b238fc","DEFAULT_ADMIN_ROLE()":"a217fddf","PAUSER_ROLE()":"e63ab1e9","approve(address,uint256)":"095ea7b3","balanceOf(address)":"70a08231","completeExit(uint256)":"a910ede3","cooldownPeriod()":"04646a49","createLock(uint256)":"f7d9d0c4","getApproved(uint256)":"081812fc","getLockedBalance(uint256)":"2c4e9ebd","getRoleAdmin(bytes32)":"248a9ca3","grantRole(bytes32,address)":"2f2ff15d","hasRole(bytes32,address)":"91d14854","increaseAmount(uint256,uint256)":"b2383e55","initialize(address,address,uint256,uint256,uint256,uint256,uint256)":"edbf4ac2","isApprovedForAll(address,address)":"e985e9c5","isApprovedOrOwner(address,uint256)":"430c2081","lastTokenId()":"f84ddf0b","locked(uint256)":"b45a3c0e","maxLockDuration()":"a16cdbb1","maxMultiplier()":"0187aea0","minDeposit()":"41b3d185","name()":"06fdde03","ownerOf(uint256)":"6352211e","pause()":"8456cb59","paused()":"5c975abb","proxiableUUID()":"52d1902d","renounceRole(bytes32,address)":"36568abe","revokeRole(bytes32,address)":"d547741f","safeTransferFrom(address,address,uint256)":"42842e0e","safeTransferFrom(address,address,uint256,bytes)":"b88d4fde","setApprovalForAll(address,bool)":"a22cb465","setCooldownPeriod(uint256)":"80ea3de1","setMaxLockDuration(uint256)":"f786b958","setMaxMultiplier(uint256)":"01526a43","setMinDeposit(uint256)":"8fcc9cfb","setWarmupPeriod(uint256)":"a85667c5","startExit(uint256)":"06f3a401","supportsInterface(bytes4)":"01ffc9a7","symbol()":"95d89b41","token()":"fc0c546a","tokenByIndex(uint256)":"4f6ccce7","tokenOfOwnerByIndex(address,uint256)":"2f745c59","tokenURI(uint256)":"c87b56dd","tokensOfOwner(address)":"8462151c","totalLocked()":"56891412","totalSupply()":"18160ddd","totalVotingPower()":"671b3793","transferFrom(address,address,uint256)":"23b872dd","unpause()":"3f4ba83a","upgradeTo(address)":"3659cfe6","upgradeToAndCall(address,bytes)":"4f1ef286","votingPower(uint256)":"72c4a927","warmupPeriod()":"deac361a"},"id":6}